:020000040800F2
:1000000088150120A1010008DF5000082D3F0008DD
:10001000DD5000088104000831980008000000004D
:10002000000000000000000000000000B96B0008A4
:10003000BD050008000000005B520008FD6E0008CE
:10004000BB010008BB010008BB010008BB010008A0
:10005000BB010008BB010008BB010008BB01000890
:10006000BB010008BB010008BB010008BB01000880
:10007000BB010008BB010008BB010008BB01000870
:10008000BB010008BB010008BB010008BB01000860
:10009000BB010008BB010008BB010008BB01000850
:1000A000BB010008357B0008BB010008BB0100084C
:1000B000BB010008BB010008BB010008BB01000830
:1000C000BB010008BB010008BB010008BB01000820
:1000D000BB010008BB010008BB010008BB01000810
:1000E000BB010008BB010008BB010008BB01000800
:1000F000BB010008BB010008BB010008BB010008F0
:10010000BB010008BB010008BB010008BB010008DF
:100110007D7C0008BB010008BB010008BB01000892
:10012000BB010008BB010008BB0100080105000875
:10013000BB010008BB010008BB010008BB010008AF
:10014000BB010008BB010008BB010008E15000082A
:10015000BB0100080D050008BB010008BB01000839
:10016000BB010008BB010008BB010008BB0100087F
:10017000BB010008BB010008BB0100080000000033
:10018000BB010008BB010008DFF810D000F0E6F862
:100190000048004785050108AFF30080881501205D
:1001A0000648804706480047FEE7FEE7FEE7FEE711
:1001B000FEE7FEE7FEE7FEE7FEE7FEE79D6F0008CD
:1001C000890100082DE9F05F0546002092469B4614
:1001D00088460646814640241BE02846414647465D
:1001E000224600F0ABF853465A46C01A914110D34C
:1001F00011461846224600F092F82D1A67EB0108C6
:100200004F4622460120002100F089F817EB000933
:100210004E41201EA4F10104DFDC484631462A4647
:100220004346BDE8F09F40EA01039B0703D009E085
:1002300008C9121F08C0042AFAD203E011F8013BD2
:1002400000F8013B521EF9D27047D2B201E000F82B
:10025000012B491EFBD270470022F6E710B513466A
:100260000A4604461946FFF7F0FF204610BDCAB201
:10027000401E10F8011F8A4202D00029F9D1002047
:10028000704710B5002200E0521C835C8C5CA342D6
:1002900001D1002BF8D1D8B2E1B2401A10BD30B56F
:1002A00004460020034600E05B1C934203D2E05C5E
:1002B000CD5C401BF8D030BD034611F8012B00F88F
:1002C000012B002AF9D1184670470022CBB20178E1
:1002D000994200D10246401C0029F8D110467047CF
:1002E00030B503461D783DB10A4612F8014B1CB1EA
:1002F000AC42FAD15B1CF5E7181A30BD30B50546A3
:10030000002008E00A4602E0A34207D0521C1378FE
:10031000002BF9D1401C2C5C002CF3D130BD202ADD
:1003200004DB203A00FA02F1002070479140C2F14C
:10033000200320FA03F3194390407047202A04DB7E
:10034000203A21FA02F00021704721FA02F3D0404E
:10035000C2F120029140084319467047064C074DF0
:1003600006E0E06840F0010394E807009847103485
:10037000AC42F6D3FFF70CFF5CC403087CC403084F
:1003800070B58C1810F8015B15F0070301D110F857
:10039000013B2A1106D110F8012B03E010F8016B84
:1003A00001F8016B5B1EF9D12B0705D40023521E07
:1003B0000DD401F8013BFAE710F8013BCB1A921C6F
:1003C00003E013F8015B01F8015B521EF9D5A1426D
:1003D000D8D3002070BD00000146014802F09EBB4A
:1003E0006801002010B5044802F0AAFB042801D0DF
:1003F000012010BD002010BD6801002010B500F0E4
:1004000015F8012801D0012010BD074802F0AEFB0D
:10041000040006D14FF40061034802F025FA00B150
:100420000124204610BD00006801002008B501200D
:100430008DF800009DF8000008BD0000134610B5BF
:100440000A4601460024034802F070FD00B1012471
:10045000204610BD680100200149012088607047D6
:1004600024000020134610B50A4601460024034824
:1004700002F0CAFE00B10124204610BD6801002030
:10048000FEE7000030B504460020651804E000BF18
:1004900014F8011B09F0BCF9AC42F9D3002109F0B2
:1004A000B7F9BDE83040002109F0B2B970B5262295
:1004B00011491248FFF7B7FE0F4CE08C0F4DE8844E
:1004C000A06AA862A08DA885E08DE885206B2863CE
:1004D000606B6863092204F1380105F13800FFF709
:1004E000A2FE94F8410085F8410094F8420085F896
:1004F0004200606C686470BD4C030020B4030020AF
:10050000014800F0E7BA0000EC010020014800F0CB
:10051000E1BA00004C02002001681823CAB2103A68
:10052000B2FBF3F2054B6FF30901032A9B5CC36531
:1005300000D9091D8165084670470000DC120108DA
:1005400010B5014600208B698A6A4FF0C07453B120
:10055000B3F5005F15D072B1012A0CD0022A0AD07F
:10056000032A09D104E01AB1012A06D0022A03D1D4
:10057000C96AC90100D5012010BDC96AA142FAD0DB
:1005800010BD002AF7D0012AF2D0022AF3D0032AA4
:10059000F3D010BD30B50468256825F480252560AA
:1005A000046863608368402B036803D09960006827
:1005B000C26030BD9A600068C16030BD704772B6DD
:1005C000FEE70022AFF3008030B50E4B0546012058
:1005D0005C7A002C14D1587A1C54587A03EB8000B2
:1005E00045605D7A03F108002A54587A421C5A7219
:1005F000303008703A2048702F208870CC7000206E
:1006000030BD0000180B0020002229B101291AD0AA
:1006100002291BD04FF440720E490B6823F440733B
:100620000B600B6813430B600A6822F078020A60C3
:100630000A68022303EBC00002430A60086840F422
:100640008030086070474FF48072E5E74FF4007225
:10065000E2E70000103C02401348016889050FD50D
:10066000016821F400710160016841F400610160DA
:10067000016821F400610160016841F400710160CA
:10068000016849050FD5016821F4806101600168A6
:1006900041F480510160016821F4805101600168DA
:1006A00041F4806101607047003C024010B586B0A3
:1006B000044600F027F8204600F02AF902900120B5
:1006C0000390002102200091049005A9684600F0E3
:1006D00085FB002800D0012006B010BD10B588B001
:1006E00040F6FF7400F0B4FC684600F0C3FB00F075
:1006F00047FC0298844302D0022008B010BD0020BD
:10070000FBE7000010B500F0A3FC0249F3200860ED
:1007100010BD00000C3C02402DE9F0411646884611
:10072000054600240D4F13E058F8242000232946E5
:10073000022000F04FFC10B10320BDE8F08158F812
:1007400024002968814201D00220F6E7641C2D1D97
:10075000B44201D2BD42E7D90020EEE7FBFF0F080B
:1007600030B58FB0044640F6FF7507A800F082FB55
:100770000120CDE90004AA200490099C9DF83400D2
:100780008DF818002C4300F063FC00F00FFC684665
:10079000029400F08FFB0FB030BD000008490A68DA
:1007A00022F440720A600A6842F004020A600A6891
:1007B0004FF4803343EA002002430A607047000090
:1007C000103C0240064A136823F440731360136818
:1007D0001360136843F00103136001707047000059
:1007E000103C0240094910B50C6824F440740C60B8
:1007F0000C6844F440740C600C6844F001040C6014
:100800000260BFF36F8F436010BD0000103C0240D8
:10081000074A136823F440731360136843F480732A
:100820001360136843F001031360018070470000F8
:10083000103C0240074A136823F4407313601368A6
:1008400043F400731360136843F001031360016005
:1008500070470000103C024017490868C20617485C
:1008600005D5C26942F01002C26110220A600A680E
:10087000920605D5C26942F00802C26120220A60D0
:100880000A68520605D5C26942F00402C2614022DC
:100890000A600A68120605D5C26942F00202C26106
:1008A00080220A600A68920705D5C26942F02002D8
:1008B000C2610220086070470C3C02409403002093
:1008C00070B5114904460020C86100F0D5FC064609
:1008D0000E4D09E0601C07D024B100F0CDFC801B58
:1008E000A04201D9032070BD2868C003F2D4286853
:1008F000C00701D001202860286810F0F200F2D073
:10090000FFF7AAFF012070BD940300200C3C0240B9
:100910000021A0F100634FF4804293423FD321496C
:100920000144914201D2012139E01F490144914221
:1009300001D2022133E01D490144914201D2032139
:100940002DE01B490144B1F5803F01D2042126E08E
:10095000184942184FF400318A4201D205211EE0A5
:10096000154A02448A4201D2062118E0134A024481
:100970008A4201D2072112E0114A02448A4201D27E
:1009800008210CE00F4A02448A4201D2092106E004
:100990000D4A1044884201D20A2100E00B2108468A
:1009A0007047000000C0FFF70080FFF70040FFF72E
:1009B0000000FFF70000FEF70000FCF70000FAF768
:1009C0000000F8F70000F6F70000F4F710B5040097
:1009D00002D0607910B106E0012010BD0020207126
:1009E000204600F005F801206071002010BD0000D5
:1009F00008B500680649884208D10648016841F4F4
:100A000080510160006800F48050009008BD000033
:100A100000300240303802402DE9F0410446876D35
:100A200000F02AFC064694F835000025022806D07E
:100A30008020606584F834500120BDE8F081206892
:100A4000016821F0160101602068416921F08001F0
:100A50004161206C08B9A06C20B12068016821F0C8
:100A6000080101602068016821F0010101600CE0CB
:100A700000F002FC801B052807D9202060650320B8
:100A800084F8350084F83450D7E720680068C00740
:100A9000EED194F85C103F208840B860012084F8C3
:100AA000350084F834500020C7E790F8351002294B
:100AB00003D08021416501207047052180F8351061
:100AC0000068016821F00101016000207047406D5D
:100AD000704700002DE9F84304464FF00009CDF8B7
:100AE000009063484FF41651A56D0068B0FBF1F714
:100AF0002E6894F85C10082000FA01F131420FD002
:100B000021680A6852070BD50A6822F004020A60BD
:100B100094F85C108840A860606D40F0010060654A
:100B200094F85C104FF0010808FA01F0304208D048
:100B300021684969090604D5A860606D40F002008B
:100B4000606594F85C1004208840304208D0216829
:100B50000968890704D5A860606D40F004006065ED
:100B600094F85C1010208840304218D02168096841
:100B7000090714D5A86020680168490304D50068F6
:100B8000000308D5A16C07E00168C90503D401681A
:100B900021F008010160216C09B12046884794F8D2
:100BA0005C1020208840304231D021680968C90695
:100BB0002DD5A86094F8350005282068016806D076
:100BC000490347D5006800031DD4616C1CE021F087
:100BD000160101602068416921F080014161206CAB
:100BE00008B9A06C20B12068016821F008010160FB
:100BF00094F85C103F208840A86084F8358084F821
:100C00003490216D1FE0E16B09B120468847606D8B
:100C100000282BD0606DC00714D0052084F8350063
:100C20002068016821F0010101600098401C0090DB
:100C3000B84203D820680068C007F6D184F8358030
:100C400084F83490E16C002910D001B02046BDE852
:100C5000F04308470168C905D5D4016821F01001A7
:100C6000016084F8358084F83490CCE7BDE8F883DF
:100C7000180000202DE9F041044600F0FDFA064678
:100C80005CB1022084F83500002584F834502068D7
:100C9000016821F0010101600DE00120BDE8F08153
:100CA00000F0EAFA801B052805D9202060650320A2
:100CB00084F83500F2E720680068C007F0D12268A8
:100CC000116820480140D4E901031843D4E90336F0
:100CD0003343184363691843A3691843E36918430E
:100CE000236A18430843616A042903D1D4E90B132A
:100CF00019430843106020684069666A20F00701C4
:100D000030460E43012704280CD1A06A0643E06A4E
:100D100040B12046FFF714FC20B14020606584F804
:100D20003570BAE7206846612046FFF7F5FB94F876
:100D30005C203F2191408160656584F8357000201A
:100D4000ACE700003F8010F02DE9F0410446866DCD
:100D500090F83400002501280DD0012084F83400DB
:100D600094F835700020012F07D084F83400022554
:100D70002846BDE8F0810220FBE7022784F83570A1
:100D800060652046FFF706FC94F85C103F20884021
:100D9000B0602068016841F016010160206C20B14C
:100DA0002068016841F0080101602068016841F095
:100DB00001010160DCE7000070B5044600F05CFA58
:100DC0000546601C02D004480078044400F054FA40
:100DD000401BA042FAD370BD0C0000202DE9F04763
:100DE000044622480F46017E01290AD0012180468F
:100DF00001764CF250394846FFF762FD020003D0FD
:100E00002FE00220BDE8F0874FF0FF303860206807
:100E1000174D012801D0A6681CE0207C6168FFF70F
:100E2000BDFC4846FFF74CFD0246286820F0040050
:100E3000286014E0217C3046FFF7E6FB4846FFF7C8
:100E40003FFD0200286820F07A00286001D03E6053
:100E500005E0761CD4E902100844B042EAD8FFF756
:100E6000FBFB002188F818101046CBE79403002004
:100E7000103C02400F2101600D49098881600C4A35
:100E8000AA21521E1378CC2B0FD01278AA2A00D098
:100E9000552101610649891E0A6802F0E0020276C6
:100EA000097801F00C0141617047CC21F1E70000A5
:100EB000163C02402DE9F0472E49044601200A7EE7
:100EC000012A11D0012288460A7621784CF2503A44
:100ED000C90715D06068284D0128A668504606D07D
:100EE000FFF7EEFC48B10BE00220BDE8F087FFF70A
:100EF000E7FC28B92988B14301E0298831432980DA
:100F00002178890707D5257C5046FFF7D9FC10B911
:100F10001949491E0D702178DFF86090490713D5F3
:100F2000207E00F0200700F0400500F080065046CB
:100F3000FFF7C6FC40B999F8002002F01F021543E4
:100F400035433D4389F8005021784FF000020907EE
:100F50000CD5207D99F8003023F00C0389F800307F
:100F600099F80030034389F80030104688F81820BB
:100F7000BBE7000094030020163C0240143C0240F2
:100F80000348016841F00041016000207047000003
:100F9000103C02400448017841F0020101704CF21B
:100FA0005030FFF78DBC0000143C0240064800683A
:100FB000C00707D0044805490C38016004490160A6
:100FC0000020704701207047143C02403B2A19085A
:100FD0007F6E5D4C2DE9F0471B4E05461446307E72
:100FE0001F468946012808D0012030764CF250383F
:100FF0004046FFF765FC18B114E00220BDE8F08719
:101000009DB1012D16D0022D19D022463B464846EF
:10101000FFF7E8FB4046FFF753FC0C490A6822F053
:1010200001020A6000213176E8E7E1B24846FFF7A5
:10103000C9FBEFE7A1B24846FFF7EAFBEAE7214622
:101040004846FFF7F7FBE5E794030020103C024019
:10105000074900200A68002A09DA054A054B0C3ABC
:101060001360054B13600968002900DA01207047FE
:10107000103C024023016745AB89EFCD2DE9F84FC5
:10108000DFF8BCA10022012503264FF00F090AF169
:10109000040BAAF1040E00BF0B6805FA02F423400A
:1010A000A34270D10F7907F00307012F01D0022F5F
:1010B00016D187684FEA420806FA08FC27EA0C07AF
:1010C000D1F80CC00CFA08FC4CEA070CC0F808C0B8
:1010D0004768A7430C79C4F3001494403C43446030
:1010E0000C79E443A4070AD0C4684FEA420C06FA1C
:1010F0000CF7BC438F6807FA0CF72743C7600C79DD
:1011000004F00304022C12D1D40800EB840CDCF8A8
:1011100020405707FF0E09FA07F824EA0804D1F81F
:10112000108008FA07F848EA0408CCF82080046820
:101130004FEA420C06FA0CF7BC430F7907F003079D
:1011400007FA0CF7274307604C6814F4403F70D04F
:101150003C4C276847F480472760246822F0030747
:1011600004F480440094384C07EB040CDCF8084885
:1011700097074FEA177809FA08F7BC43334FB8428C
:1011800002D1002724E054E0314FB84201D10127B9
:101190001EE0304FB84201D1022719E02E4FB8426D
:1011A00001D1032714E02D4FB84201D104270FE0ED
:1011B0002B4FB84201D105270AE02A4FB84201D18E
:1011C000062705E0284FB84201D1072700E008278D
:1011D00007FA08F72743CCF80878DAF800405746B2
:1011E000D1F804C09C435FEACC2C00D51C433C6082
:1011F000DBF800405F46D1F804C09C435FEA8C2CCA
:1012000000D51C433C60DEF800407746D1F804C0AE
:101210009C435FEA8C3C00D51C433C60084F083F70
:101220003C68D1F804C09C435FEACC3C00D51C4329
:101230003C60521C102AFFF42FAFBDE8F88F00006D
:10124000083C0140443802400030014000000240A8
:101250000004024000080240000C0240001002405E
:101260000014024000180240001C02400AB18161D3
:1012700070470904FBE700000148806870470000E0
:101280000C00002002488168027811448160704798
:101290000C0000200B4810B5016841F4007101609A
:1012A000016841F480610160016841F4807101606E
:1012B000032000F06FF80F2000F006F800F024F88B
:1012C000002010BD003C024070B50D4D04464FF4A7
:1012D0007A712878B1FBF0F00A490968B1FBF0F0A7
:1012E00002F0ACF948B9102C07D200222146501E5A
:1012F00000F030F800206C6070BD012070BD00006F
:101300000C000020180000200A4808B5016841F4CC
:1013100080410160006800F4804000900548001F93
:10132000016841F080510160006800F08050009039
:1013300008BD000044380240002809DB00F01F020D
:10134000012191404009800000F1E020C0F8001127
:1013500070470000F0B40E4B1B680C46C3F3022329
:10136000C3F10705042D00D90425191D072901D251
:10137000002300E0DB1E012606FA05F1491E21408C
:1013800099409E40761E16403143F0BC08F048BD9F
:101390000CED00E0064900F0070208684FF6FF0375
:1013A000184040EA0220034A1043086070470000DA
:1013B0000CED00E00000FA05BFF34F8F054801680F
:1013C000054A01F4E06111430160BFF34F8F00BF94
:1013D000FDE700000CED00E00400FA05704700682E
:1013E000416200207047F0B50368586A39B19C6AC1
:1013F0004FF4827600EB144400204D1E0AE040EAD0
:10140000024098620FE006EB8007DF59401C04EBB6
:101410001744C0B2A842F6D344EA02404FF48072A7
:1014200002EB810158500020F0BDD0F8E00406F036
:10143000D8BF01EBC10200EB8202D0F8E004126ACF
:1014400006F029BF01EBC10200EB8202D0F8E004F4
:10145000D2F8602206F07BBFD0F8E00406F0C3BFEC
:101460000A0601F00F0101EBC10100EB810101D57A
:10147000143101E001F51571006808F017B870B576
:1014800004460B0601F00F0000EBC00104EB8101E4
:101490004FF001024FF0000502D54A75143103E008
:1014A00081F8555201F51571087094F894040128DB
:1014B00008D084F89424206807F012FD84F894542E
:1014C000002070BD022070BD70B5044601F00F0011
:1014D0002279904201D9012070BD0B0601F00F0165
:1014E00001EBC10104EB81014FF001024FF0000557
:1014F00002D54A75143103E081F8555201F5157192
:101500008D70087094F89404012808D084F894240D
:10151000206807F057FE84F89454002070BD022024
:1015200070BD10B5044690F8940401280AD001203B
:1015300084F89404080607D501F00F01206808F02C
:1015400026F804E0022010BD206808F004F800200E
:1015500084F8940410BD01F00F0101EBC10100EB10
:101560008100D0F8680270472DE9F04104460F066B
:1015700001F00F0000EBC00104EB81014FF0010608
:101580004FF0000502D54E75143103E081F8555235
:1015900001F51571C2F30A0208708A600B714A786E
:1015A00002B14883022B00D14D7194F894040128B4
:1015B00009D084F89464206807F0E0FB284684F89A
:1015C0009454BDE8F0810220FBE710B501F00F0450
:1015D00004EBC40100EB8101C1E998230023C1F8A9
:1015E000683281F8553281F85442837901F51571DA
:1015F000012B00D1CA618279006807F03BFE002010
:1016000010BD70B504460D4601F00F0021798842E7
:1016100001D9012070BD29064FF000064FF00102EC
:1016200006D500EBC00104EB81014A75143107E0D7
:1016300005EBC50104EB810181F8556201F51571D7
:101640008A70087094F89404012807D084F89424D0
:10165000206807F0E3FD280702D007E0022070BDF4
:10166000A17904F29C42206807F080FD84F894641C
:10167000002070BD10B501F00F0404EBC40100EBB5
:101680008101C1E9082300238B6201234B7501F816
:10169000144F8379012B00D1CA618279006807F069
:1016A000E9FD002010BD00002DE9FC5F056804463F
:1016B000284607F097FF00287DD1206807F0BEFF7D
:1016C000002878D0D5F80808C0F30D20C4F8D40459
:1016D000206807F0B3FF800704D52068416901F056
:1016E00002014161206807F0A9FFC10604F29C4095
:1016F000009034D52068816921F0100181612F6A42
:1017000007F00F0000EBC00004EB8006C7F3434076
:1017100006F51576022802D0062811D01AE047F601
:10172000F070074216D0C7F30A1217462846F16830
:1017300007F088FFF0683844F0607069384408E0CA
:1017400008222846009907F07DFF7069C7F30A1147
:10175000084470612068816941F01001816120684E
:1017600007F06CFF00034FF0080B4FF0000A4FF03A
:1017700001097CD50026206807F03FFF074674E08A
:10178000F80770D0F1B2206807F050FF8046C0071C
:1017900007D005EB4611C1F8089B3146204603F0FF
:1017A000A5FC5FEA087024D505EB4611C1F808BB1B
:1017B0002068016C00E023E200EB46100191D0F8B4
:1017C000082BFB4B994205D9110403D54FF4004176
:1017D000C0F8081B204600F0F6FAF5490198884247
:1017E00007D9A079012804D120680121009A07F0C7
:1017F000BDFC5FEAC86004D505EB46111020C1F8B6
:10180000080B5FEA88701DD56869000605D5D5F814
:10181000040840F48061C5F8041806EBC60004EB28
:10182000800090F8571200F51570012905D180F855
:1018300003A0F1B2204600F0E9F905EB46110220C1
:10184000C1F8080B5FEA886004D505EB461020213B
:10185000C0F8081B5FEA884005D505EB46104FF439
:101860000051C0F8081B7F08761C002F88D1206823
:1018700007F0E4FE40036ED5206807F0B7FE074688
:10188000002666E0F80762D0F1B2206807F0BCFEDF
:101890008046C00723D006F00F01D5F8342809FA96
:1018A00001F18A43C5F8342805EB4611C1F80899BF
:1018B000A07901280FD106EBC60004EB8000D0E927
:1018C00007211144016236B9606A20B920680121FC
:1018D000009A07F04BFCF1B22046FFF7AAFD5FEA41
:1018E000087003D505EB4611C1F808B95FEAC86076
:1018F00004D505EB46111020C1F808095FEA4860DD
:1019000004D505EB46104021C0F808195FEA88703D
:1019100016D53146284607F03AFE06EBC60004EB22
:101920008000C17D1430012905D180F803A0F1B2F7
:10193000204600F067F905EB46110220C1F80809BE
:101940005FEA086003D53146204603F035FC7F0886
:10195000761C002F96D1206807F070FE002811DA5F
:10196000D5F8040820F00101C5F8041894F8CC0457
:1019700001282BD0204600F00BFA2068416901F0C5
:1019800000414161206807F059FE00050BD5D5F8EC
:101990000808C00702D0204600F03EFA20684169DE
:1019A00001F400614161206807F048FEC00467D57A
:1019B000D5F8040820F00100C5F8040810212068BB
:1019C00007F0E5FD00214FF67F3220E084F8CCA43B
:1019D00000212046FFF702FDCFE700BF05EB4110D5
:1019E000C0F80829D0F8003923F40013C0F80039F2
:1019F000C0F8082BD0F8003B23F40013C0F8003BDC
:101A0000D0F8003B43F00063C0F8003B491C20794C
:101A10008842E3D8D5F81C0840F00111C5F81C181D
:101A2000E07B002828460DD0D0F8840840F00B0158
:101A3000C5F88418D5F8440840F00B012846C5F8CD
:101A400044180DE0D0F8140842F22B010843C5F801
:101A50001408D5F8100840F00B012846C5F81018F6
:101A6000D0F8000820F4FE61C5F80018A1792068BC
:101A7000009A07F07BFB2068416901F480514161C5
:101A8000206807F0DBFD800415D5206807F0B6F963
:101A9000206807F09AFDE07100F0A8FB0146E279AA
:101AA000206807F02DFE204600F05CF920684169AF
:101AB00001F400514161206807F0C0FD000707D51F
:101AC000204600F069F92068416901F00801416190
:101AD000206807F0B3FD000616D5A86920F0800144
:101AE000A96101260DE000BF06EBC60004EB8000F3
:101AF00090F85702012803D1F1B22046FFF7B0FC5D
:101B0000761C2079B042EFD8206807F097FDC0021C
:101B10001FD501264F4614E005EB4610D0F800090A
:101B200006EBC60104EB81010A7E012A08D10028D8
:101B300006DACF75F0B240F080012046FFF790FC46
:101B4000761C2079B042E7D82068416901F4801101
:101B50004161206807F072FD800234D501204A46B9
:101B600029E000BF05EB4011D1F8001B00EBC003DA
:101B700004EB830393F85862012E1BD1002919DA74
:101B800094F8D464C1F3004106F001068E4211D1ED
:101B900083F85722A96941F08003AB61696909069E
:101BA00008D4D5F8040840F40070C5F8040805E02E
:101BB0000A30544F401C21798142D3D820684169B2
:101BC00001F400114161206807F038FD400007D59D
:101BD0002046FFF72AFC2068416901F080414161FD
:101BE000206807F02BFD40070AD520684568680784
:101BF00002D52046FFF730FC206841682943416048
:101C0000BDE8FC9FD0F8E00406F049BCD0F8E00441
:101C100006F059BCF8B5040005D094F89504266880
:101C2000002510B106E00120F8BD84F89454204648
:101C300000F056F8032084F89504B6F1A04F00D1C7
:101C4000A571206807F08CFA207C8DF8000094E8DC
:101C50000F0007F0E1F80226B8BB0021206807F06A
:101C600010FD90BB002001270DE000BF00EBC0017C
:101C700004EB81014F750875C8850D76CD610D6245
:101C8000401CC0B24D6221798142EFD8002011E0A2
:101C900000EBC00104EB810181F8555281F8540238
:101CA00081F85852C1F85C52C1F86052401CC0B271
:101CB000C1F8645221798142EAD8207C8DF8000075
:101CC00094E80F0007F08EF910B184F89564AAE744
:101CD000657484F89574206807F076F90020F8BDE3
:101CE00010B586B0044614216846FEF7B5FA2068A0
:101CF000B0F1A04F2FD119480021026842F0010233
:101D00000260006800F0010005904FF4C0500090A0
:101D10000220CDE90101032003900A2004906946C6
:101D20000F48FFF7ABF90D48001D016841F0800135
:101D300001600A481430016841F480410160006884
:101D4000002200F48040059011464320FFF702FB7B
:101D50004320FFF7F1FA06B010BD00003038024012
:101D60000000024070B50446C079012570B1022818
:101D700001D0FEF724FC2946D4F8E00406F012FC5A
:101D8000D4F8E004BDE8704006F0C6BB0025F2E7D9
:101D9000D0F8E00406F0EFBBD0F8E00406F0F5BBA5
:101DA00010B5044690F8940401280AD0012084F864
:101DB00094046174206807F092FC002084F8940475
:101DC00010BD022010BDD0F8E02400F29C41104666
:101DD00006F0F4BB10B50446006894F89414012989
:101DE00009D0012184F89414C168490609D5617BA2
:101DF000012902D005E0022010BD816B41F4803141
:101E00008163206807F0A1FB206807F0CFF800206D
:101E100084F8940410BD000010B50446D0F8E00426
:101E200006F00EFC2068D0F8001E41F00101C0F859
:101E3000001EE07A002804D00248016841F0060143
:101E4000016010BD10ED00E02DE9F8430546006883
:101E50004FF00109C1074FF0000601D1400727D517
:101E6000DFF80C81C8F86860FFF706FA0746414CB6
:101E700005E000BFFFF700FAC01B022857D8206812
:101E80000001F7D468688101287A41EA0070394975
:101E900084310860C8F86890FFF7EEF9074604E05F
:101EA000FFF7EAF9C01B022841D820680001F7D5E6
:101EB0002878800752D52F484030016841F0805182
:101EC000016000682C4C00F080500090206840F4C5
:101ED00080702060FFF7D0F9074604E0FFF7CCF9E7
:101EE000C01B022823D82068C005F7D5214C7034C8
:101EF000206810F4407020D0A98901F4407181421B
:101F00001BD020681D4920F44070C1F800900E607D
:101F100020602068C00710D0FFF7AEF9064641F2F6
:101F2000883707E0FFF7A8F9801BB84202D90320E1
:101F3000BDE8F88320688007F4D5E9680D48C1F34F
:101F400001220830032A0BD0016821F4F811016046
:101F50002068A989C1F30B01084320600020E7E74E
:101F60000268074B22F4F81219400A430260EFE7B7
:101F7000000047420038024000700040400E4742D7
:101F8000FFFCFF0F2DE9F0470E46050065D0DFF896
:101F90001481D8F80000F7B200F00700B04207D271
:101FA00088F80070D8F8000000F00700B04254D163
:101FB00028683D4C810712D5400703D5206840F4BE
:101FC000E05020602878000703D5206840F4604086
:101FD00020602068A96820F0F0000843206028787D
:101FE000C0072DD0304968680839012812D002286E
:101FF00013D0032811D00968890700292DDA216838
:1020000021F0030101432160FFF736F9814641F2D7
:10201000883A0EE009688903EFE709688901ECE76F
:10202000FFF72AF9A0EB0901514502D90320BDE8C9
:10203000F0872068696800F00C00B0EB810FEFD1E9
:10204000D8F80010404601F00701B14207D90770E7
:10205000006800F00700B04201D00120E7E72878CF
:10206000400705D52068E96820F4E0500843206067
:102070002878000706D52068296920F4604040EAE6
:10208000C100206000F0D8F82168084AC1F30311AC
:10209000515CC8400649086006480068FFF714F91B
:1020A0000020C4E7003C024008380240E412010866
:1020B00018000020100000202DE9F041FFF7DCF8A7
:1020C000444C0546206840F00100206005E000BF58
:1020D000FFF7D2F8401B022847D820688007F7D5C1
:1020E000206840F080002060FFF7C6F80546394EB2
:1020F00000200836306041F2883704E0FFF7BCF872
:10210000401BB84231D8306810F00C0FF6D1FFF701
:10211000B3F80546206820F45020206005E000BF99
:10212000FFF7AAF8401B64281FD820688003F7D463
:10213000FFF7A2F80546206820F08070206004E0D8
:10214000FFF79AF8401B02280FD820688001F7D4C7
:10215000FFF792F80546206820F08060206007E0D5
:10216000FFF78AF8401B022802D90320BDE8F0815E
:1021700020680001F4D417491748091D0860154963
:1021800016488431086013480C30016821F4F85176
:102190000160016821F400510160016841F41F01F0
:1021A0000160016841F4001101600A48743001685F
:1021B00021F001010160016841F08071016009496D
:1021C0000748086008480068FFF77EF80028CDD06F
:1021D0000120CBE70038024010300004003000201E
:1021E0000024F400180000201000002001480068BE
:1021F000704700001800002004480549006809687D
:10220000044AC1F38221515CC84070471800002085
:1022100008380240F41201080448054900680968BA
:10222000044AC1F34231515CC84070471800002095
:1022300008380240F4120108154810B5006810F083
:102240000C02144813D04110042A0FD0082A0ED1D2
:102250000F4C241F2268236802F03F025B0207D55F
:102260002068C0F38810A0FB010106E0084610BDFD
:102270002168C1F38811A1FB00010023FDF7A2FF33
:102280002168C1F30141491C4900B0FBF1F010BDC8
:10229000083802400024F4002DE9F84F04006ED005
:1022A0002078DFF84C93C007A9F104054AD009F162
:1022B00004000168C1F38101012908D00068C0F35E
:1022C000810002280AD1D9F80000400206D528680A
:1022D000800337D560680028E1D033E06068B0F54E
:1022E000803F10D0B0F5A02F286810D020F48030A7
:1022F0002860286820F4802028606068A8B1FEF774
:10230000BBFF06460DE0286840F48030F4E740F457
:1023100080202860F7E700BFFEF7AEFF801B64282F
:1023200073D828688003F7D50CE0FEF7A5FF0646B2
:1023300005E000BFFEF7A0FF801B6428F0D82868E6
:102340008003F7D42078DFF8AC8280074FF0000AD2
:102350003ED5A748001D016811F00C0F08D0006899
:10236000C0F3810002280BD1D9F80000400207D445
:102370002868800716D5E068012800D112E033E113
:10238000E068B8B10120C8F80000FEF775FF064606
:1023900005E000BFFEF770FF801B0228C0D8286848
:1023A0008007F7D52868216920F0F80040EAC100CD
:1023B00028600DE0C8F800A0FEF75EFF064604E0C6
:1023C000FEF75AFF801B02281FD828688007F7D421
:1023D0002078000722D5864F87486169703771B130
:1023E00001210160FEF748FF064604E0FEF744FFC6
:1023F000801B022809D838688007F7D50EE0C0F89E
:1024000000A0FEF739FF064605E082E0FEF734FF44
:10241000801B02287DD838688007F7D420784007D1
:1024200068D5DFF8CCB100270BF13C0BDBF80000DE
:10243000C0000BD4DBF8001041F08051CBF8001045
:10244000DBF80000012700F0805000906B4E3068F0
:10245000C00510D4306840F480703060FEF70CFF87
:10246000009005E0FEF708FF0099401A022850D8B6
:102470003068C005F6D55E4EA0686C3601280FD0D6
:102480000528306810D020F001003060306820F05E
:1024900004003060A068B8B1FEF7EEFE00900FE0D7
:1024A000306840F00100F4E740F004003060F7E7E6
:1024B000FEF7E2FE0099411A41F28830814266D867
:1024C00030688007F4D50EE0FEF7D6FE009007E0F6
:1024D000FEF7D2FE0099411A41F28830814256D867
:1024E00030688007F4D42FB1DBF8001021F0805160
:1024F000CBF80010A069C8B33D49091D0968C1F3B4
:10250000810102294AD00228504607D0C8F860004D
:1025100000E03CE0FEF7B0FE04463BE04746C8F86A
:102520006000FEF7A9FE064605E000BFFEF7A4FE28
:10253000801B02282BD828688001F7D4D4E9070132
:102540000843A16A2E4A490802EB0141626A41EA46
:102550008211084394F82C1040EA0161C9F8001078
:1025600001203866FEF788FE044606E03EE000BF24
:10257000FEF782FE001B022809D828688001F7D5E3
:1025800034E000BFFEF778FE001B022802D90320CA
:10259000BDE8F88F28688001F4D427E00128F7D03F
:1025A000D9F80000E26900F4800191421CD1226A4E
:1025B00000F03F01914217D147F6C071626A0140B5
:1025C000B1EB821F10D1A26A4FF0FF3300F440310B
:1025D00003EB5202B1EB024F06D194F82C1000F03D
:1025E0007060B0EB016F01D00120D1E70020CFE790
:1025F0000438024000004742800E4742007000400D
:102600000000FFFF10B5040002D0607F10B106E0AB
:10261000012010BD00202077204600F041F8022064
:1026200060772068C168C943C90632D5CA214162B2
:10263000216853204862204602F01CFE20BB20681F
:102640008168164A11408160216888686268104379
:10265000D4E904231A43104388602168E0680861C4
:1026600020680169228941EA02410161204602F0A5
:1026700025FE48B921680A6C22F480220A64216888
:102680000A6CA3691A430A642268FF21516208B1E7
:1026900010BD00200121617710BD0000BFFF8FFF3A
:1026A0001FB5002100910191029103910068084932
:1026B00088420CD102200090C00103906846FFF7C9
:1026C000C3FB08B1FDF77BFF0249012008601FBD75
:1026D000002800403C0E474270B50446007F0B4680
:1026E000012819D00126267702206077B2B19878A8
:1026F000D97840EA014558781978000240EA41301B
:1027000005432168CA204862216853204862204658
:1027100002F0B0FDD0B122E0022070BD5878C106B1
:1027200003D500F0EF000A305870D87802F096FD1B
:102730000204587802F092FD42EA0022987802F0F2
:102740008DFD0243187842EA4035DAE70748054034
:1027500020684560204602F0B1FD00B96677226826
:10276000FF2151620021217770BD00003FFFFF0073
:102770002DE9F0410446007F0D46012823D04FF09B
:10278000010884F81C800220607720680027806898
:102790004FEA4060D2B1002800DBEF70A8782978BA
:1027A00040EA01466878E978000240EA8150064331
:1027B0002168CA204862216853204862204602F0FE
:1027C00059FDB8B12CE00220BDE8F081002800DB03
:1027D000EF70287802F042FD0204687802F03EFDB6
:1027E00042EA0022A87802F039FD0243E87842EA82
:1027F0008056DDE70D480640206806602068816845
:1028000021F480218160D5E90301084321688A68A9
:1028100010438860204602F051FD08B984F81D80FD
:102820002268FF2151622777CEE700007F7F7F007B
:1028300070B504460B482168C860FEF71DFD0546CB
:102840004FF47A7607E000BFFEF716FD401BB0425A
:1028500001D9032070BD2068C0688006F4D500202F
:1028600070BD00005F7F01002DE9FE430446002695
:1028700003200D4684F83400606C03285ED0B5F563
:10288000805F5BD04FF4006700204FF08068BD424E
:102890001FD18146009001900021206803F016FBB3
:1028A000800113D46946204603F0B8FE07000DD11D
:1028B0000198400334D5B4F850000104206803F0B7
:1028C00036FB070002D10221206823E0A06B3843C9
:1028D00028E01DB1A06B40F0006023E0814600902D
:1028E00001900021206803F0F1FA8001EED46946DE
:1028F000204603F093FE0700E8D10198C0030FD5EE
:10290000B4F850000104206803F011FB0700DDD18A
:102910000021206803F057FB0700D7D14F46D5E7C9
:102920004746D3E7A063A06B144F4FF0010848B1AE
:102930002068876384F8348001260EE0A06B40F0A5
:102940008050EFE7211DD4E9050C0EC9CDE90050F8
:10295000CDF808C0206803F0BCFA4FF4007120687D
:1029600003F018FB28B121688F63A16B0143A163B9
:10297000012684F834803046BDE8FE83FF05400020
:1029800070470000F0B5426E920F0A70426EC2F3BB
:1029900083624A70426EC2F301628A70426E120C08
:1029A000CA70B0F86420120A0A7190F864204A7163
:1029B000826E120DCA80826EC2F303420A72B0F8B0
:1029C0006820C2F3C0324A72B0F86820C2F3803285
:1029D0008A72B0F86820C2F34032CA72B0F8682038
:1029E000C2F300320A7300264E73426C4FF4007536
:1029F000012462B1012A3AD0026847499163816B90
:102A000041F08051816380F834400120F0BDB0F87E
:102A10006820C36E9205120D42EA93720A61C26E7B
:102A2000C2F3C2620A75C26EC2F302624A75C26E16
:102A3000C2F342528A75C26EC2F38242CA75C26E36
:102A4000C2F3C2320A760A69521C42650B7E03F059
:102A500007039B1C9A4042650B7A03F00F0704FAA8
:102A600007F383655B0A5A43C0E917250EE090F827
:102A70006820C36E9206920A42EA13420A610A690A
:102A8000521C92024265C0E91652056630F86C2F5E
:102A9000C2F3803201F8192F0288C2F3C6124A70BD
:102AA000027802F07F028A704268D20FCA704268D0
:102AB000C2F341720A714268C2F382624A7142688B
:102AC000C2F383528A714268C2F34052CA710E72D5
:102AD0004268C2F300424A728288C2F3C0328A72EC
:102AE0008288C2F38032CA728288C2F340320A738B
:102AF0008288C2F300324A738288C2F381228A73C9
:102B00008288C2F30122CA730079C0F346000874B8
:102B10004C740020F0BD0000FF054000426C0A60CC
:102B2000826C4A60C26C8A60026DCA60426D0A6142
:102B3000826D4A61C26D8A61006EC8610020704773
:102B400070B50446B0F8500000250104206803F079
:102B500022FB18B1A16B0143A16304E000212068AE
:102B600003F0B4F90546C5F3432070BD70B5040009
:102B70000ED094F83400002518B92577204600F0CF
:102B80004DF8032084F83400204600F00BF808B11B
:102B9000012070BDA5632563012084F83400002066
:102BA00070BD0000FEB50025044676200095CDE9F5
:102BB00001502B462A462946206803F08AF9154E13
:102BC00046F8A05F206803F096F9012535600220E1
:102BD000FEF7F2F8204603F009FE28B184F83450DD
:102BE000A16B0143A16313E0204603F087FD002899
:102BF000F4D14FF40071206803F0CCF9002808D01C
:102C0000226805499163A16B0143A16384F83450A4
:102C10000120FEBD00802542FF0540002DE9F04F58
:102C200087B0054614216846FDF716FB4149286820
:102C300088427CD1404800683F4940F40060086009
:102C4000086800F4006005903B48143800683A4971
:102C500040F0040014390860086800F00400059092
:102C6000086840F0080008600868022400F00800C6
:102C700005904FF4F850CDE9000402AA0020032685
:102C80004FF00C0882E8410169462C48FEF7F6F93E
:102C900002AA002082E841010427CDE900746946B8
:102CA0002748FEF7EBF9284C26484FF00068C4E9A6
:102CB000000800204FF48069A060C4E90309B8024D
:102CC0004FF4804BC4E9050BC4E909764FF0200AA4
:102CD0000020C4E907A07E05B7102046C4E90B67B1
:102CE000FDF7C8FF08B1FDF76AFC2C64A563164C1C
:102CF000144860344830C4E900084020A060002037
:102D0000C4E90309C4E907A00420606204F12802B1
:102D1000032082E8C1004FF48051C4E9051B20461E
:102D2000FDF7A8FF08B1FDF74AFCEC63A56307B007
:102D3000BDE8F08F002C01404438024000080240FA
:102D4000000C024058640240EC0100202DE9F04FD5
:102D500087B09B4616460D460446FEF78DFA009056
:102D60003DB194F83400012807D0A06B40F000502A
:102D70000DE0A06B40F0006009E00020A063E26D70
:102D800006EB0B01914204D9A06B40F00070A063E8
:102D90008AE0032184F834102168C862616C01293B
:102DA00000D076024FF0FF3101914FEA4B210291A2
:102DB0004FF0010803AA902102278146CDF8188020
:102DC00082E8820201A9206803F06AF8BBF1010FD2
:102DD00005D927633146206803F04EF905E0C4F8B1
:102DE00030803146206803F060F9DFF83CA130B153
:102DF0002268C2F838A0A16B0143A16350E0029E93
:102E00001FE0406B000413D596B10027206803F043
:102E100076F805F8010B010A05F8011B010C05F80D
:102E2000021B000E361F7F1C05F8010C082FEDD386
:102E3000FEF722FA01460098091A1098814220D222
:102E4000F8B12068426B40F22A310A42D9D0416B76
:102E5000C90509D5BBF1010F06D9616C032903D05F
:102E600003F0CAF90028C3D12068416B090702D4D6
:102E7000416B89051AD5C0F838A0A06B40F0080056
:102E800050E02168C1F838A0A06B40F00040A0637A
:102E900084F83480C4F83090032007B0BDE8F08F88
:102EA00084F83480C4F830900120F6E7416B89073C
:102EB00005D5C0F838A0A06B40F0020032E0416BAD
:102EC00089061BD5C0F838A0A06B40F0200029E08F
:102ED00003F015F805F8010B010A05F8011B010CB8
:102EE00005F8021B000E05F8010C361FFEF7C4F9A9
:102EF0000099411A109881420ED268B12068416B46
:102F0000890201D5002EE3D1216840F23A5088634E
:102F100084F834800020C0E72168C1F838A0A06B95
:102F200040F00040A063BBE7FF0540002DE9F047FB
:102F300086B01F460446154639B194F8340001287E
:102F400007D0022006B0BDE8F087A06B40F000601B
:102F500008E00020A063E36DEA199A4204D9A06B4F
:102F600040F00070A06369E0032284F834202268F6
:102F70008146D0622268D36B40F22A363343D36352
:102F8000236C2F4ADA63236C2E4ADA64226C1065B4
:102F9000226C9060206C0068026822F0C00202601F
:102FA00020680A46266C4FEA472800F180014FEA64
:102FB00098033046FDF7C8FEDFF88CA0012670B1FB
:102FC0002068C16B21F49571C1632168C1F838A0F4
:102FD000A06B40F08040A06384F834602EE01B4872
:102FE0000660606C012800D06D024FF0FF30CDE923
:102FF00000089020029002200596CDE90309694659
:10300000206802F04DFF012F06D982202063294657
:10301000206803F031F805E081202063294620680C
:1030200003F043F800288DD02268C2F838A0A16BC5
:103030000143A16384F83460C4F83090012081E733
:10304000CD65000869650008FF0540008C852542B4
:1030500010B5FDF701FA10BD2DE9F04F8DB09B467C
:1030600016460D460446FEF707F90A903DB194F85E
:103070003400012807D0A06B40F000500DE0A06B99
:1030800040F0006009E00020A063E26D06EB0B0158
:10309000914204D9A06B40F00070A0637AE0032154
:1030A00084F834102168C862616C012900D076026E
:1030B0004FF0FF3103914FEA4B2104919021CDE96C
:1030C00005104FF00109CDE90709824603A92068E0
:1030D00002F0E6FEBBF1010F06D920202063314645
:1030E000206803F0A3F805E0102020633146206833
:1030F00003F0B5F85FEA000806D02168414888630C
:10310000A06B40EA080074E0049E27E0406B400496
:103110001CD5DEB15FF0000715F8010B009015F823
:10312000011B361F40EA0120009015F8021B40EAFF
:103130000140009015F8011C40EA016000906946CA
:10314000206802F0EFFE7F1C082FE5D3FEF794F80D
:103150000A99411A1698814220D2F8B12068416B31
:1031600040F21A321142D1D0416BC90523D5BBF1CF
:10317000010F20D9616C03291DD003F03DF8D0B1B7
:10318000226820499163A16B0143A16384F83490C4
:10319000C4F830A001200DB0BDE8F08F21681948B7
:1031A0008863A06B40EA0800A06384F83490C4F8F8
:1031B00030A00320EFE72068416B090702D4416B80
:1031C000890505D50F498163A06B40F0080010E028
:1031D000416B890705D50B498163A06B40F0020064
:1031E00007E0416BC90606D506498163A06B40F034
:1031F0001000A063CAE740F23A51816384F834902A
:103200000020C8E7FF0540002DE9F04F5FEA010B01
:1032100087B01E460446114607D094F834000128B2
:1032200007D0022007B0BDE8F08FA06B40F000602F
:1032300008E00025A563E26D8819904204D9A06BCF
:1032400040F00070A06356E0032084F8340020684A
:10325000C5622068C26B40F21A2942EA0902C263C1
:10326000E26B2D48D063E26B2C48D064E06B0565BF
:10327000606C012800D049024FF09008012E05D95A
:10328000A0202063206802F0D1FF04E0C4F8308061
:10329000206802F0E4FFDFF888A0012730B122683F
:1032A000C2F838A0A16B0143A16321E01D4807606B
:1032B000E16B40208860E06B0068016821F0C0018C
:1032C00041F04001016022687602B308594680321D
:1032D000E06BFDF739FD80B12068C16B21EA09017F
:1032E000C1632168C1F838A0A06B40F08040A063A2
:1032F00084F834702563012094E74FF0FF30CDE966
:103300000006CDE90285CDE904576946206802F040
:10331000C7FD002086E700000F6600086965000809
:10332000FF0540008C85254270B5040009D0606A15
:10333000002540B125616561A56294F8510040B156
:103340000CE0012070BD6068B0F5827FF4D0E561CB
:10335000F2E784F85050204600F044F8022084F848
:1033600051002068016821F040010160A088218996
:1033700000F4827001F404410843A18901F4006162
:103380000843217C01F002010843217D01F0010185
:103390000843218B01F400710843217F01F03801BB
:1033A000084394F8201001F080010843218D01F4B6
:1033B0000051084321680860A069042101EA104017
:1033C00094F8241001F01001084321684860206837
:1033D000C16921F40061C1616565012084F8510073
:1033E000002070BD10B586B0044614216846FCF775
:1033F00033FF13492068884220D112480021026817
:1034000042F480520260006800F4805005900D483C
:103410001438026842F001020260006800F0010006
:103420000590E02000900220CDE9010103200390E7
:103430000520049069460448FDF720FE06B010BD43
:103440000030014044380240000002402DE9FF4FA7
:1034500081B01D46934604464FF001090E9EFDF7CC
:103460000BFF074694F851006168012806D0B1F5BA
:10347000827F3CD1A168C9BB042838D102980028BA
:1034800071D0BBF1000FFBD0002DF9D094F85000A3
:1034900001282CD04FF0010A84F850A094F8510074
:1034A000042802D0052084F851004FF00008C4F829
:1034B0005480C4F838B0E587A58702992163E58672
:1034C000A586C4F84080C4F8448020680168490695
:1034D00003D4016841F040010160E068B0F5006F7D
:1034E000606808D0F0B3012D49D081E0FFE70220E9
:1034F00005B0BDE8F08F08B1012D39D1206B2168EE
:103500000088C860206B801C2063E08E401EE0862F
:103510002EE02068816889070FD5E18E69B1B9F185
:10352000010F0AD1216B0988C160206B801C2063C8
:10353000E08E401EE0864FF0000920688168C907D0
:103540000CD0E18F51B1C068A16B0880A06B801CCA
:10355000A063E08F401EE0874FF00109FDF78CFE6D
:10356000C01B01E00BE067E0B04201D3701C50D1FA
:10357000E08E0028CDD1E08F0028CAD13EE0206B3C
:10358000216800780873206B401C2063E08E401E89
:10359000E0862DE02068816889070FD5E18E69B14A
:1035A000B9F1010F0AD1216B09780173206B401C1E
:1035B0002063E08E401EE0864FF00009206881689D
:1035C000C9070CD0E18F51B1C068A16B0870A06B26
:1035D000401CA063E08F401EE0874FF00109FDF71B
:1035E0004BFEC01BB04202D3701C01D011E086B16B
:1035F000E08E0028CED1E08F0028CBD13A4631466C
:10360000204603F0FDF950B12020606584F8508019
:1036100012E084F851A084F85080032068E7A06885
:1036200018B92068C1688068009084F851A084F8B7
:103630005080606D0028F1D0012059E710B5401E80
:10364000B0F1807F01D3012010BD4FF0E024606114
:103650000F21601706F0E4FB0020A0610720206125
:10366000002010BD7047704770B590F83C20012ACB
:1036700032D0012480F83C40022280F83D200368CB
:103680005A689D6822F070060A6832435A60134BEC
:1036900002689A4214D0B2F1804F11D0104B9A4276
:1036A0000ED0104B9A420BD00F4B9A4208D00F4BC2
:1036B0009A4205D00E4B9A4202D00E4B9A4204D148
:1036C000496825F080031943916080F83D4000214E
:1036D00080F83C10084670BD022070BD000001401B
:1036E0000004004000080040000C004000040140BD
:1036F000004001400018004010B5040003D094F8C9
:103700003D0010B107E0012010BD002084F83C000E
:10371000204600F01FF8022084F83D00211D20689B
:1037200004F00EFA012084F8460084F83E0084F884
:103730003F0084F8400084F8410084F8420084F897
:10374000430084F8440084F8450084F83D000020DC
:1037500010BD000008B500680B49884212D10B4823
:10376000016841F0010101600068002200F00100E1
:10377000009011461920FDF7EDFDBDE80840192025
:10378000FDF7DABD08BD00000000014044380240EA
:1037900090F83D10012901D001207047022180F8E6
:1037A0003D100168CA6842F00102CA600068114910
:1037B000884214D0B0F1804F11D00F4988420ED00A
:1037C0000E4988420BD00E49884208D00D498842E4
:1037D00005D00D49884202D00C49884204D1816845
:1037E00001F00701062903D0016841F001010160E1
:1037F0000020704700000140000400400008004025
:10380000000C00400004014000400140001800404E
:1038100070B5044690F83C000025012817D0012619
:1038200084F83C60022084F83D002068826822F021
:10383000770222F47F4282600868502838D00DDC7D
:1038400020284FD005DC90B3102811D14AE0022087
:1038500070BD302846D040280AD13BE060282FD0E8
:1038600070280DD0B0F5805F03D0B0F5005F12D0A6
:10387000012584F83D60002084F83C00284670BD96
:10388000CB68D1E90121206804F0C2F92068816881
:1038900041F0770109E0CB68D1E90121206804F00B
:1038A000B7F92068816841F480418160E1E719E05F
:1038B000CA684968206804F0BDF95021206806E014
:1038C000CA684968206804F0C6F96021206804F0DD
:1038D000A9F9CEE7CA684968206804F0ABF940212D
:1038E0002068F4E7226801461046F0E770472DE9AA
:1038F000F04104460068C66805694FF00007A90753
:1039000013D5B10711D5F91E016101202077206878
:1039100080698007204602D0FFF7E8FF04E000F04E
:103920007EF8204600F07CF82777680716D57007E8
:1039300014D521686FF00400086102202077206808
:10394000806910F4407F204602D0FFF7CFFF04E0EB
:1039500000F065F8204600F063F82777280715D5B2
:10396000300713D521686FF0080008610420207724
:103970002068C0698007204602D0FFF7B7FF04E047
:1039800000F04DF8204600F04BF82777E80616D5F2
:10399000F00614D521686FF0100008610820207728
:1039A0002068C06910F4407F204602D0FFF79EFFD8
:1039B00004E000F034F8204600F032F82777E807FA
:1039C00008D0F00706D021686FF00100086120469A
:1039D00000F028F8280608D5300606D521686FF0D3
:1039E000800008612046FFF73DFE680608D5700696
:1039F00006D521686FF040000861204600F03AF8D3
:103A0000A8060AD5B00608D521686FF02000086125
:103A10002046BDE8F041FFF726BEBDE8F0817047C3
:103A2000704700000068104988421BD10F490868A0
:103A3000401C08604FF4FA61B0FBF1F201FB120187
:103A40000B48B1F57A7F09D24FF4FA72B1FBF2F369
:103A500002FB1311FA2901D2012200E00022042105
:103A6000FDF704BC7047000000000140000000208A
:103A7000000402407047704770470000F8B50168C5
:103A800004460868CA684B6910F00F0F4FF0000534
:103A900059D003F0010602F49077374365D0C1078F
:103AA00005D0D10503D5616C41F001016164410786
:103AB00005D5D90703D0616C41F00201616481072B
:103AC00005D5D90703D0616C41F004016164010799
:103AD00007D502F02001314303D0616C41F00801A9
:103AE0006164616C00293AD0800604D5900602D545
:103AF000204604F0F7F820684069616CC0F380103C
:103B0000090700D460B3204604F0C5F82068406976
:103B1000400621D52068143050E8001F21F04001F4
:103B200040E80012002AF5D1E06BA8B172490165A6
:103B3000E06BFCF7BAFF002811D0E06B016D01B01B
:103B4000BDE8F040084783060FD593060DD5204603
:103B5000BDE8F84004F0C6B82046FFF78DFFF8BD79
:103B60002046FFF789FF6564F8BD266B2023012EF0
:103B70007ED1C6067CD5D6067AD5086848680090FE
:103B800048694FF0020640064DD5E26B1068406868
:103B90004FF480770004000C3AD0A18D814237D9D0
:103BA000E085D069B8422DD020680C3050E8001F65
:103BB00021F4807140E80012002AF5D12068143009
:103BC00050E8001F21F0010140E80012002AF5D161
:103BD0002068143050E8001F21F0400140E8001236
:103BE000002AF5D184F84230256320680C3050E873
:103BF000001F21F0100140E80012002AF5D1E06B0F
:103C0000FCF70AFF6663A08DE18D401A81B206E0E1
:103C1000A18D8142A8D1D069B842A5D16663204662
:103C2000FFF729FFF8BDA08DE18D401A81B2E08D2C
:103C30000028F7D00029F5D020680C3050E8002F7C
:103C400022F4907240E80027002FF5D1206814304C
:103C500050E8002F22F0010240E80027002FF5D1A4
:103C600084F84230256320680C3050E8002F00E0D3
:103C700006E022F0100240E80023002BF3D1CDE74C
:103C800005062BD5150629D594F841002128C9D160
:103C9000A068B0F5805F01D12069B0B1206A411CF5
:103CA0002162216800784860E08C401E0004000C0E
:103CB000E084B7D12068C16821F08001C16020682C
:103CC000C16841F04001C160F8BD206A0088C0F3BE
:103CD00008004860206A801C2062E5E74006F3D5B2
:103CE0005006F1D5CA68204622F04002CA6084F826
:103CF000413000F01AF9F8BD897C000870B5040065
:103D000004D094F84100002510B106E0012070BDF8
:103D100084F84050204600F023F8242084F8410025
:103D20002068C16821F40051C160204604F03CF8CD
:103D30002068016921F4904101612068416921F006
:103D40002A0141612068C16841F40051C160656485
:103D5000202084F8410084F842006563002070BD93
:103D600010B586B0044614216846FCF775FA174969
:103D70002068884227D116480021026842F40022B8
:103D80000260006800F400200590114810380268B5
:103D900042F0010202600068022200F0010005907A
:103DA0000320CDE90210CDE9000208200490694605
:103DB0000848FDF763F9002201213420FDF7CAFA13
:103DC0003420FDF7B9FA06B010BD0000004C0040E9
:103DD00040380240000002402DE9F84F044690F8B8
:103DE00042009A4616460D46202802D00220BDE821
:103DF000F88FB5B1AEB100206064222184F8421082
:103E00002063FDF739FAA6858146E685A0684FF460
:103E100080582027404501D1206920B12E46002539
:103E200029E00120E3E7002625E04B46002220217F
:103E30002046CDF800A004F03DF818B184F8427097
:103E40000320D4E726B1A06840451AD038B108E075
:103E500020684068C0F3080025F8020B08E02069DC
:103E600078B12068406800F07F0000BF06F8010BC1
:103E7000E08D401EE085E08D0028D6D184F84270A8
:103E8000B5E720684068F1E770472DE9F84304463C
:103E900090F84100984616460D46202802D0022090
:103EA000BDE8F88385B17EB100206064212084F8EC
:103EB0004100FDF7E1F9A6848146E684A068202749
:103EC000B0F5805F02D003E00120E9E7206910B17E
:103ED0002E4600250EE000260CE08021204603F04F
:103EE000E9FFA8B9C6B116F8010B21684860E08C5B
:103EF000401EE084E08C4B464FF00002CDF800807D
:103F00000028EAD14FF04001204603F0D3FF40B132
:103F100084F841700320C3E735F8020BC0F30800B2
:103F2000E3E784F841700020BAE77047FEE700003D
:103F3000F0B500220E4B154614460A27B1FBF3F6E6
:103F400030368654B1FBF3F603FB1611B3FBF7F3DF
:103F5000521C861816F8016C302E00D135B16D1C3C
:103F6000641C0A2CEAD300218154F0BD0022F7E73B
:103F700000CA9A3BF0B500230A24302537261F4695
:103F800011E000BFB4EB107F02D905EB107C01E01B
:103F900006EB107C01F813C001EB430C00015B1C25
:103FA0008CF80170DBB29342ECD3F0BD2DE9F05FE9
:103FB000ADF5DE5D0024A54D8DF80841A4A0439524
:103FC00002F032FF0CF099F908B1ACA03BE1B4A0CB
:103FD00002F02AFF00200CF09FF908B1B6A032E1F0
:103FE000BCA002F021FF41F664366E44C3A2314604
:103FF000C34809F0EDFD08B1C2A074E0CBA002F007
:1040000013FF41F21017B2466F44E84644AE0DF17B
:10401000080935E09DF80000012831D12E214846DD
:10402000FCF753F960B3CAA1FCF72BF940BB0A2C8B
:1040300026D207EB04204946FCF73EF9C6A002F061
:10404000F3FEC6A002F0F0FE611C3046FFF770FFE1
:10405000304602F0E9FEC2A002F0E6FE484602F059
:10406000E3FEC0A002F0E0FE30460199FFF760FFDA
:10407000304602F0D9FEBEA002F0D6FE641CE4B2C7
:10408000424651469E4809F0FDFF0028C2DC5146D9
:104090009B4808F0D7FD2CB3B8A002F0C5FE21461E
:1040A0003046FFF745FF304602F0BEFEBBA002F0EF
:1040B000BBFE4FF0FF3830344346012242A9BE48D0
:1040C000FFF78AFE0028F7D19DF8080161280DD07E
:1040D00041280BD0312801D3A04209D9B7A002F062
:1040E000A3FEE9E7BAA002F09FFE64E0C1A0FAE7F0
:1040F000C0B23138C4B2C5A002F096FE07EB04246A
:10410000204602F091FE5CA002F08EFE224641F6AF
:1041100010346C440123214679480AF00DFE08B1A1
:10412000BFA0E0E7A246214675480BF011F804460F
:10413000C1A002F079FEB04621464046FFF7F8FEE6
:10414000304602F071FEBFA002F06EFEB4F5402FC3
:1041500001D9BFA029E0C9A002F066FEAB462846FF
:10416000FCF7A4FA08B1CAA01FE0CFA002F05CFEE1
:1041700000274FF480593AE0E31B4B4500D94B46EA
:10418000424651465E480AF022FF061E01DACDA0E3
:104190000BE02ED0F01CC11700EB9170821041464D
:1041A0004398FCF7B9FA68B1CBA002F03DFE514646
:1041B00053480AF0F5FB00200CF01EF90DF5DE5D0A
:1041C000BDE8F09F4398374430444390C8A002F0C4
:1041D0002BFE64207843B0FBF4F146464046FFF7DF
:1041E000A7FE304602F020FEC4A002F01DFEA7424A
:1041F000C2D3C3A002F018FE514641480AF0D0FBDA
:1042000000200CF0F9F8C8A002F00EFECF49286893
:1042100088420BD1CEA002F007FED5A002F004FE2A
:1042200005F1200002F000FE13A009E0DBF8000019
:10423000A0F10050B0F5403F01D2D2A000E0DEA0D6
:1042400002F0F2FDE7A002F0EFFDB7E7000004087E
:104250000D0A496E697469616C697A696E672053E9
:10426000504920466C61736820616E64204C69740B
:10427000746C6546532E2E2E0D0A000053504920B3
:10428000466C61736820696E697469616C697A61F2
:1042900074696F6E206661696C6564210D0A0000A7
:1042A0004D6F756E74696E67204C6974746C6546E9
:1042B000532E2E2E0D0A00004661696C6564207431
:1042C0006F206D6F756E74204C6974746C65465305
:1042D000210D0A005363616E6E696E67204C69742C
:1042E000746C65465320666F722062696E20666941
:1042F0006C65732E2E2E0D0A000000002F000000AA
:10430000440800204661696C656420746F206F70FA
:10431000656E204C6974746C6546532064697265DF
:1043200063746F7279210D0A000000000D0A466F58
:10433000756E642062696E2066696C657320696EB3
:10434000204C6974746C6546533A0D0A00000000F5
:104350002E62696E00000000202000005B0000005B
:104360005D200000202873697A653A200000000073
:10437000206279746573290D0A0000000D0A506CE3
:10438000656173652073656C656374206120626983
:104390006E2066696C652028312D000029206F721F
:1043A0002070726573732027612720746F2061620B
:1043B0006F72743A20000000B4030020496E7661E9
:1043C0006C696420696E707574210D0A000000002C
:1043D0004E6F2062696E2066696C657320666F752A
:1043E0006E6420696E204C6974746C654653210DAF
:1043F0000A0000000D0A4F7065726174696F6E20CB
:1044000061626F72746564210D0A00000D0A4F70BD
:10441000656E696E672066696C653A200000000071
:104420004661696C656420746F206F70656E2066EC
:10443000696C65210D0A000046696C652073697A14
:10444000653A20002062797465730D0A000000004F
:104450004572726F723A2046696C652073697A659D
:10446000206578636565647320466C6173682063BA
:1044700061706163697479210D0A0000457261738E
:10448000696E6720466C6173682E2E2E0D0A00003F
:10449000466C617368206572617365206661696C42
:1044A0006564210D0A00000057726974696E672007
:1044B00066696C6520746F20466C6173682E2E2EC1
:1044C0000D0A000046696C652072656164206572A2
:1044D000726F72210D0A0000466C6173682077725A
:1044E000697465206661696C6564210D0A000000CD
:1044F00050726F67726573733A200000250D0000DB
:104500000D0A46696C65207772697474656E207354
:1045100075636365737366756C6C7920746F204680
:104520006C617368210D0A00436865636B696E678F
:10453000206170706C69636174696F6E2076616C64
:1045400069646974792E2E2E0D0A0000561905270C
:1045500056616C696420552D426F6F7420686561E7
:1045600064657220666F756E64210D0A000000009C
:104570004170706C69636174696F6E206E616D6506
:104580003A2000004E6F20552D426F6F74206865F1
:10459000616465722C206275742076616C69642098
:1045A000737461636B20706F696E74657220666FDF
:1045B000756E64210D0A00005761726E696E673A6C
:1045C000204170706C69636174696F6E206D6179F0
:1045D000206E6F742062652076616C6964210D0A1B
:1045E000000000004C6974746C65465320746F20A1
:1045F000466C6173682075706461746520636F6DCB
:10460000706C65746564210D0A0000002DE9F041AD
:104610000546D0F8D40205EB8000D0F8C042002C4B
:104620001ED004F500410F4E087F38B9886928B1C3
:10463000607A18B93178284603F0F0FF0A4F28460F
:10464000397803F0EBFF607A022809D139782846DF
:1046500003F0E4FF31782846BDE8F04103F0DEBF07
:10466000BDE8F081ED000020EC0000202DE9F041D4
:104670000646D0F8D40206EB8000D0F8C042002CE9
:1046800060D004F5004568696863A869A8632E488E
:104690000178304603F0BFFE1F280BD12B49286953
:1046A000884207D1697F2068814203D8A87F08B17A
:1046B000102808D9697F20230522304601F090FA9E
:1046C000022060720AE048F21F002218304600F013
:1046D000C5FE0028207A08DA052804D03046BDE857
:1046E000F041FFF793BF012127E002282AD00128DB
:1046F00028D0032826D0E768F7B1D6F8D412304680
:1047000006EB810104F11002D1F8C052002D19D03E
:1047100005F500418B69BB4200D33B468C6BE41B23
:104720008C63002481F83C400421297208490978EF
:10473000BDE8F04103F091BF00213046BDE8F041F3
:1047400000F0E2B8BDE8F081ED000020555342438F
:10475000EC00002010B50446D0F8D40204EB800031
:10476000D0F8C002002818D0407A022809D00906E3
:1047700013D5012811D02046BDE81040012100F0DA
:10478000C3B806480178204603F048FF0448017882
:104790002046BDE8104003F041BF10BDEC000020F2
:1047A000ED00002010B50446D0F8D40204EB8000E0
:1047B000D0F8C022002A18D0107A022805D0032889
:1047C00001D0042811D100210AE048F21D00815CCB
:1047D000801C0244204600F041FE002805DA012139
:1047E0002046BDE8104000F08FB810BD10B504465B
:1047F000D0F8D40204EB8000D0F8C022002A18D0F0
:10480000107A88B1012814D148F21D00815C801C07
:104810000244204600F022FE00280ADA2046BDE8C5
:104820001040012100F070B82046BDE81040FFF7AD
:104830001DBF10BDD0F8D41200EB8100D0F8C0022B
:10484000002801D0002101727047000070B50546B4
:10485000D0F8D40205EB8000D0F8C042002C26D05E
:104860000020207204F50041607281F8610001F8B7
:10487000600F8870D5F8D40205EB8000D0F8C40230
:104880000168002088470A4E2846317803F0BAFDB7
:1048900008480178284603F0B5FD1F2348F21000B0
:1048A000221831782846BDE8704003F02CBE70BD58
:1048B000ED000020EC00002070B50546D0F8D402D1
:1048C00005EB8000D0F8C042002C17D000202072E9
:1048D000012060720A480178284603F0CAFC094E9C
:1048E0002846317803F0C5FC1F2348F21000221837
:1048F00031782846BDE8704003F005BE70BD000069
:10490000EC000020ED00002070B50546D0F8D40280
:1049100005EB8000D0F8C042002C1BD004F500420B
:104920000D48106382F83C100020207248F23000DD
:1049300022180A480D230178284603F08EFE1F2313
:1049400048F210002218064801782846BDE8704059
:1049500003F0D9BD70BD000055534253EC00002058
:10496000ED000020074910B5054808600846FCF72F
:104970002DF8002803D0BDE81040FBF720BE10BD85
:1049800000300240040000200D4808B5016841F4E1
:10499000800101600068002200F480000090022184
:1049A0003B20FCF7D7FC3B20FCF7C6FC0022022191
:1049B0004520FCF7CFFCBDE808404520FCF7BCBC17
:1049C0003038024010B504490448FBF7FAFD0249AB
:1049D000491E087010BD000031000020501301086E
:1049E000F0B587B014216846FBF736FC2448002553
:1049F000016841F004010160016801F004010591C2
:104A0000016841F080010160016801F080010591B9
:104A1000016841F001010160016801F001010591A7
:104A2000016841F002010160016801F00201059195
:104A3000016841F0080101600068124E00F00800B2
:104A40000590012210213046FCF710FC0E4F002289
:104A500004213846FCF70AFC102001248DE83100BF
:104A60000220039069463046FCF708FB04208DE8DD
:104A70003100694638460394FCF700FB07B0F0BDEF
:104A800030380240000002400004024010B586B0F9
:104A900014216846FBF7E0FB1B48002419490594E4
:104AA000C0E900147F218160FF21C0E90314446143
:104AB0008461FDF7A7FD08B1FBF781FD8DF800408B
:104AC0008DF801408DF802400394012269460E489A
:104AD0000494FDF74DFE08B1FBF771FD01208DF840
:104AE00014008DF815008DF8160002468DF8174059
:104AF00005A90548FDF7F0FD002801D0FBF75FFD93
:104B000006B010BD002800404801002006480549B5
:104B10000160002141608160C1600161416181618A
:104B200070470000002C014068010020104810B5BB
:104B30000E4901604FF482714160002102228160C0
:104B4000C0E90312012242615202C0E9062101625A
:104B5000416281620A21C162FEF7E6FB002803D0B0
:104B6000BDE81040FBF72BBD10BD00000030014038
:104B7000AC02002010B586B00024184800940194BF
:104B80000294039404941449059401605321C0E9EC
:104B9000011440F2CF71C0E903148021C0E905413E
:104BA000FEF7AAFD08B1FBF70AFD4FF48050009014
:104BB00069460A48FEF72CFE08B1FBF700FD049495
:104BC00004A906480594FEF74FFD002801D0FBF725
:104BD000F6FC06B010BD00000000014004030020F8
:104BE0000C4810B50A4901604FF4E13141600021E1
:104BF00081600C22C160C0E904128161C161FFF7CC
:104C00007DF8002803D0BDE81040FBF7D8BC10BDEC
:104C1000004C00404C03002010B500220F49104802
:104C200003F014FB08B1FBF7CAFC0E490C4803F073
:104C300097FE08B1FBF7C3FC0B49094803F0FEFDE2
:104C400008B1FBF7BCFC064803F00EFF002803D0B8
:104C5000BDE81040FBF7B3BC10BD000040000020D1
:104C6000240B0020B40000209000002008B5002094
:104C70008DF80000464802F0D7F8464802F0D4F814
:104C8000454802F0D1F8454802F0CEF8424802F01B
:104C9000CBF8434802F0C8F83D4802F0C5F841A0FF
:104CA00002F0C2F8414D4FF0FF36414CFBF716FDC4
:104CB0002060404802F0B8F83FA002F0B5F84EA0DE
:104CC00002F0B2F85CA002F0AFF86BA002F0ACF812
:104CD00079A002F0A9F888A002F0A6F8206808B12F
:104CE00095A000E0A4A002F09FF8B3A002F09CF809
:104CF000286840683346012269462C48FFF76CF863
:104D00009DF80000313807283FD2DFE800F00407A3
:104D10000A0D1016190001F055FFC7E702F04CFC10
:104D2000C4E7FFF743F9C1E702F006F8BEE7B2A017
:104D300002F07AF8FCF740FBB8E702F037F9B5E784
:104D40002068002812D00020FBF70AFD18B1B3A09C
:104D500002F06AF8AAE7BDA002F066F8C3A002F06C
:104D600063F8FCF717F9FCF773F99FE70120FBF7ED
:104D7000F7FC08B1C5A0EBE7CFA002F055F8BBA047
:104D800002F052F8FCF706F990E7D348E0E700009C
:104D9000C0C3030828C3030890C2030874C30308F0
:104DA000DCC203080D0A0D0A00000000B403002055
:104DB0001C000020B0C103082020446F776E6C6F88
:104DC000616420696D61676520746F207468652077
:104DD000696E7465726E616C20466C617368202D1B
:104DE0002D2D2D2D2D2D2D2D2D2D2D2D2D2D2D2DF3
:104DF00020310D0A0A0000002020446F776E6C6F8E
:104E0000616420696D6167652066726F6D2054462C
:104E100020746F2074686520696E7465726E616CB1
:104E200020466C617368202D2D2D2D2D2D2D2D2DBF
:104E300020320D0A0A0000002020446F776E6C6F4C
:104E4000616420696D6167652066726F6D204C46F4
:104E50005320746F2074686520696E7465726E618A
:104E60006C20466C617368202D2D2D2D2D2D2D2D40
:104E700020330D0A0A000000202055706C6F616419
:104E800020696D6167652066726F6D2074686520AA
:104E9000696E7465726E616C20466C617368202D5A
:104EA0002D2D2D2D2D2D2D2D2D2D2D2D2D2D2D2D32
:104EB00020340D0A0A0000002020457865637574CF
:104EC0006520746865206C6F616465642061707032
:104ED0006C69636174696F6E202D2D2D2D2D2D2D24
:104EE0002D2D2D2D2D2D2D2D2D2D2D2D2D2D2D2DF2
:104EF00020350D0A0A000000202053746F726520CF
:104F0000696D6167652066726F6D20544620746F0D
:104F1000205350492D466C617368204C4653202D18
:104F20002D2D2D2D2D2D2D2D2D2D2D2D2D2D2D2DB1
:104F300020360D0A0A000000202044697361626C6B
:104F400065207468652077726974652070726F746B
:104F5000656374696F6E202D2D2D2D2D2D2D2D2D1A
:104F60002D2D2D2D2D2D2D2D2D2D2D2D2D2D2D2D71
:104F700020360D0A0A0000002020456E61626C6533
:104F8000207468652077726974652070726F74652B
:104F90006374696F6E202D2D2D2D2D2D2D2D2D2D12
:104FA0002D2D2D2D2D2D2D2D2D2D2D2D2D2D2D2D31
:104FB00020370D0A0A0000003D3D3D3D3D3D3D3D91
:104FC0003D3D3D3D3D3D3D3D3D3D3D3D3D3D3D3D11
:104FD0003D3D3D3D3D3D3D3D3D3D3D3D3D3D3D3D01
:104FE0003D3D3D3D3D3D3D3D3D3D3D3D3D3D3D3DF1
:104FF0003D3D3D3D0D0A0A0053746172742070728C
:105000006F6772616D20657865637574696F6E2E68
:105010002E2E2E2E2E0D0A0A000000004572726FF1
:10502000723A20466C6173682077726974652075E6
:105030006E2D70726F74656374696F6E206661693E
:105040006C65642E2E2E0D0A0000000057726974E4
:10505000652050726F74656374696F6E2064697344
:1050600061626C65642E2E2E0D0A000053797374F4
:10507000656D2077696C6C206E6F77207265737434
:105080006172742E2E2E0D0A000000004572726FA0
:10509000723A20466C61736820777269746520707B
:1050A000726F74656374696F6E206661696C6564A4
:1050B0002E2E2E0D0A000000577269746520507262
:1050C0006F74656374696F6E20656E61626C656490
:1050D0002E2E2E0D0A000000F4C10308FEE7FEE7A5
:1050E0000148FCF7E1BA0000889000202DE9F0416A
:1050F00003680D4604461E6C03EB4511D1F8080BFE
:1051000094F806E04FF400474FF0200C04F29C4264
:10511000BEF1010F09D0DFF898E0764539D10204DD
:1051200032D500BFC1F8087B3FE0224B5FEA007E2A
:1051300004D59E4239D90004F4D436E05FEA806E8B
:1051400002D5C1F808CB30E010F0280F2DD19E42D7
:1051500001D90004E6D405EBC50004EB8000D1F8CA
:10516000101BD0F87432C1F31201591AC0F868123A
:1051700000F51570ADB903691BB1C2681144C16077
:105180000FE0012120680AE080060AD5C1F808CBAB
:1051900007E035B9D4F8640218B90021184603F0C5
:1051A000E5FFE9B22046FCF74DF90020BDE8F081AB
:1051B0000A31544F0A30544F2DE9F84F0E4601EB97
:1051C000C60100EB810481460568D4E90910143456
:1051D000884202D90120BDE8F88F081AA1688142EF
:1051E00000D20846C01C870805EB46181BE000BF2C
:1051F000A0EB010AA068504500D282460AF10300E4
:10520000870899F8060000901FFA8AF3F2B2284640
:10521000E16804F0E9FAE16801EB0A00E060616925
:1052200001EB0A006061D8F8180980B2B84205D3D2
:10523000D4E90401814201D20028D9D1D4E9040182
:10524000884208D806F00F0101208840D5F83418AC
:105250008143C5F834180020BDE77047002102E003
:105260000A38C0B2491C0A28FAD2090740EA11607C
:10527000704700002DE9F041044600680025C16830
:10528000490618D4C16841F08001C160FBF7F4FF02
:1052900006464FF47A78042707E000BFFBF7ECFFDF
:1052A000801B404501D9677701252068C06840060A
:1052B00001D4002DF2D02846BDE8F08170B5044637
:1052C00000680025C16821F08001C1602068806805
:1052D000800606D42046FDF7ABFA10B104206077B3
:1052E0000125284670BD00002DE9F84300240F4633
:1052F0000646904613460C60012269462848FEF790
:105300006BFD050020D19DF80000182820D006DC98
:1053100001280BD002280BD0042804D104E0412836
:1053200027D0612825D0012530700DE0802401E0D0
:105330004FF480643070221D4346B11C1848FEF7BC
:105340004BFD050017D0002428463C60BDE8F883DB
:105350004346012269461248FEF73EFD18B99DF802
:105360000000182803D001259DF80000DCE7022486
:10537000DAE70225D8E7F178B07881F0FF018842BA
:105380000AD130190179407900EB01282146301DFE
:10539000FBF778F84045D7D000240125D4E700007A
:1053A000B403002070B5D0F8D44248F2640600EB94
:1053B0008404D4F8C04204EB01152E444FF0FF35AD
:1053C0003CB11A4473689A4205D92123052200F0A2
:1053D00007FC284670BD002070BD00002DE9F0419B
:1053E0000446D0F8D402134604EB80064FF0FF3594
:1053F000D6F8C00280B100F5004297697FB15F78AE
:10540000FF0715D0997869B180290ED0517F2423E8
:105410000522204600F0E4FB2846BDE8F081517FDC
:105420002023F5E706220B490FE008220A490CE089
:10543000D6F8C42201EBC1011B79D26902EB8101CC
:105440000A79521D934200D81A4600F028FC002029
:10545000E3E700001A010020200100202DE9F041BF
:105460001646D0F8D4224FF0FF3500EB8202D2F876
:10547000C082B8F1000F53D03378794F0024252B28
:1054800076D011DC1B2B32D007DC0BB3032B24D0DE
:10549000122B27D01A2B19D15DE01C2B69D01E2BA3
:1054A0004AD0232B12D190E09E2B6ED008DC282B03
:1054B0006CD02A2B6BD02F2B6AD05A2B06D16AE0E6
:1054C000A02B74D0A82B73D0AA2B72D0202324E059
:1054D0003246BDE8F04100F0B2BB3246BDE8F041D3
:1054E00000F03ABB3246BDE8F041FFF777BF08F560
:1054F000004292F86230012B04D1337903F00303A8
:10550000022B7DD0307900F0030101290DD0022952
:1055100007D0C043800708D009E0052200F060FBF7
:1055200089E0022082F8620001E082F862402046B1
:10553000C8F80C40BDE8F081307938B148F262001B
:10554000012100F80810C8F80C4022E048F262007F
:1055500000F80840F7E70846D2F8C4120425C968E5
:10556000884738B13F48817841F08001817005E07B
:1055700030E067E0B87820F08000B8703079042817
:1055800000D805462A4637491DE028E02CE035E0E2
:1055900040E02046CEE70846D2F8C4120825C96884
:1055A00088470028F87805D040F0800004E044E007
:1055B0001FE02AE020F08000F870307A082800D838
:1055C000054627492A46404646E03246BDE8F041B6
:1055D00000F050BA3246BDE8F04100F0A8B93246BA
:1055E000BDE8F04100F0E8B93246BDE8F04100F016
:1055F000E9B83246BDE8F04100F03CB9324600E07F
:1056000010E0BDE8F04100F05BBB3246BDE8F04180
:1056100000F0CCBB08EB011248F264031A44737823
:105620009B0701D5242378E7D3689268FFF7BAFE79
:105630000028BFF671AF28467CE73246BDE8F0414E
:1056400000F05CBAB6F8031040464ABA002AA0D06F
:10565000082A00D90822044900F021FB99E700003C
:105660002C01002028010020340100202DE9F04702
:105670000746D0F8D402894607EB800048F264025E
:10568000D0F8C0624FF0FF3806EB09118C18E6B174
:105690002188E5684FF400424D43954200D31546FA
:1056A000B5FBF1F1D0F8C4028BB206F11001D0F8CD
:1056B00010C0A2688A464846E047002808DA11234D
:1056C00004224946384600F08BFA4046BDE8F08790
:1056D0000E482B4652460178384602F0BEFF20881D
:1056E000A168B5FBF0F00844A0602088E168B5FB34
:1056F000F0F0081AE06006F50040816B491B8163F9
:10570000E06808B9032030720020DFE7EC000020D9
:105710002DE9F05F8A46D0F8D412804600EB810074
:1057200048F26402D0F8C0624FF0FF3906EB0A116C
:105730008C18E6B12188E7684FF400454F43AF422B
:1057400000D32F46B7FBF1F1D0F8C4028BB206F1BB
:105750001001D0F814C0A2688B465046E0470028DC
:1057600008DA032304225146404600F039FA48463D
:10577000BDE8F09F2088A168B7FBF0F00844A06066
:105780002088E168B7FBF0F0081A06F50046E060F3
:10579000B06BC01BB063E36863B120884343AB4286
:1057A00000D32B4606485A460178404602F0ABFE2D
:1057B0000020DDE700214046FFF7A6F8F8E70000EB
:1057C000ED0000202DE9F0478946D0F8D41280463C
:1057D00000EB81001746D0F8C04248F2640204EBA7
:1057E00009118E184FF0FF3A5CB3217AB1BB04F572
:1057F0000045297F09062DD595F86210022905D0AC
:10580000D0F8C40281684846884730B13A23022262
:105810004946404600F0E4F913E07888397940BA07
:10582000000440EA012079790843B060B7F8070026
:10583000494643BAF3604046B268FFF7B3FD00281B
:1058400002DA5046BDE8F0873188F0684843A9691C
:10585000884204D02023697F0522DAE701E0022094
:1058600020724FF40040E06049464046BDE8F047F2
:10587000FFF7FCBE2DE9F0478946D0F8D4128046E8
:1058800000EB81001546D0F8C04248F2640204EBF8
:1058900009118F184FF0FF3A84B3217A89BB04F5C0
:1058A0000046317F090633D596F86210022905D0EB
:1058B000D0F8C40281684846884730B13A230222B2
:1058C0004946404600F08CF918E06888297940BACA
:1058D000000440EA012069790843B860E888297A21
:1058E00040BA000440EA0123687A49460343FB605A
:1058F0004046BA68FFF756FD002803DA5046BDE877
:10590000F0870BE03988F8684843B169884203D0D2
:105910002023717F0522D4E7022020724FF400403B
:10592000E06049464046BDE8F047FFF79FBE2DE9DD
:10593000F0410646D0F8D402884606EB800048F2D3
:105940006402D0F8C0424FF0FF3704EB08118D1805
:1059500044B1D0F8C4022A46291D436840469847FE
:1059600018BB02E03846BDE8F08148F26200005DF5
:1059700002281AD06868401E000E20746868401E15
:10598000000C6074A888401E000AA0742879401E8C
:10599000E0740020207560752888000AA0752878BA
:1059A000E0750820E0600020DDE73A23022241464E
:1059B000304600F015F9D5E72DE9F0470746D0F855
:1059C000D402894607EB80001646D0F8C04248F260
:1059D000640104EB091255184FF0FF3844B1D0F8B8
:1059E000C4022A46291D436848469847A0B902E0E8
:1059F0004046BDE8F08748F26200005D02280BD007
:105A00007089317B40BA000440EA0120717B084371
:105A1000E0600020014609E03A2302224946384668
:105A200000F0DEF8E4E72218401C1174E2688242BC
:105A3000F9D86868401E000E20756868401E000C8A
:105A40006075A888401E000AA0752879401EE07580
:105A5000217661762888000AA0762878E076708919
:105A6000317B40BA000440EA0120717B0843E060CA
:105A70000020BEE72DE9FC410546D0F8D4020F46D0
:105A800005EB80004FF0FF36D0F8C04244B1D0F8AB
:105A9000C4026A4601A943683846984738BB02E009
:105AA0003046BDE8FC8148F26200005D02281ED04D
:105AB000002001462218401C80B211740C28F9D332
:105AC0000820E0740198401E020E2275020C6275D7
:105AD000020AA275E075022020766176BDF800000A
