:020000040800F2
:10000000480D0020A10100089F3300080D2D0008B5
:100010009D330008790300083748000800000000FD
:100020000000000000000000000000004140000847
:10003000B504000800000000A13300087543000863
:10004000BB010008BB010008BB010008BB010008A0
:10005000BB010008BB010008BB010008BB01000890
:10006000BB010008BB010008BB010008BB01000880
:10007000BB010008BB010008BB010008BB01000870
:10008000BB010008BB010008BB010008BB01000860
:10009000BB010008BB010008BB010008BB01000850
:1000A000BB01000825440008BB010008BB01000893
:1000B000BB010008BB010008BB010008BB01000830
:1000C000BB010008BB010008BB010008BB01000820
:1000D000BB010008BB010008BB010008BB01000810
:1000E000BB010008BB010008BB010008BB01000800
:1000F000BB010008BB010008BB010008BB010008F0
:10010000BB010008BB010008BB010008BB010008DF
:100110006D450008BB010008BB010008BB010008D9
:10012000BB010008BB010008BB010008F90300087F
:10013000BB010008BB010008BB010008BB010008AF
:10014000BB010008BB010008BB010008BB0100089F
:10015000BB01000805040008BB010008BB01000842
:10016000BB010008BB010008BB010008BB0100087F
:10017000BB010008BB010008BB0100080000000033
:10018000BB010008BB010008DFF810D000F08EF8BA
:10019000004800479D5A0008AFF30080480D00203A
:1001A0000648804706480047FEE7FEE7FEE7FEE711
:1001B000FEE7FEE7FEE7FEE7FEE7FEE71544000880
:1001C000890100082DE9F05F0546002092469B4614
:1001D00088460646814640241BE02846414647465D
:1001E000224600F053F853465A46C01A914110D3A4
:1001F00011461846224600F03AF82D1A67EB01081E
:100200004F4622460120002100F031F817EB00098B
:100210004E41201EA4F10104DFDC484631462A4647
:100220004346BDE8F09F40EA01039B0703D009E085
:1002300008C9121F08C0042AFAD203E011F8013BD2
:1002400000F8013B521EF9D27047D2B201E000F82B
:10025000012B491EFBD270470022F6E710B513466A
:100260000A4604461946FFF7F0FF204610BD202A33
:1002700004DB203A00FA02F1002070479140C2F1FD
:10028000200320FA03F3194390407047202A04DB2F
:10029000203A21FA02F00021704721FA02F3D040FF
:1002A000C2F120029140084319467047064C074DA1
:1002B00006E0E06840F0010394E807009847103436
:1002C000AC42F6D3FFF764FFCC600008EC60000896
:1002D0000146014801F064BE6400002010B50448E6
:1002E00001F070FE042801D0012010BD002010BDD7
:1002F0006400002010B500F015F8012801D001209D
:1003000010BD074801F074FE040006D14FF40061EF
:10031000034801F0EBFC00B10124204610BD0000B1
:100320006400002008B501208DF800009DF8000051
:1003300008BD0000134610B50A46014600240348D4
:1003400001F046FF00B10124204610BD64000020EA
:10035000014901208860704724000020134610B531
:100360000A4601460024034801F0C8FF00B10124F9
:10037000204610BD64000020FEE7000030B50446B2
:100380000020651804E000BF14F8011B04F043FAD4
:10039000AC42F9D3002104F03EFABDE83040002120
:1003A00004F039BA70B5262211491248FFF73BFF15
:1003B0000F4CE08C0F4DE884A06AA862A08DA88540
:1003C000E08DE885206B2863606B6863092204F187
:1003D000380105F13800FFF726FF94F8410085F851
:1003E000410094F8420085F84200606C686470BD7A
:1003F000F001002058020020014800F0E9BA000096
:10040000E8000020014800F0E3BA000048010020A5
:1004100001681823CAB2103AB2FBF3F2054B6FF32E
:100420000901032A9B5CC36500D9091D8165084643
:1004300070470000C65E000810B5014600208B69B9
:100440008A6A4FF0C07453B1B3F5005F15D072B132
:10045000012A0CD0022A0AD0032A09D104E01AB1D9
:10046000012A06D0022A03D1C96AC90100D5012098
:1004700010BDC96AA142FAD010BD002AF7D0012AE6
:10048000F2D0022AF3D0032AF3D010BD30B50468AD
:10049000256825F480252560046863608368402B07
:1004A000036803D099600068C26030BD9A6000683C
:1004B000C16030BD704772B6FEE70022AFF3008026
:1004C00030B50E4B054601205C7A002C14D1587AC9
:1004D0001C54587A03EB800045605D7A03F10800F4
:1004E0002A54587A421C5A72303008703A204870A8
:1004F0002F208870CC70002030BD00003C09002007
:10050000002229B101291AD002291BD04FF44072D0
:100510000E490B6823F440730B600B6813430B60A8
:100520000A6822F078020A600A68022303EBC0001E
:1005300002430A60086840F48030086070474FF456
:100540008072E5E74FF40072E2E70000103C0240E1
:100550001348016889050FD5016821F40071016015
:10056000016841F400610160016821F400610160EB
:10057000016841F400710160016849050FD5016807
:1005800021F480610160016841F4805101600168DB
:1005900021F480510160016841F48061016070477D
:1005A000003C024000B587B000F02AF8094800F08E
:1005B0002DF902900A20039000210220009104905E
:1005C00005A9684600F088FB002800D0012007B08C
:1005D00000BD00000000020810B588B040F6FF74AE
:1005E00000F0B4FC684600F0C3FB00F047FC029842
:1005F000844302D0022008B010BD0020FBE70000B9
:1006000010B500F0A3FC0249F320086010BD000003
:100610000C3C02402DE9F041164688460546002470
:100620000D4F13E058F8242000232946022000F043
:100630004FFC10B10320BDE8F08158F82400296870
:10064000814201D00220F6E7641C2D1DB44201D284
:10065000BD42E7D90020EEE7FBFF0F0830B58FB0B1
:10066000044640F6FF7507A800F082FB0120CDE9A3
:100670000004AA200490099C9DF834008DF818000D
:100680002C4300F063FC00F00FFC6846029400F07D
:100690008FFB0FB030BD000008490A6822F4407299
:1006A0000A600A6842F004020A600A684FF4803364
:1006B00043EA002002430A6070470000103C0240F9
:1006C000064A136823F440731360136813601368B9
:1006D00043F001031360017070470000103C0240BA
:1006E000094910B50C6824F440740C600C6844F49B
:1006F00040740C600C6844F001040C600260BFF3AD
:100700006F8F436010BD0000103C0240074A136821
:1007100023F440731360136843F480731360136809
:1007200043F001031360018070470000103C024059
:10073000074A136823F440731360136843F400738B
:100740001360136843F001031360016070470000F9
:10075000103C024017490868C206174805D5C2690F
:1007600042F01002C26110220A600A68920605D5A2
:10077000C26942F00802C26120220A600A68520679
:1007800005D5C26942F00402C26140220A600A68CB
:10079000120605D5C26942F00202C26180220A60D7
:1007A0000A68920705D5C26942F02002C2610220A0
:1007B000086070470C3C02403802002070B51149B7
:1007C00004460020C86100F0D5FC06460E4D09E045
:1007D000601C07D024B100F0CDFC801BA04201D9E1
:1007E000032070BD2868C003F2D42868C00701D078
:1007F00001202860286810F0F200F2D0FFF7AAFF6D
:10080000012070BD380200200C3C02400021A0F104
:1008100000634FF4804293423FD321490144914207
:1008200001D2012139E01F490144914201D2022144
:1008300033E01D490144914201D203212DE01B49BF
:100840000144B1F5803F01D2042126E01849421845
:100850004FF400318A4201D205211EE0154A0244BC
:100860008A4201D2062118E0134A02448A4201D288
:10087000072112E0114A02448A4201D208210CE009
:100880000F4A02448A4201D2092106E00D4A10446F
:10089000884201D20A2100E00B210846704700007F
:1008A00000C0FFF70080FFF70040FFF70000FFF7F0
:1008B0000000FEF70000FCF70000FAF70000F8F770
:1008C0000000F6F70000F4F710B5040002D06079DC
:1008D00010B106E0012010BD00202071204600F07C
:1008E00005F801206071002010BD000008B5006807
:1008F0000649884208D10648016841F480510160E8
:10090000006800F48050009008BD000000300240F4
:10091000303802402DE9F0410446876D00F02AFC92
:10092000064694F835000025022806D08020606530
:1009300084F834500120BDE8F0812068016821F07E
:10094000160101602068416921F080014161206C3D
:1009500008B9A06C20B12068016821F0080101608D
:100960002068016821F0010101600CE000F002FC48
:10097000801B052807D920206065032084F83500F6
:1009800084F83450D7E720680068C007EED194F8A7
:100990005C103F208840B860012084F8350084F85E
:1009A00034500020C7E790F83510022903D0802189
:1009B000416501207047052180F835100068016805
:1009C00021F00101016000207047406D7047000078
:1009D0002DE9F84304464FF00009CDF80090634834
:1009E0004FF41651A56D0068B0FBF1F72E6894F82E
:1009F0005C10082000FA01F131420FD021680A682A
:100A000052070BD50A6822F004020A6094F85C10C1
:100A10008840A860606D40F00100606594F85C104B
:100A20004FF0010808FA01F0304208D02168496906
:100A3000090604D5A860606D40F00200606594F876
:100A40005C1004208840304208D02168096889077A
:100A500004D5A860606D40F00400606594F85C10F7
:100A600010208840304218D021680968090714D541
:100A7000A86020680168490304D50068000308D510
:100A8000A16C07E00168C90503D4016821F00801E1
:100A90000160216C09B12046884794F85C10202041
:100AA0008840304231D021680968C9062DD5A86038
:100AB00094F8350005282068016806D0490347D519
:100AC000006800031DD4616C1CE021F01601016078
:100AD0002068416921F080014161206C08B9A06C57
:100AE00020B12068016821F00801016094F85C10D1
:100AF0003F208840A86084F8358084F83490216DC8
:100B00001FE0E16B09B120468847606D00282BD0BB
:100B1000606DC00714D0052084F835002068016896
:100B200021F0010101600098401C0090B84203D8F8
:100B300020680068C007F6D184F8358084F83490C6
:100B4000E16C002910D001B02046BDE8F043084711
:100B50000168C905D5D4016821F01001016084F84D
:100B6000358084F83490CCE7BDE8F8831800002085
:100B70002DE9F041044600F0FDFA06465CB1022082
:100B800084F83500002584F834502068016821F08D
:100B9000010101600DE00120BDE8F08100F0EAFAFA
:100BA000801B052805D920206065032084F83500C6
:100BB000F2E720680068C007F0D122681168204879
:100BC0000140D4E901031843D4E903363343184301
:100BD00063691843A3691843E3691843236A1843F8
:100BE0000843616A042903D1D4E90B13194308436C
:100BF000106020684069666A20F0070130460E43A5
:100C0000012704280CD1A06A0643E06A40B12046BF
:100C1000FFF712FC20B14020606584F83570BAE718
:100C2000206846612046FFF7F3FB94F85C203F21E3
:100C300091408160656584F835700020ACE7000064
:100C40003F8010F02DE9F0410446866D90F83400A5
:100C5000002501280DD0012084F8340094F8357067
:100C60000020012F07D084F8340002252846BDE873
:100C7000F0810220FBE7022784F83570606520468A
:100C8000FFF704FC94F85C103F208840B0602068B7
:100C9000016841F016010160206C20B120680168F4
:100CA00041F0080101602068016841F00101016024
:100CB000DCE7000070B5044600F05CFA0546601CF5
:100CC00002D004480078044400F054FA401BA042CB
:100CD000FAD370BD0C0000202DE9F04704462248ED
:100CE0000F46017E01290AD00121804601764CF28F
:100CF00050394846FFF762FD020003D02FE0022082
:100D0000BDE8F0874FF0FF3038602068174D0128AC
:100D100001D0A6681CE0207C6168FFF7BDFC484656
:100D2000FFF74CFD0246286820F00400286014E01C
:100D3000217C3046FFF7E4FB4846FFF73FFD020009
:100D4000286820F07A00286001D03E6005E0761C1B
:100D5000D4E902100844B042EAD8FFF7F9FB0021B9
:100D600088F818101046CBE738020020103C0240EB
:100D70000F2101600D49098881600C4AAA21521E89
:100D80001378CC2B0FD01278AA2A00D055210161FC
:100D90000649891E0A6802F0E0020276097801F02D
:100DA0000C0141617047CC21F1E70000163C024084
:100DB0002DE9F0472E49044601200A7E012A11D070
:100DC000012288460A7621784CF2503AC90715D09C
:100DD0006068284D0128A668504606D0FFF7EEFC53
:100DE00048B10BE00220BDE8F087FFF7E7FC28B927
:100DF0002988B14301E02988314329802178890776
:100E000007D5257C5046FFF7D9FC10B91949491E72
:100E10000D702178DFF86090490713D5207E00F02F
:100E2000200700F0400500F080065046FFF7C6FCA2
:100E300040B999F8002002F01F02154335433D43A5
:100E400089F8005021784FF0000209070CD5207D69
:100E500099F8003023F00C0389F8003099F800303D
:100E6000034389F80030104688F81820BBE70000DB
:100E700038020020163C0240143C0240034801683E
:100E800041F000410160002070470000103C02402A
:100E90000448017841F0020101704CF25030FFF734
:100EA0008DBC0000143C024006480068C00707D013
:100EB000044805490C38016004490160002070476E
:100EC00001207047143C02403B2A19087F6E5D4C9C
:100ED0002DE9F0471B4E05461446307E1F468946D5
:100EE000012808D0012030764CF250384046FFF7F8
:100EF00065FC18B114E00220BDE8F0879DB1012D1A
:100F000016D0022D19D022463B464846FFF7E8FB93
:100F10004046FFF753FC0C490A6822F001020A60C0
:100F200000213176E8E7E1B24846FFF7C9FBEFE779
:100F3000A1B24846FFF7EAFBEAE721464846FFF739
:100F4000F7FBE5E738020020103C0240074900208B
:100F50000A68002A09DA054A054B0C3A1360054B6A
:100F600013600968002900DA01207047103C024034
:100F700023016745AB89EFCD2DE9F84FDFF8BCA120
:100F80000022012503264FF00F090AF1040BAAF1F4
:100F9000040E00BF0B6805FA02F42340A34270D18F
:100FA0000F7907F00307012F01D0022F16D18768B0
:100FB0004FEA420806FA08FC27EA0C07D1F80CC0F1
:100FC0000CFA08FC4CEA070CC0F808C04768A743B5
:100FD0000C79C4F3001494403C4344600C79E4431E
:100FE000A4070AD0C4684FEA420C06FA0CF7BC43C7
:100FF0008F6807FA0CF72743C7600C7904F00304E5
:10100000022C12D1D40800EB840CDCF820405707E6
:10101000FF0E09FA07F824EA0804D1F8108008FA4C
:1010200007F848EA0408CCF8208004684FEA420C2C
:1010300006FA0CF7BC430F7907F0030707FA0CF721
:10104000274307604C6814F4403F70D03C4C27683D
:1010500047F480472760246822F0030704F48044A3
:101060000094384C07EB040CDCF8084897074FEA6B
:10107000177809FA08F7BC43334FB84202D100276A
:1010800024E054E0314FB84201D101271EE0304F37
:10109000B84201D1022719E02E4FB84201D10327EF
:1010A00014E02D4FB84201D104270FE02B4FB84276
:1010B00001D105270AE02A4FB84201D1062705E0F1
:1010C000284FB84201D1072700E0082707FA08F7A0
:1010D0002743CCF80878DAF800405746D1F804C026
:1010E0009C435FEACC2C00D51C433C60DBF80040FD
:1010F0005F46D1F804C09C435FEA8C2C00D51C43AA
:101100003C60DEF800407746D1F804C09C435FEABB
:101110008C3C00D51C433C60084F083F3C68D1F82C
:1011200004C09C435FEACC3C00D51C433C60521C8D
:10113000102AFFF42FAFBDE8F88F0000083C0140F3
:1011400044380240003001400000024000040240E8
:1011500000080240000C024000100240001402404F
:1011600000180240001C02400AB181617047090466
:10117000FBE7000001488068704700000C00002079
:101180000248816802781144816070470C00002099
:101190000B4810B5016841F400710160016841F429
:1011A00080610160016841F480710160032000F0FA
:1011B0006FF80F2000F006F800F024F8002010BDB2
:1011C000003C024070B50D4D04464FF47A7128780A
:1011D000B1FBF0F00A490968B1FBF0F001F01EF92B
:1011E00048B9102C07D200222146501E00F030F8DA
:1011F00000206C6070BD012070BD00000C0000205C
:10120000180000200A4808B5016841F480410160D7
:10121000006800F4804000900548001F016841F01C
:1012200080510160006800F08050009008BD00000F
:1012300044380240002809DB00F01F0201219140E0
:101240004009800000F1E020C0F800117047000064
:10125000F0B40E4B1B680C46C3F30223C3F1070521
:10126000042D00D90425191D072901D2002300E00F
:10127000DB1E012606FA05F1491E214099409E40D9
:10128000761E16403143F0BC03F014BD0CED00E0B7
:10129000064900F0070208684FF6FF03184040EACD
:1012A0000220034A10430860704700000CED00E084
:1012B0000000FA05BFF34F8F05480168054A01F4A5
:1012C000E06111430160BFF34F8F00BFFDE70000F5
:1012D0000CED00E00400FA052DE9F843054600682E
:1012E0004FF00109C1074FF0000601D1400727D593
:1012F000DFF80C81C8F86860FFF73CFF0746414CF7
:1013000005E000BFFFF736FFC01B022857D8206852
:101310000001F7D468688101287A41EA00703949F0
:1013200084310860C8F86890FFF724FF074604E09E
:10133000FFF720FFC01B022841D820680001F7D525
:101340002878800752D52F484030016841F08051FD
:10135000016000682C4C00F080500090206840F440
:1013600080702060FFF706FF074604E0FFF702FFEA
:10137000C01B022823D82068C005F7D5214C703443
:10138000206810F4407020D0A98901F44071814296
:101390001BD020681D4920F44070C1F800900E60F9
:1013A00020602068C00710D0FFF7E4FE064641F237
:1013B000883707E0FFF7DEFE801BB84202D9032022
:1013C000BDE8F88320688007F4D5E9680D48C1F3CB
:1013D00001220830032A0BD0016821F4F8110160C2
:1013E0002068A989C1F30B01084320600020E7E7CA
:1013F0000268074B22F4F81219400A430260EFE733
:10140000000047420038024000700040400E474252
:10141000FFFCFF0F2DE9F0470E46050065D0DFF811
:101420001481D8F80000F7B200F00700B04207D2EC
:1014300088F80070D8F8000000F00700B04254D1DE
:1014400028683D4C810712D5400703D5206840F439
:10145000E05020602878000703D5206840F4604001
:1014600020602068A96820F0F000084320602878F8
:10147000C0072DD0304968680839012812D00228E9
:1014800013D0032811D00968890700292DDA2168B3
:1014900021F0030101432160FFF76CFE814641F218
:1014A000883A0EE009688903EFE709688901ECE7EB
:1014B000FFF760FEA0EB0901514502D90320BDE80A
:1014C000F0872068696800F00C00B0EB810FEFD165
:1014D000D8F80010404601F00701B14207D9077063
:1014E000006800F00700B04201D00120E7E728784B
:1014F000400705D52068E96820F4E05008432060E3
:101500002878000706D52068296920F4604040EA61
:10151000C100206000F0D2F82168084AC1F303112D
:10152000515CC8400649086006480068FFF74AFE5B
:101530000020C4E7003C024008380240CE5E0008AC
:1015400018000020100000202DE9F041FFF712FEE6
:10155000444C0546206840F00100206005E000BFD3
:10156000FFF708FE401B022847D820688007F7D500
:10157000206840F080002060FFF7FCFD0546394EF2
:1015800000200836306041F2883704E0FFF7F2FDB2
:10159000401BB84231D8306810F00C0FF6D1FFF77D
:1015A000E9FD0546206820F45020206005E000BFDA
:1015B000FFF7E0FD401B64281FD820688003F7D4A4
:1015C000FFF7D8FD0546206820F08070206004E019
:1015D000FFF7D0FD401B02280FD820688001F7D408
:1015E000FFF7C8FD0546206820F08060206007E016
:1015F000FFF7C0FD401B022802D90320BDE8F0819F
:1016000020680001F4D417491748091D08601549DE
:1016100016488431086013480C30016821F4F851F1
:101620000160016821F400510160016841F41F016B
:101630000160016841F4001101600A4874300168DA
:1016400021F001010160016841F0807101600949E8
:101650000748086008480068FFF7B4FD0028CDD0AF
:101660000120CBE700380240103000040030002099
:101670000024F40018000020100000200448054950
:1016800000680968044AC1F38221515CC840704770
:101690001800002008380240DE5E000804480549B2
:1016A00000680968044AC1F34231515CC840704780
:1016B0001800002008380240DE5E0008154810B50A
:1016C000006810F00C02144813D04110042A0FD007
:1016D000082A0ED10F4C241F2268236802F03F0213
:1016E0005B0207D52068C0F38810A0FB010106E06B
:1016F000084610BD2168C1F38811A1FB0001002339
:10170000FEF760FD2168C1F30141491C4900B0FBAF
:10171000F1F010BD083802400024F4002DE9F84F24
:1017200004006ED02078DFF84C93C007A9F10405BF
:101730004AD009F104000168C1F38101012908D0F0
:101740000068C0F3810002280AD1D9F800004002E5
:1017500006D52868800337D560680028E1D033E0DB
:101760006068B0F5803F10D0B0F5A02F286810D089
:1017700020F480302860286820F480202860606889
:10178000A8B1FFF7F7FC06460DE0286840F480306A
:10179000F4E740F480202860F7E700BFFFF7EAFC99
:1017A000801B642873D828688003F7D50CE0FFF706
:1017B000E1FC064605E000BFFFF7DCFC801B642867
:1017C000F0D828688003F7D42078DFF8AC8280074F
:1017D0004FF0000A3ED5A748001D016811F00C0F1C
:1017E00008D00068C0F3810002280BD1D9F80000AE
:1017F000400207D42868800716D5E068012800D188
:1018000012E033E1E068B8B10120C8F80000FFF74A
:10181000B1FC064605E000BFFFF7ACFC801B0228C8
:10182000C0D828688007F7D52868216920F0F8001B
:1018300040EAC10028600DE0C8F800A0FFF79AFC5C
:10184000064604E0FFF796FC801B02281FD8286894
:101850008007F7D42078000722D5864F8748616932
:10186000703771B101210160FFF784FC064604E086
:10187000FFF780FC801B022809D838688007F7D55D
:101880000EE0C0F800A0FFF775FC064605E082E018
:10189000FFF770FC801B02287DD838688007F7D4DA
:1018A0002078400768D5DFF8CCB100270BF13C0B5E
:1018B000DBF80000C0000BD4DBF8001041F08051D1
:1018C000CBF80010DBF80000012700F080500090FA
:1018D0006B4E3068C00510D4306840F480703060C2
:1018E000FFF748FC009005E0FFF744FC0099401A20
:1018F000022850D83068C005F6D55E4EA0686C3618
:1019000001280FD00528306810D020F00100306089
:10191000306820F004003060A068B8B1FFF72AFCFE
:1019200000900FE0306840F00100F4E740F0040060
:101930003060F7E7FFF71EFC0099411A41F288304A
:10194000814266D830688007F4D50EE0FFF712FCBC
:10195000009007E0FFF70EFC0099411A41F2883031
:10196000814256D830688007F4D42FB1DBF80010DC
:1019700021F08051CBF80010A069C8B33D49091D82
:101980000968C1F3810102294AD00228504607D0D4
:10199000C8F8600000E03CE0FFF7ECFB04463BE0E9
:1019A0004746C8F86000FFF7E5FB064605E000BFC4
:1019B000FFF7E0FB801B02282BD828688001F7D4B2
:1019C000D4E907010843A16A2E4A490802EB014104
:1019D000626A41EA8211084394F82C1040EA0161DE
:1019E000C9F8001001203866FFF7C4FB044606E082
:1019F0003EE000BFFFF7BEFB001B022809D82868A5
:101A00008001F7D534E000BFFFF7B4FB001B0228CC
:101A100002D90320BDE8F88F28688001F4D427E0BC
:101A20000128F7D0D9F80000E26900F48001914262
:101A30001CD1226A00F03F01914217D147F6C071D4
:101A4000626A0140B1EB821F10D1A26A4FF0FF33EE
:101A500000F4403103EB5202B1EB024F06D194F88F
:101A60002C1000F07060B0EB016F01D00120D1E7C5
:101A70000020CFE70438024000004742800E474272
:101A8000007000400000FFFF10B5040002D0607F2E
:101A900010B106E0012010BD00202077204600F0A4
:101AA00041F8022060772068C168C943C90632D571
:101AB000CA214162216853204862204601F07CFC23
:101AC00020BB20688168164A1140816021688868BF
:101AD00062681043D4E904231A43104388602168E4
:101AE000E068086120680169228941EA02410161D8
:101AF000204601F085FC48B921680A6C22F4802256
:101B00000A6421680A6CA3691A430A642268FF21E7
:101B1000516208B110BD00200121617710BD0000A5
:101B2000BFFF8FFF1FB5002100910191029103912A
:101B30000068084988420CD102200090C00103903F
:101B40006846FFF7C9FB08B1FEF7B5FC0249012062
:101B500008601FBD002800403C0E474270B5044697
:101B6000007F0B46012819D00126267702206077D6
:101B7000B2B19878D97840EA0145587819780002CE
:101B800040EA413005432168CA2048622168532059
:101B90004862204601F010FCD0B122E0022070BD66
:101BA0005878C10603D500F0EF000A305870D87895
:101BB00001F0F7FB0204587801F0F3FB42EA00223F
:101BC000987801F0EEFB0243187842EA4035DAE7F4
:101BD0000748054020684560204601F011FC00B927
:101BE00066772268FF2151620021217770BD0000D5
:101BF0003FFFFF002DE9F0410446007F0D4601281C
:101C000023D04FF0010884F81C8002206077206800
:101C1000002780684FEA4060D2B1002800DBEF70F7
:101C2000A878297840EA01466878E978000240EA15
:101C3000815006432168CA204862216853204862C7
:101C4000204601F0B9FBB8B12CE00220BDE8F081DC
:101C5000002800DBEF70287801F0A3FB020468780D
:101C600001F09FFB42EA0022A87801F09AFB0243B0
:101C7000E87842EA8056DDE70D48064020680660B5
:101C80002068816821F480218160D5E9030108433F
:101C900021688A6810438860204601F0B1FB08B9CA
:101CA00084F81D802268FF2151622777CEE700006B
:101CB0007F7F7F0070B504460B482168C860FFF73E
:101CC00059FA05464FF47A7607E000BFFFF752FA5B
:101CD000401BB04201D9032070BD2068C068800657
:101CE000F4D5002070BD00005F7F01002DE9FE43A8
:101CF0000446002603200D4684F83400606C032857
:101D00005ED0B5F5805F5BD04FF4006700204FF0E8
:101D10008068BD421FD1814600900190002120685B
:101D200001F0F8FB800113D46946204601F096FFCC
:101D300007000DD10198400334D5B4F850000104D8
:101D4000206801F013FC070002D10221206823E083
:101D5000A06B384328E01DB1A06B40F0006023E089
:101D60008146009001900021206801F0D3FB8001A2
:101D7000EED46946204601F071FF0700E8D10198D2
:101D8000C0030FD5B4F850000104206801F0EEFB49
:101D90000700DDD10021206801F035FC0700D7D114
:101DA0004F46D5E74746D3E7A063A06B144F4FF0EB
:101DB000010848B12068876384F8348001260EE06A
:101DC000A06B40F08050EFE7211DD4E9050C0EC94F
:101DD000CDE90050CDF808C0206801F09EFB4FF41B
:101DE0000071206801F0F6FB28B121688F63A16BB8
:101DF0000143A163012684F834803046BDE8FE83A8
:101E0000FF05400070470000F0B5426E920F0A7067
:101E1000426EC2F383624A70426EC2F301628A70FC
:101E2000426E120CCA70B0F86420120A0A7190F85F
:101E300064204A71826E120DCA80826EC2F3034220
:101E40000A72B0F86820C2F3C0324A72B0F8682053
:101E5000C2F380328A72B0F86820C2F34032CA728C
:101E6000B0F86820C2F300320A7300264E73426C49
:101E70004FF40075012462B1012A3AD00268474943
:101E80009163816B41F08051816380F8344001207F
:101E9000F0BDB0F86820C36E9205120D42EA93724D
:101EA0000A61C26EC2F3C2620A75C26EC2F30262F6
:101EB0004A75C26EC2F342528A75C26EC2F3824242
:101EC000CA75C26EC2F3C2320A760A69521C4265F2
:101ED0000B7E03F007039B1C9A4042650B7A03F0CC
:101EE0000F0704FA07F383655B0A5A43C0E9172515
:101EF0000EE090F86820C36E9206920A42EA1342FE
:101F00000A610A69521C92024265C0E916520566CE
:101F100030F86C2FC2F3803201F8192F0288C2F317
:101F2000C6124A70027802F07F028A704268D20FAD
:101F3000CA704268C2F341720A714268C2F3826297
:101F40004A714268C2F383528A714268C2F34052B6
:101F5000CA710E724268C2F300424A728288C2F3AA
:101F6000C0328A728288C2F38032CA728288C2F317
:101F700040320A738288C2F300324A738288C2F305
:101F800081228A738288C2F30122CA730079C0F366
:101F9000460008744C740020F0BD0000FF054000AE
:101FA000426C0A60826C4A60C26C8A60026DCA60D0
:101FB000426D0A61826D4A61C26D8A61006EC861BC
:101FC0000020704770B50446B0F8500000250104A9
:101FD000206801F000FC18B1A16B0143A16304E08B
:101FE0000021206801F096FA0546C5F3432070BD34
:101FF00070B504000ED094F83400002518B9257788
:10200000204600F04DF8032084F83400204600F00C
:102010000BF808B1012070BDA5632563012084F889
:102020003400002070BD0000FEB500250446762077
:102030000095CDE901502B462A462946206801F03B
:102040006CFA154E46F8A05F206801F078FA012579
:1020500035600220FEF72EFE204601F0E7FE28B193
:1020600084F83450A16B0143A16313E0204601F0D2
:1020700065FE0028F4D14FF40071206801F0AAFA3F
:10208000002808D0226805499163A16B0143A16330
:1020900084F834500120FEBD00802542FF05400039
:1020A0002DE9F04F87B0054614216846FEF7D4F8B5
:1020B0004149286888427CD1404800683F4940F443
:1020C00000600860086800F4006005903B48143820
:1020D00000683A4940F0040014390860086800F0CC
:1020E00004000590086840F00800086008680224B1
:1020F00000F0080005904FF4F850CDE9000402AA62
:10210000002003264FF00C0882E8410169462C4864
:10211000FEF732FF02AA002082E841010427CDE940
:10212000007469462748FEF727FF284C26484FF0E1
:102130000068C4E9000800204FF48069A060C4E989
:102140000309B8024FF4804BC4E9050BC4E90976D2
:102150004FF0200A0020C4E907A07E05B7102046F2
:10216000C4E90B67FEF704FD08B1FEF7A4F92C647F
:10217000A563164C144860344830C4E90008402078
:10218000A0600020C4E90309C4E907A0042060623C
:1021900004F12802032082E8C1004FF48051C4E911
:1021A000051B2046FEF7E4FC08B1FEF784F9EC635A
:1021B000A56307B0BDE8F08F002C01404438024011
:1021C00000080240000C024058640240E800002071
:1021D0002DE9F04786B01F460446154639B194F8FC
:1021E0003400012807D0022006B0BDE8F087A06BBC
:1021F00040F0006008E00020A063E36DEA199A4215
:1022000004D9A06B40F00070A06369E0032284F859
:10221000342022688146D0622268D36B40F22A368D
:102220003343D363236C2F4ADA63236C2E4ADA6478
:10223000226C1065226C9060206C0068026822F0AD
:10224000C002026020680A46266C4FEA472800F167
:1022500080014FEA98033046FEF7F4FCDFF88CA0CB
:10226000012670B12068C16B21F49571C1632168AA
:10227000C1F838A0A06B40F08040A06384F83460BF
:102280002EE01B480660606C012800D06D024FF004
:10229000FF30CDE900089020029002200596CDE99C
:1022A00003096946206801F01FF9012F06D9822031
:1022B00020632946206801F0FFF905E081202063B2
:1022C0002946206801F011FA00288DD02268C2F852
:1022D00038A0A16B0143A16384F83460C4F8309046
:1022E000012081E70D3C0008A93B0008FF054000E4
:1022F0008C85254210B5FEF72BF810BD2DE9F04F67
:102300005FEA010B87B01E460446114607D094F8D9
:102310003400012807D0022007B0BDE8F08FA06B81
:1023200040F0006008E00025A563E26D8819904246
:1023300004D9A06B40F00070A06356E0032084F83D
:1023400034002068C5622068C26B40F21A2942EA54
:102350000902C263E26B2D48D063E26B2C48D06463
:10236000E06B0565606C012800D049024FF09008D1
:10237000012E05D9A0202063206801F077FA04E03F
:10238000C4F83080206801F08AFADFF888A00127BD
:1023900030B12268C2F838A0A16B0143A16321E0EB
:1023A0001D480760E16B40208860E06B00680168B1
:1023B00021F0C00141F04001016022687602B308BB
:1023C00059468032E06BFEF73DFC80B12068C16B5E
:1023D00021EA0901C1632168C1F838A0A06B40F06F
:1023E0008040A06384F834702563012094E74FF0A7
:1023F000FF30CDE90006CDE90285CDE904576946F5
:10240000206801F071F8002086E700004F3C0008CA
:10241000A93B0008FF0540008C85254210B5401EF1
:10242000B0F1807F01D3012010BD4FF0E024606146
:102430000F21601702F03EFC0020A0610720206100
:10244000002010BD7047704770B590F83C20012AFD
:1024500032D0012480F83C40022280F83D200368FD
:102460005A689D6822F070060A6832435A60134B1E
:1024700002689A4214D0B2F1804F11D0104B9A42A8
:102480000ED0104B9A420BD00F4B9A4208D00F4BF4
:102490009A4205D00E4B9A4202D00E4B9A4204D17A
:1024A000496825F080031943916080F83D40002180
:1024B00080F83C10084670BD022070BD000001404D
:1024C0000004004000080040000C004000040140EF
:1024D000004001400018004010B5040003D094F8FB
:1024E0003D0010B107E0012010BD002084F83C0041
:1024F000204600F01FF8022084F83D00211D2068CE
:1025000001F096FF012084F8460084F83E0084F82C
:102510003F0084F8400084F8410084F8420084F8C9
:10252000430084F8440084F8450084F83D0000200E
:1025300010BD000008B500680B49884212D10B4855
:10254000016841F0010101600068002200F0010013
:10255000009011461920FEF77BFEBDE808401920C7
:10256000FEF768BE08BD000000000140443802408C
:1025700090F83D10012901D001207047022180F818
:102580003D100168CA6842F00102CA600068114942
:10259000884214D0B0F1804F11D00F4988420ED03C
:1025A0000E4988420BD00E49884208D00D49884216
:1025B00005D00D49884202D00C49884204D1816877
:1025C00001F00701062903D0016841F00101016013
:1025D0000020704700000140000400400008004057
:1025E000000C004000040140004001400018004081
:1025F00070B5044690F83C000025012817D001264C
:1026000084F83C60022084F83D002068826822F053
:10261000770222F47F4282600868502838D00DDCAF
:1026200020284FD005DC90B3102811D14AE00220B9
:1026300070BD302846D040280AD13BE060282FD01A
:1026400070280DD0B0F5805F03D0B0F5005F12D0D8
:10265000012584F83D60002084F83C00284670BDC8
:10266000CB68D1E90121206801F04AFF2068816828
:1026700041F0770109E0CB68D1E90121206801F040
:102680003FFF2068816841F480418160E1E719E003
:10269000CA684968206801F045FF5021206806E0BB
:1026A000CA684968206801F04EFF6021206801F087
:1026B00031FFCEE7CA684968206801F033FF402146
:1026C0002068F4E7226801461046F0E770472DE9DC
:1026D000F04104460068C66805694FF00007A90785
:1026E00013D5B10711D5F91E0161012020772068AB
:1026F00080698007204602D0FFF7E8FF04E000F081
:102700007EF8204600F07CF82777680716D570071A
:1027100014D521686FF0040008610220207720683A
:10272000806910F4407F204602D0FFF7CFFF04E01D
:1027300000F065F8204600F063F82777280715D5E4
:10274000300713D521686FF0080008610420207756
:102750002068C0698007204602D0FFF7B7FF04E079
:1027600000F04DF8204600F04BF82777E80616D524
:10277000F00614D521686FF010000861082020775A
:102780002068C06910F4407F204602D0FFF79EFF0A
:1027900004E000F034F8204600F032F82777E8072C
:1027A00008D0F00706D021686FF0010008612046CC
:1027B00000F028F8280608D5300606D521686FF005
:1027C000800008612046FFF73DFE680608D57006C8
:1027D00006D521686FF040000861204600F03AF805
:1027E000A8060AD5B00608D521686FF02000086158
:1027F0002046BDE8F041FFF726BEBDE8F0817047F6
:10280000704700000068104988421BD10F490868D2
:10281000401C08604FF4FA61B0FBF1F201FB1201B9
:102820000B48B1F57A7F09D24FF4FA72B1FBF2F39B
:1028300002FB1311FA2901D2012200E00022042137
:10284000FEF792BC7047000000000140000000202D
:10285000000402407047704770470000F8B50168F7
:1028600004460868CA684B6910F00F0F4FF0000566
:1028700059D003F0010602F49077374365D0C107C1
:1028800005D0D10503D5616C41F0010161644107B8
:1028900005D5D90703D0616C41F00201616481075D
:1028A00005D5D90703D0616C41F0040161640107CB
:1028B00007D502F02001314303D0616C41F00801DB
:1028C0006164616C00293AD0800604D5900602D577
:1028D000204601F07FFE20684069616CC0F38010E3
:1028E000090700D460B3204601F04DFE206840691E
:1028F000400621D52068143050E8001F21F0400127
:1029000040E80012002AF5D1E06BA8B172490165D8
:10291000E06BFEF748F8002811D0E06B016D01B0C4
:10292000BDE8F040084783060FD593060DD5204635
:10293000BDE8F84001F04EBE2046FFF78DFFF8BD20
:102940002046FFF789FF6564F8BD266B2023012E22
:102950007ED1C6067CD5D6067AD508684868009030
:1029600048694FF0020640064DD5E26B106840689A
:102970004FF480770004000C3AD0A18D814237D902
:10298000E085D069B8422DD020680C3050E8001F97
:1029900021F4807140E80012002AF5D1206814303B
:1029A00050E8001F21F0010140E80012002AF5D193
:1029B0002068143050E8001F21F0400140E8001268
:1029C000002AF5D184F84230256320680C3050E8A5
:1029D000001F21F0100140E80012002AF5D1E06B41
:1029E000FDF798FF6663A08DE18D401A81B206E085
:1029F000A18D8142A8D1D069B842A5D16663204695
:102A0000FFF729FFF8BDA08DE18D401A81B2E08D5E
:102A10000028F7D00029F5D020680C3050E8002FAE
:102A200022F4907240E80027002FF5D1206814307E
:102A300050E8002F22F0010240E80027002FF5D1D6
:102A400084F84230256320680C3050E8002F00E005
:102A500006E022F0100240E80023002BF3D1CDE77E
:102A600005062BD5150629D594F841002128C9D192
:102A7000A068B0F5805F01D12069B0B1206A411C27
:102A80002162216800784860E08C401E0004000C40
:102A9000E084B7D12068C16821F08001C16020685E
:102AA000C16841F04001C160F8BD206A0088C0F3F0
:102AB00008004860206A801C2062E5E74006F3D5E4
:102AC0005006F1D5CA68204622F04002CA6084F858
:102AD000413000F01AF9F8BD7945000870B50400DE
:102AE00004D094F84100002510B106E0012070BD2B
:102AF00084F84050204600F023F8242084F8410058
:102B00002068C16821F40051C160204601F0C4FD75
:102B10002068016921F4904101612068416921F038
:102B20002A0141612068C16841F40051C1606564B7
:102B3000202084F8410084F842006563002070BDC5
:102B400010B586B0044614216846FDF785FB174989
:102B50002068884227D116480021026842F40022EA
:102B60000260006800F400200590114810380268E7
:102B700042F0010202600068022200F001000590AC
:102B80000320CDE90210CDE9000208200490694637
:102B90000848FEF7F1F9002201213420FEF758FB26
:102BA0003420FEF747FB06B010BD0000004C00408B
:102BB00040380240000002402DE9F84F044690F8EA
:102BC00042009A4616460D46202802D00220BDE853
:102BD000F88FB5B1AEB100206064222184F84210B4
:102BE0002063FEF7C7FAA6858146E685A0684FF404
:102BF00080582027404501D1206920B12E4600256C
:102C000029E00120E3E7002625E04B4600222021B1
:102C10002046CDF800A001F0C5FD18B184F842703F
:102C20000320D4E726B1A06840451AD038B108E0A7
:102C300020684068C0F3080025F8020B08E020690E
:102C400078B12068406800F07F0000BF06F8010BF3
:102C5000E08D401EE085E08D0028D6D184F84270DA
:102C6000B5E720684068F1E770472DE9F84304466E
:102C700090F84100984616460D46202802D00220C2
:102C8000BDE8F88385B17EB100206064212084F81E
:102C90004100FEF76FFAA6848146E684A0682027EB
:102CA000B0F5805F02D003E00120E9E7206910B1B0
:102CB0002E4600250EE000260CE08021204601F083
:102CC00071FDA8B9C6B116F8010B21684860E08C07
:102CD000401EE084E08C4B464FF00002CDF80080AF
:102CE0000028EAD14FF04001204601F05BFD40B1E1
:102CF00084F841700320C3E735F8020BC0F30800E5
:102D0000E3E784F841700020BAE77047FEE700006F
:102D1000F0B500220D4B154614460A27B1FBF3F619
:102D200030368654B1FBF3F603FB1611B3FBF7F311
:102D3000521C861816F8016C302E00D125B16D1C7E
:102D4000641C0A2CEAD3F0BD0022F9E700CA9A3BC2
:102D5000074910B5054808600846FDF7B5FD00288D
:102D600003D0BDE81040FDF7A6BB10BD0030024007
:102D7000040000200D4808B5016841F4800101609D
:102D80000068002200F48000009002213B20FEF742
:102D90005FFA3B20FEF74EFA002202214520FEF7A3
:102DA00057FABDE808404520FEF744BA30380240E3
:102DB00010B504490448FDF780FB0249491E08701C
:102DC00010BD000031000020E85E000830B587B07B
:102DD00014216846FDF740FA1D480024016841F0BF
:102DE00004010160016801F004010591016841F0EE
:102DF00080010160016801F080010591016841F0E6
:102E000001010160016801F001010591016841F0D3
:102E100002010160016801F002010591016841F0C1
:102E20000801016000680B4D00F0080005900022C9
:102E300004212846FEF798F9042001218DE81300AB
:102E4000039169462846FEF797F807B030BD0000A9
:102E5000303802400004024010B586B014216846A4
:102E6000FDF7FAF91B48002419490594C0E900143C
:102E70007F218160FF21C0E9031444618461FEF772
:102E800003FE08B1FDF717FB8DF800408DF80140F7
:102E90008DF802400394012269460E480494FEF71F
:102EA000A9FE08B1FDF707FB01208DF814008DF88D
:102EB00015008DF8160002468DF8174005A9054843
:102EC000FEF74CFE002801D0FDF7F5FA06B010BD64
:102ED0000028004044000020064805490160002108
:102EE00041608160C16001614161816170470000A2
:102EF000002C01406400002010B586B00024184862
:102F0000009401940294039404941449059401607C
:102F10005321C0E9011440F2CF71C0E903148021AC
:102F2000C0E90541FFF7D8FA08B1FDF7C4FA4FF43C
:102F30008050009069460A48FFF75AFB08B1FDF738
:102F4000BAFA049404A906480594FFF77DFA00280C
:102F500001D0FDF7B0FA06B010BD0000000001403E
:102F6000A80100200C4810B50A4901604FF4E13176
:102F70004160002181600C22C160C0E904128161BE
:102F8000C161FFF7ABFD002803D0BDE81040FDF79D
:102F900092BA10BD004C0040F001002008B500209E
:102FA0008DF800003C4801F07BF93C4801F078F9CD
:102FB0003B4801F075F93B4801F072F9384801F0DF
:102FC0006FF9394801F06CF9334801F069F937A01D
:102FD00001F066F9374D4FF0FF36374CFDF7FCFA3C
:102FE000206036A001F05CF944A001F059F953A02B
:102FF00001F056F961A001F053F9206808B16FA003
:1030000000E07EA001F04CF98CA001F049F928689D
:1030100040683346012269462648FFF7CDFD9DF8FA
:103020000000312807D0322808D0332809D03428AE
:103030000DD092A012E001F005F8CFE701F0B8F84A
:10304000CCE79EA001F02CF9FEF734F9C6E7206822
:1030500090B10020FDF702FB18B1A1A001F020F90A
:10306000BCE7ABA001F01CF9B1A001F019F9FDF724
:103070000FFFFDF76BFFB1E70120FDF7EFFA08B195
:10308000B3A0EBE7BDA001F00BF9A9A001F008F98E
:10309000FDF7FEFEA2E7000080600008E85F000880
:1030A000505F0008346000089C5F00080D0A0D0A9C
:1030B00000000000580200201C0000200D0A3D3DC9
:1030C0003D3D3D3D3D3D3D3D3D3D3D3D3D3D3D3D30
:1030D0003D204D61696E204D656E75203D3D3D3D45
:1030E0003D3D3D3D3D3D3D3D3D3D3D3D3D3D3D3D10
:1030F0003D3D3D3D3D3D3D3D0D0A0A002020446FD4
:10310000776E6C6F616420696D61676520746F20F4
:1031100074686520696E7465726E616C20466C61BE
:103120007368202D2D2D2D2D2D2D2D2D2D2D2D2D5B
:103130002D2D2D2D20310D0A0A0000002020557064
:103140006C6F616420696D6167652066726F6D20C8
:1031500074686520696E7465726E616C20466C617E
:103160007368202D2D2D2D2D2D2D2D2D2D2D2D2D1B
:103170002D2D2D2D20320D0A0A000000202045782B
:10318000656375746520746865206C6F616465643F
:10319000206170706C69636174696F6E202D2D2DD4
:1031A0002D2D2D2D2D2D2D2D2D2D2D2D2D2D2D2D4F
:1031B0002D2D2D2D20330D0A0A00000020204469FA
:1031C0007361626C6520746865207772697465202C
:1031D00070726F74656374696F6E202D2D2D2D2DA7
:1031E0002D2D2D2D2D2D2D2D2D2D2D2D2D2D2D2D0F
:1031F0002D2D2D2D20340D0A0A0000002020456EB3
:1032000061626C65207468652077726974652070EE
:10321000726F74656374696F6E202D2D2D2D2D2DA9
:103220002D2D2D2D2D2D2D2D2D2D2D2D2D2D2D2DCE
:103230002D2D2D2D20340D0A0A0000003D3D3D3D71
:103240003D3D3D3D3D3D3D3D3D3D3D3D3D3D3D3DAE
:103250003D3D3D3D3D3D3D3D3D3D3D3D3D3D3D3D9E
:103260003D3D3D3D3D3D3D3D3D3D3D3D3D3D3D3D8E
:103270003D3D3D3D3D3D0D0A0A000000496E766131
:103280006C6964204E756D6265722021203D3D3E63
:1032900020546865206E756D6265722073686F7565
:1032A0006C642062652065697468657220312C2029
:1032B000322C2033206F7220340D00005374617261
:1032C000742070726F6772616D20657865637574C4
:1032D000696F6E2E2E2E2E2E2E0D0A0A0000000073
:1032E0004572726F723A20466C617368207772691A
:1032F000746520756E2D70726F74656374696F6E7E
:10330000206661696C65642E2E2E0D0A0000000097
:1033100057726974652050726F74656374696F6E5B
:103320002064697361626C65642E2E2E0D0A0000A4
:1033300053797374656D2077696C6C206E6F77209C
:10334000726573746172742E2E2E0D0A00000000D7
:103350004572726F723A20466C61736820777269A9
:1033600074652070726F74656374696F6E20666136
:10337000696C65642E2E2E0D0A0000005772697468
:10338000652050726F74656374696F6E20656E613D
:10339000626C65642E2E2E0D0A000000FEE7FEE72B
:1033A0007047002102E00A38C0B2491C0A28FAD24C
:1033B000090740EA116070472DE9F04104460068B2
:1033C0000025C168490618D4C16841F08001C16078
:1033D000FDF7D0FE06464FF47A78042707E000BFD9
:1033E000FDF7C8FE801B404501D96777012520689D
:1033F000C068400601D4002DF2D02846BDE8F08117
:1034000070B5044600680025C16821F08001C160E4
:1034100020688068800606D42046FEF74BFC10B179
:10342000042060770125284670BD00002DE9F8438F
:1034300000240F460646904613460C60012269465A
:103440002848FFF7B9FB050020D19DF80000182897
:1034500020D006DC01280BD002280BD0042804D190
:1034600004E0412827D0612825D0012530700DE0E7
:10347000802401E04FF480643070221D4346B11C6B
:103480001848FFF799FB050017D0002428463C6038
:10349000BDE8F8834346012269461248FFF78CFBDA
:1034A00018B99DF80000182803D001259DF80000E8
:1034B000DCE70224DAE70225D8E7F178B07881F07A
:1034C000FF0188420AD130190179407900EB0128C7
:1034D0002146301DFCF752FF4045D7D0002401257E
:1034E000D4E70000580200200A6842624A688262FB
:1034F000D1E902231A43D1E904310B43C16A1A43CB
:1035000021F0F7011143C16200207047006800F00C
:103510000300704708444069704770B50DF1100C06
:1035200011439CE870002343194329434268314307
:1035300047F6FF639A430A434260002070BD0321AF
:10354000016000207047D0F8800070470A688260F0
:10355000D1E901231A43D1E903310B43C1681A436E
:103560006FF30B011143C1600020704710B585B0A7
:1035700004463720CDE9001040200290002003903F
:103580004FF48060049069462046FFF7DFFF41F268
:1035900088323721204600F09BF905B010BD0000AD
:1035A00010B504460A4885B001432920CDE9001032
:1035B00040200290002003904FF480600490694600
:1035C0002046FFF7C3FF204600F03AFA05B010BDD1
:1035D0000000108010B585B004461020CDE9001021
:1035E00040200290002003904FF4806004906946D0
:1035F0002046FFF7ABFF41F288321021204600F051
:1036000067F905B010BD10B585B004460620CDE9B8
:10361000001040200290002003904FF4806004903E
:1036200069462046FFF792FF41F288320621204684
:1036300000F04EF905B010BD30B585B00024054648
:10364000009401944FF480600294CDE903406946F0
:103650002846FFF77BFF0B484FF4FA510068B0FB98
:10366000F1F041F288314843401E03D24FF0004050
:1036700005B030BD696B0906F6D5C520A8632046A4
:10368000F6E700001800002010B585B004464FF49E
:10369000D5700090082001904020029000200390F7
:1036A0004FF48060049069462046FFF74FFF2046A4
:1036B00000F02CFA05B010BD10B585B004461220FC
:1036C000CDE9001040200290002003904FF480606C
:1036D000049069462046FFF739FF41F288321221F3
:1036E000204600F0F5F805B010BD10B585B00446D1
:1036F0001120CDE9001040200290002003904FF4EB
:103700008060049069462046FFF720FF41F288322E
:103710001121204600F0DCF805B010BD10B585B0D1
:1037200004460720CDE900204020029000200390AD
:103730004FF48060049069462046FFF707FF41F28E
:1037400088320721204600F0C3F805B010BD10B53F
:1037500085B0044600210220CDE90010C020CDE94B
:1037600002014FF48060049069462046FFF7EEFEA8
:10377000204600F03DF905B010BD10B585B00446F7
:103780000920CDE90010C0200290002003904FF4E2
:103790008060049069462046FFF7D8FE204600F07E
:1037A00027F905B010BD10B585B0044600213320BF
:1037B000CDE900104020CDE90201000104906946E6
:1037C0002046FFF7C3FE41F288323321204600F045
:1037D0007FF805B010BD10B585B004460D20CDE9C9
:1037E000001040200290002003904FF4806004906D
:1037F00069462046FFF7AAFE41F288320D21204695
:1038000000F066F805B010BD30B585B00C46054631
:1038100000210320CDE900104020CDE90201000184
:10382000049069462846FFF791FE22460321284668
:1038300000F028F905B030BD10B585B00446002170
:103840000C20CDE900104020CDE9020100010490D8
:1038500069462046FFF77AFE034A0C21204600F015
:1038600037F805B010BD000000E1F50510B585B0D2
:1038700004461920CDE9001040200290002003905A
:103880004FF48060049069462046FFF75FFE41F2E6
:1038900088321921204600F01BF805B010BD10B584
:1038A00085B004461820CDE9001040200290002089
:1038B00003904FF48060049069462046FFF746FE6F
:1038C00041F288321821204600F002F805B010BD00
:1038D000454B10B51B684FF4FA54B3FBF4F3534354
:1038E0005B1E02D24FF0004010BD426B12F0450F3C
:1038F000F6D01205F4D4426B520703D5042181633C
:10390000084610BD426BD20702D00121816305E059
:10391000C52282630269D2B28A4201D0012010BD61
:103920000021FFF7F7FD3149084201D1002010BD09
:10393000002802DA4FF0007010BD410001D5402090
:1039400010BD810001D5802010BDC10002D54FF40B
:10395000807010BD010102D54FF4007010BD41010F
:1039600002D54FF4806010BDC10102D54FF4006054
:1039700010BD010202D54FF4805010BD410202D5A6
:103980004FF4005010BD810202D54FF4804010BDAD
:10399000C10202D54FF4004010BD410302D54FF4DF
:1039A000003010BD810302D54FF4802010BDC1034B
:1039B00002D54FF4002010BD010402D54FF4801051
:1039C00010BD410402D54FF4001010BD810402D592
:1039D0004FF4800010BD000702D54FF4000010BD69
:1039E0004FF4803010BD00001800002008E0FFFDFB
:1039F00012494FF4FA520968B1FBF2F141F28832F0
:103A00005143491E02D24FF000407047426B12F002
:103A1000450FF6D01205F4D4416B490703D50421B4
:103A2000816308467047416BC90703D00121816358
:103A300008467047C52181630020704718000020A8
:103A40000F494FF4FA520968B1FBF2F141F28832A2
:103A50005143491E02D24FF000407047426B12F0B2
:103A6000450FF6D01205F4D4416B490703D5042164
:103A7000816308467047C5218163002070470000BC
:103A80001800002030B5204B4FF4FA541B68B3FBEC
:103A9000F4F341F2883463435B1E02D24FF00040DE
:103AA00030BD446B14F0450FF6D02405F4D4436BBD
:103AB0005B0703D504218163084630BD436BDB07F8
:103AC00002D00121816303E00369DBB28B4201D0A4
:103AD000012030BDC52181630021FFF71BFD10F4DB
:103AE000604F04D0410406D54FF4005030BD000CA7
:103AF0001080002030BD000402D54FF4805030BD4E
:103B00004FF4803030BD00001800002014494FF4FD
:103B1000FA520968B1FBF2F141F288325143491E71
:103B200002D24FF000407047426B12F0450FF6D0C2
:103B30001205F4D4416B490703D50421816308467B
:103B40007047416BC90703D0012181630846704764
:103B5000416B490601D54021816300207047000078
:103B60001800002010B5064C01202070FCF7B6FBB1
:103B700018B9207820F001002070207810BD0000D6
:103B80002400002070B50546FDF7F4FA044603E072
:103B9000FCF7A4FB002806D0FDF7ECFA001BA842B6
:103BA000F6D34FF0FF3070BD10B5846BFCF70DFFFE
:103BB000022828D0206C416DE06B406D012901D0B6
:103BC00001281DD12168104888632068C16B21F449
:103BD0009D71C163A06B40F08040A0632046FEF75A
:103BE000F1F9062801D0052805D12068FFF724FE49
:103BF000A16B0843A063012084F8340000202063F7
:103C00002046FEF7FFF810BDFF05400010B5846B9D
:103C1000206B822809D12068FFF70EFE28B1A16B26
:103C20000143A1632046FEF7EDF82068C16A21F048
:103C30000801C162216840F23A508863012084F88B
:103C40003400002020632046FEF754FB10BD806B3B
:103C50000068C16B41F48071C16370472DE9F04782
:103C600088B00D460446FDF785FA00268246009688
:103C70000196374608212068FFF7ACFC00282CD1BC
:103C8000B4F8500001042068FFF770FC002824D12C
:103C9000401E4FF00808CDE9020830204FF002091D
:103CA000CDE904090120CDE9067002A92068FFF7DB
:103CB0001BFC2068FFF777FD00280ED16F462068B7
:103CC000416B11F02A0F0BD0416B090702D4416BF5
:103CD00089051AD5C0F83880082008B0BDE8F087FB
:103CE000416B890205D5FFF72EFC47F82600761CAC
:103CF00002E0416B8904E7D5FDF73CFAA0EB0A002E
:103D0000401CDCD14FF00040E7E7416B890703D549
:103D1000C0F838900220E0E7416B890603D52021E6
:103D200081630846D9E740F23A518163019800BAAD
:103D30002860009800BA68600020CEE710B590B007
:103D400004460120ADF838002068FFF7DFFB0028AB
:103D500054D0606C032842D02068FFF7F8FC00289C
:103D60004AD100212068FFF7D5FB60670421206855
:103D7000FFF7D0FBA06708212068FFF7CBFBE067C7
:103D80000C212068FFF7C6FBC4F88000606C032894
:103D900025D00EA92068FFF737FD00282CD1606CD4
:103DA00003281CD0BDF83800206501042068FFF707
:103DB000E4FC002820D100212068FFF7ABFB6066FF
:103DC00004212068FFF7A6FBA06608212068FFF702
:103DD000A1FBE0660C212068FFF79CFB2067042113
:103DE0002068FFF797FB000DE06403A92046FEF76B
:103DF0000BF830B14FF0805010B010BD4FF0806024
:103E0000FAE7B4F85000002302042068FFF786FCAC
:103E10000028F1D104F1100007C88DE8070094E8EC
:103E20000F00FFF77AFB0020E6E700002DE9F84FCE
:103E30000026044600963546B0460068FFF7FCFBB6
:103E4000002827D12068FFF71FFC4FF0805B4FF060
:103E500001094FF6FF7748B1A6642068FFF7ECFB35
:103E6000002817D1A06C012802D020E0C4F84890A7
:103E700000212068FFF77AFB58B918E0002120687C
:103E8000FFF774FB002805D151462068FFF788FB37
:103E900010B15846BDE8F88F00212068FFF73AFBC3
:103EA00005464FEAD0780098401C009002E0DFF809
:103EB0002CA00098B84202D2B8F1000FDED00098D2
:103EC000B84202D34FF08070E4E7680002D5C4F82E
:103ED000449000E066640020DCE70000000010C1B0
:103EE00070B50546FCF706FA034C18B92846FFF7EB
:103EF00039FE2070207870BD2400002010B51248D3
:103F000088B014460078C00702D0032008B010BD66
:103F1000C1B1012905D0022908D003290CD0042001
:103F2000F4E76846FCF7D4F906980AE06846FCF71F
:103F3000CFF90798208005E06846FCF7C9F9079893
:103F4000400A20600020E1E7240000202DE9F04134
:103F500047F230551C461746884601262846FFF78B
:103F600011FE002826DB224639464046FCF7E2F9DE
:103F700000BB134C4FF00008C4F80880FDF7FAF8B6
:103F80000746A06820B9FDF7F5F8C01BA842F8D392
:103F9000A06828B1C4F80880FDF7ECF8044604E0F6
:103FA000012607E0FCF79AF938B1FDF7E3F8001BAA
:103FB000A842F7D33046BDE8F0810026FAE70000BA
:103FC00024000020FFF7CEBD2DE9F0471B4C4FF039
:103FD00000081F4691468A460126C4F8048047F22D
:103FE00030552846FFF7CEFD002821DB3A464946EA
:103FF0005046FCF7B3F9D8B9FDF7BCF8074660683E
:1040000020B9FDF7B7F8C01BA842F8D3606828B103
:10401000C4F80480FDF7AEF8044604E0012607E08A
:10402000FCF75CF938B1FDF7A5F8001BA842F7D3FF
:104030003046BDE8F0870026FAE7000024000020A3
:10404000704700001FB5002000900190029003907F
:1040500015A000F025F903A800F0EEFB38B1052803
:104060001AD004281CD002281CD01EA015E0254818
:1040700000F016F9244800F013F968460399FEF79A
:1040800047FE22A000F00CF9684600F009F922A0D2
:1040900000F006F923A000E028A000F001F91FBD00
:1040A00036A0FAE73CA0F8E757616974696E6720AB
:1040B000666F72207468652066696C6520746F2075
:1040C00062652073656E74202E2E2E202870726516
:1040D00073732027612720746F2061626F727429C7
:1040E0000A0D00000A0D4661696C656420746F203A
:1040F00072656365697665207468652066696C65BC
:10410000210A0D00FC5E0008A00200200A0D2053C9
:10411000697A653A200000002042797465730D0ABF
:10412000000000002D2D2D2D2D2D2D2D2D2D2D2D73
:104130002D2D2D2D2D2D2D0A000000000A0A0D54C5
:10414000686520696D6167652073697A65206973A8
:1041500020686967686572207468616E207468659C
:1041600020616C6C6F776564207370616365206D8E
:10417000656D6F7279210A0D000000000A0A0D5664
:104180006572696669636174696F6E206661696CE6
:104190006564210A0D0000000D0A0A41626F727405
:1041A000656420627920757365722E0A0D00000027
:1041B00008B500208DF800000EA000F071F84FF057
:1041C000FF33012269461248FEF7F6FC9DF8000015
:1041D00043280DD14FF460220EA1144800F0F6FBE5
:1041E0008DF8000008B112A000E01CA000F058F803
:1041F00008BD00000A0A0D53656C656374205265A2
:1042000063656976652046696C650A0D00000000EB
:104210005802002055706C6F61646564466C617370
:1042200068496D6167652E62696E000000000208D2
:104230000A0D4572726F72204F6363757272656406
:10424000207768696C65205472616E736D6974744F
:10425000696E672046696C650A0D00000A0D4669A3
:104260006C652075706C6F61646564207375636341
:1042700065737366756C6C79200A0D0001B507488B
:1042800090F84110A02902D1202180F84110642328
:10429000012269460148FEF7E8FC08BD58020020EB
:1042A000002201E0521C92B2815C0029FAD1014641
:1042B00064230148FEF7D9BC58020020F0B505463A
:1042C00000242A7820462346302A2ED16A78782A7C
:1042D00001D0582A29D102241CE000BFA2F14106D6
:1042E000052E07D9A2F16107052F03D91136092E32
:1042F00004D913E0A2F13007092F01D8303A04E0C5
:10430000052E01D8373A00E0573A641C02EB03133C
:104310000B2C04D22A5D002AE0D103E000202A5DA4
:10432000002A01D101200B60F0BD2A5D62B16B2A29
:1043300001D04B2A02D10CB19B0205E06D2A01D0BD
:104340004D2A04D11CB11B0501200B600AE0A2F12B
:104350003006092E0CD803EB83036FF02F0606EB13
:1043600043031344641C0B2CDED20128DDD1F0BDC5
:104370000020F0BDFCF704BF30B593B03021684693
:10438000FBF76AFF14210CA8FBF766FF1F48002506
:10439000016841F080510160006800F08050119088
:1043A0001B48016841F4804101600068022400F468
:1043B00080401190052000904FF480300190012042
:1043C00002908005CDE9064004200890A820CDE9A0
:1043D000090407200B906846FDF7A0F908B172B6F2
:1043E000FEE70CA90F2081E831004FF4A0500F9098
:1043F0004FF48050109005210CA8FDF70BF8002811
:1044000001D072B6FEE713B030BD00004038024064
:10441000007000400248016841F47001016070477B
:1044200088ED00E00148FEF752B90000A801002025
:10443000F0B50268274B284D284E294F294C4FF0E4
:10444000804C984209D0604507D0A84205D0B042C0
:1044500003D0B84201D0A04204D122F0700E4A68C5
:1044600042EA0E0298421BD0604519D0A84217D0EC
:10447000B04215D0B84213D0A04211D01A4DA84274
:104480000ED01A4DA8420BD0194DA84208D0194D94
:10449000A84205D0184DA84202D0184DA84203D119
:1044A00022F44075CA682A434D6922F080022A43EB
:1044B0008D68C5620D688562984201D0A04201D125
:1044C00009690163016841F0040101600121416152
:1044D0000260F0BD00000140000400400008004000
:1044E000000C004000040140004001400044014035
:1044F0000048014000180040001C0040002000401F
:1045000010B5846842EA032224F47F440A4322431C
:10451000826010BD826822F070020A4342F00701F7
:104520008160704710B5036A046A24F001040462D4
:10453000846924F0F00444EA021423F00A020A43D6
:104540008461026210BD10B5036A046A24F010048D
:104550000462846923F0A00324F4704444EA023224
:1045600043EA01118261016210BD00000148FEF7BB
:1045700075B90000F001002010B5806B0021C185E5
:10458000FEF76AF910BD01680C3151E8002F22F4E2
:10459000907241E80023002BF5D10168143151E8F5
:1045A000002F22F0010241E80023002BF5D1016B1E
:1045B000012909D101680C3151E8002F22F01002C5
:1045C00041E80023002BF5D1202180F84210002182
:1045D0000163704708B590F84210222901D00220EB
:1045E00008BD82684FF480539A4201D1016921B11C
:1045F000816A9A421BD04AB10AE00268816A526815
:10460000C2F308020A80816A891C08E0026972B15B
:104610000268526802F07F020A70816A491C816256
:10462000C18D491E0904090CC18503D01BE0026835
:104630005268F1E70168CA6822F02002CA60016886
:10464000CA6822F48072CA6001684A6922F00102D5
:104650004A61202180F8421000214163026B012A47
:1046600003D0FEF701FB002008BD016301680C3197
:1046700051E8002F22F0100241E80023002BF5D171
:1046800001680A68D20602D50A6849680091818DDE
:10469000FEF7E1F8E7E7000070B50446006801693D
:1046A000E26821F44051114301612169A068E26987
:1046B00008436169114308432168CA6849F20C63E1
:1046C0009A430243CA6020684169A26921F440719B
:1046D0001143416131492068884202D03049884203
:1046E00002D1FCF7DBFF01E0FCF7C8FFE269002321
:1046F000192164253226B2F5004F626828D0A0FB4C
:104700000101930F9200FBF75DFD0146B0FBF5F050
:104710006FF01802504301EB800006EB0010B0FB75
:10472000F5F000F0F002B1FBF5F002EB0012B1FB86
:10473000F5F06FF01803584301EB800006EB001012
:10474000B0FBF5F000F00F0021681044886070BDE8
:10475000A0FB010192185B41FBF734FD0146B0FB61
:10476000F5F00201B1FBF5F06FF01803584301EBCF
:10477000800006EBC000B0FBF5F000F0F80002EBA3
:104780004002B1FBF5F0584301EB800006EBC0009E
:10479000B0FBF5F000F00700D6E700000010014084
:1047A000001401402DE9F843984617460D4604468B
:1047B000089E24E0701C22D0FCF7DCFCA0EB080073
:1047C000B0421AD8CEB12068C168490717D5802DEC
:1047D00015D0402D13D00168C94309070FD40168D3
:1047E0000025406800902046FFF7CDFE0820606459
:1047F00084F840500120BDE8F8830320FBE72068DF
:10480000006835EA000004D00020B842D2D0002071
:10481000F1E70120F9E741F4807141F22102400003
:104820004900CB0500D5401CC30300D55040CB0345
:10483000F5D580B27047FEE72DE9F14F0027DFF88C
:104840007CA188B0DFF870B13E46B9463C46CAF854
:1048500000B0A9E04FF000084546A1E041F28832DF
:1048600004A95748FEF7E2FD60B102286CD0B9F107
:10487000000F00D0761C052E67D91820FFF7FEFC2C
:1048800018208BE00498002670B1022807D04C490C
:1048900008F0FF028B7893420BD015207EE00620B3
:1048A000FFF7ECFC02247BE00620FFF7E7FC012584
:1048B00076E0B8F1000F12D08208DAF80000091D86
:1048C000FBF7A8FEF0B31820FFF7D8FC1820FFF77D
:1048D000D5FC042408F101084FF0010960E00879D3
:1048E00088B30020374B091D02E01A54401C491CB4
:1048F0000A780AB14028F8D34FF0000C03F800C042
:1049000060466B4601E01A54401C11F8012F202A22
:1049100001D01028F7D303F800C005A91846FFF707
:10492000CDFC05986FF46021C84216D918208DF887
:1049300018004FF480142346012206A92248FEF7EE
:1049400094F903E01AE013E022E026E02346012276
:1049500006A91D48FEF789F905245846FBF722FEF3
:104960000898059901600620FFF788FC43200CE0B9
:104970000620FFF783FC01252F4611E0DAF800102E
:10498000049A1144CAF800100620FFF777FCA1E74B
:104990001820FFF773FC182082E74320FFF76EFC16
:1049A00055EA04003FF45AAF57EA04003FF452AF0F
:1049B00009B02046BDE8F08F00000208200000206A
:1049C000E0020020A0020020580200202DE9F74F4D
:1049D00086B04FF0000A0120AC4E019001220898E9
:1049E000727086F802A0FF23D04655465746F370F2
:1049F000544604E006EB040C641C8CF804300B5D98
:104A00000BB1402CF6D3321900211171014602A8D6
:104A1000FEF77EF902A8641D02E03155641C7F1C7C
:104A2000C15D0029F9D14FF48019DFF860B202E0CE
:104A300000203055641C842CFAD31FE05C464E469F
:104A40004B468322611C9248FEF70FF98021201DFE
:104A5000FBF794FC0446000AFFF710FCE0B2FFF7F6
:104A60000DFC3346012269468948FEF7A5F860B17E
:104A70000AF1010ABAF1050F00D3012558EA050031
:104A8000DCD006980290089C7CE09DF80000062887
:104A900015D01828EED13346012269467C48FEF72E
:104AA0008BF80028E6D19DF800001828E2D10220FA
:104AB000FCF700F97648006840680225DAE74FF015
:104AC0000108D7E7DDE90103704AC6B24FF48067F9
:104AD0002046BC4201D3394600E08021884200D301
:104AE0000846B1F5806F07D0012757709670F643DE
:104AF000D6700426071D06E00227F6E713F801CB5F
:104B000002F806C0761CBE42F8D3884207D81A23A2
:104B1000001D091D01E01354401C8842FBD34FF0D7
:104B2000000A8DF800A0574629E000BF4FF48066C8
:104B3000B44200D28026F21C4B46D8460BF101014C
:104B40005348FEF792F8314608F10400FBF716FCD3
:104B50008046000AFFF792FB08F0FF00FFF78EFB8C
:104B60004B46012269464A48FEF726F818B99DF8D7
:104B70000000062811D07F1C052F00D301255AEA1A
:104B80000500D3D00CB1002D9CD0002426468DF812
:104B900000402746DFF8F88020E002984FF0010A35
:104BA0003044B442029009D90198A41BB0F5607F4B
:104BB00002D0401C0190DFE70525DDE70024DBE79C
:104BC0000420FFF75BFB4B46012269463048FDF7A6
:104BD000F3FF40B17F1C052F00D3012554EA0500E7
:104BE000EED0E5B14EE09DF80000062815D018285B
:104BF000F1D14B46012269462548FDF7DDFF00282B
:104C0000E9D19DF800001828E5D10220FCF752F800
:104C1000D8F8000040680225DDE70124DBE7012029
:104C20008BF801008BF80260FF208BF803005C46D4
:104C300004202654401CC0B28428FAD34E464B466A
:104C40008322611C1248FEF710F88021201DFBF71B
:104C500095FB0446000AFFF711FBE0B2FFF70EFBDD
:104C60003346012269460A48FDF7A6FF50B99DF870
:104C70000000182806D10220FCF71CF8D8F8000024
:104C80004068022509B02846BDE8F08FE002002008
:104C9000580200200FB4054B10B503A9044A02982E
:104CA00000F028F810BC5DF814FB0000AD570008B8
:104CB000400000200907090E002804DB00F1E02075
:104CC00080F80014704700F00F0000F1E02080F839
:104CD000141D704702E008C8121F08C1002AFAD14B
:104CE00070477047002001E001C1121F002AFBD16C
:104CF000704700002DE9FF4F8DB00F460546002696
:104D000006E025280BD0DDE90F1290476D1C761CBC
:104D100028780028F5D111B03046BDE8F08F002486
:104D2000A246A1460122E94900E0044315F8013FEB
:104D3000203B02FA03F00842F7D128782A2810D045
:104D40006FF02F022878A0F13001092914D80AEB5E
:104D50008A0102EB410144F0020400EB010A6D1CE0
:104D6000F0E701CF5FEA000A03D544F40054CAF12A
:104D7000000A44F002046D1C28782E2817D115F87B
:104D8000010F44F004042A280ED06FF02F02287877
:104D9000A0F1300109290AD809EB890102EB410190
:104DA00000EB01096D1CF2E757F8049B6D1C287895
:104DB0006C280FD006DC4C2817D068280DD06A2844
:104DC00014D104E0742810D07A280FD10DE044F4F7
:104DD00000140AE044F4801401E044F440146978BB
:104DE000814202D104F580146D1C6D1C28786E2858
:104DF0001ED00CDC632830D004DC00288BD058286F
:104E000011D19FE0642867D069280CD164E0732831
:104E10002DD004DC6F2872D0702804D194E075285E
:104E20006ED078286DD0DDE90F129047761C4BE1EB
:104E3000C4F30250022806D0032809D0042801CF69
:104E400009D0066040E101CFF117C0E900613BE104
:104E500001CF068038E1067036E117F8040B8DF8B3
:104E6000000000208DF80100EB46012003E057F818
:104E700004BB4FF0FF3061074FF0000102D40DE09A
:104E800008F10101884649450FDA8045F8DB1BF837
:104E900008100029F4D108E008F101018846814298
:104EA000FADB1BF808100029F6D1DDE90F23AAEB85
:104EB00008008146214600F031F9304400EB080635
:104EC00004E0DDE90F121BF8010B9047B8F101086F
:104ED000F7D221464846F2E00A21C4F302524FF0CD
:104EE000000B0891022A04D001CFC117032A09D070
:104EF0000AE0FF1D27F00707F7E8020108E02CE0B1
:104F00001EE01FE000B2C117042A01D140B2C11750
:104F1000021E71F1000206DA0023D0EB030063EBFE
:104F200001012D2202E0220504D52B228DF8242038
:104F3000012203E0E20701D02022F7E7904653E088
:104F40000A210BE0102109E010214FF0000B44F082
:104F500004044FF00809089103E008214FF0000B0A
:104F60000891C4F30252022A04D001CF0021032A7F
:104F700006D006E0FF1D27F00707F7E8020103E06F
:104F800080B2042A00D1C0B24FF0000822072BD50E
:104F90002A78702A07D0DDF820C08CF0100C5CEA6B
:104FA0000B0C05D00EE040228DF82420012208E0F1
:104FB00050EA010306D030238DF824308DF82520E7
:104FC00002229046089B83F0080353EA0B030BD19F
:104FD00050EA010201D1620706D530228DF8242063
:104FE0004FF00108A9F101092A78582A04D038A203
:104FF0000B9208AA0A920BE03AA2F9E75B46089ADC
:10500000FBF7E0F80B9B9B5C0A9A521E0A92137006
:1050100050EA0102F2D10A98ADEB000000F1200B3A
:10502000600702D524F4803401E04FF00109D9452E
:1050300002DDA9EB0B0000E0002000EB0B01414476
:105040000890AAEB010AE00306D4DDE90F2321460C
:10505000504600F063F806444FF0000908E009A943
:1050600011F80900DDE90F12904709F10109761CDA
:10507000C145F4DBE0030CD5DDE90F2321465046A2
:1050800000F04CF8064404E0DDE90F1230209047B0
:10509000761C0899481E08900029F5DC08E00A985B
:1050A0000A990078491C0A91DDE90F129047761C95
:1050B000BBF10001ABF1010BF1DC21465046DDE90B
:1050C0000F2300F019F806446D1C21E609280100A1
:1050D000303132333435363738396162636465666E
:1050E0000000000030313233343536373839414230
:1050F00043444546000000002DE9F04104460025E8
:105100001E461746880404D405E039462020B047DF
:105110006D1C641EF9D52846BDE8F0812DE9F041EB
:10512000044600251E469046C80301D5302700E0FE
:105130002027880404D505E041463846B0476D1C59
:10514000641EF9D52846BDE8F081000070B51F4CFB
:105150001F494FF440352068884229D11DA0FFF730
:1051600099FD1A4923A02031FFF794FD27A0E1689B
:10517000FFF790FD2CA02169FFF78CFD31A061693C
:10518000FFF788FD36A0A169FFF784FD3AA06168AA
:10519000FFF780FD2069A0F10061B1F5801F03D306
:1051A000A0F10050A84201D2012070BD38A008E053
:1051B000A0F10050A84203D23BA0FFF76BFDF3E73C
:1051C00046A0FFF767FD002070BD00000000020848
:1051D0005619052756616C696420552D426F6F740E
:1051E0002068656164657220666F756E643A0D0AA9
:1051F000000000002020496D616765206E616D65CB
:105200003A20252E3332730D0A0000002020496D0C
:105210006167652073697A653A20256C752062792B
:105220007465730D0A00000020204C6F61642061DA
:105230006464726573733A2030782530386C580D89
:105240000A0000002020456E74727920706F696E2C
:10525000743A2030782530386C580D0A0000000070
:10526000202044617461204352433A203078253035
:10527000386C580D0A000000202048656164657292
:10528000204352433A2030782530386C580D0A00BC
:10529000496E76616C6964206C6F6164206164643E
:1052A000726573730D0A00004E6F20552D426F6FAB
:1052B00074206865616465722C2076616C69642075
:1052C00061707020737461636B20706F696E7465B8
:1052D0007220666F756E640D0A0000004E6F2076B6
:1052E000616C6964206170706C69636174696F6E70
:1052F00020666F756E640D0A0000000010B504464C
:105300000020E070401E2063204600F0F9FB08B149
:10531000042010BD04F2322000F0BBFBA0F52A41AE
:10532000553901D0032010BD94F83400E92805D088
:10533000EB2814D194F83600902810D104F16A00BB
:1053400000F09CFB0749B1EB002F06D004F186006A
:1053500000F094FB0449884201D1002010BD0220D6
:1053600010BD0000004641544641543330B5002181
:10537000054B0C4603EB01121568854200D1146001
:10538000491C0229F6D330BD1C09002070B5094C18
:1053900005460020615D00290AD104EB85016019F2
:1053A0004968007A09688847002801D101216155C0
:1053B00070BD00003C09002030B4054D2C1805EBF1
:1053C0008000247A406885682046AC4630BC60473F
:1053D0003C090020044A111802EB8000097A406859
:1053E00042680846104700003C09002030B4054DD3
:1053F0002C1805EB8000247A4068C5682046AC462E
:1054000030BC60473C0900200648016841F08071CB
:105410000160054800214160016841F0010101601F
:1054200070470000FCED00E0001000E02DE9F747B8
:1054300087B014468A460022694607A800F08CF817
:105440005FEA000958D1009820600098D0E905175C
:10545000BA1E914202D8CAF800104DE001784FF010
:105460000008012901D0466A19E002240190214672
:1054700001A800F0ABF9411C03D0012803D028B1EA
:1054800006E0012000E0022081462CE008F101083E
:105490000098641C80698442E9D324E05DB93146F8
:1054A000761C009800F02CFB5FEA00091BD1009CE1
:1054B0004FF400753434009800780228204604D058
:1054C00000F0DCFA000108D009E000F0E2FA08B9C7
:1054D00008F10108A41CAD1E03E008F10108241D19
:1054E0002D1F7F1EDAD1CAF800800098C0F8148002
:1054F000017941F0010101710AB04846BDE8F08729
:105500002DE9F74181B0904602980090684600F07E
:10551000BCF9040003D50B2004B0BDE8F0810D4EAA
:10552000002756F824501DB12846FFF71FFF2F70A3
:105530000198002800D0077046F8240002D0B8F186
:10554000010F01D00020E7E7002201A902A800F026
:1055500003F8E1E73C0000202DE9FF4100279046D9
:105560000E460F6000F091F9050003D50B2004B042
:10557000BDE8F0818A4850F825409CB1346020781D
:1055800008F0FE0620B16078FFF724FFC1070BD0BA
:105590002770E8B2B8466070FFF7F8FEC10708D080
:1055A0000320E4E70C20E2E70EB1400704D400201A
:1055B000DDE71EB1400701D50A20D8E700263146B5
:1055C0002046FFF79BFE022822D100254FEA0D0757
:1055D00004EB051090F8F61100F5F97019B10830D8
:1055E00000F04CFA00E0002047F825006D1C042D67
:1055F000EED3002557F8256036B131462046FFF737
:105600007DFE022801D203E003206D1C042DF1D39E
:10561000042809D002286DD204F13F0000F039FAC5
:10562000B0F5007F66D101E00120A0E704F14A0057
:1056300000F02FFA18B904F1580000F01FFAE061E9
:1056400094F84450A570012D01D0022D52D145434C
:1056500094F841006081E8B3411E08424AD104F148
:10566000450000F016FA2081000743D104F14700FD
:1056700000F00FFA070004D104F1540000F0FEF925
:10568000074604F1420000F004FA010032D02389F9
:10569000481900EB131297422CD3B81A6789B0FB54
:1056A000F7F0B8B103274FF6F57C604500D8022724
:1056B00040F6F57C604500D80127801C3244E26248
:1056C0003144A061C4E90861032F15D013B1294406
:1056D000A16200E00EE0022F1FD000F0010100EBFC
:1056E000400001EB500000BFE16900F2FF10B1EB98
:1056F000502F14D20D203AE704F15E0000F0C9F9F2
:105700000028F7D120890028F4D104F1600000F0CE
:10571000B5F9A062A0698000E6E74000E4E74FF039
:10572000FF306061206180202071032F2CD104F1B3
:10573000640000F0AEF9012826D1711C204600F06B
:10574000DFF908BB84F8048004F2322000F0A1F9EC
:10575000A0F52A41553917D104F1340000F08EF933
:105760001049884210D104F5067000F087F90E49FF
:10577000884209D104F5077000F080F9606104F5F2
:10578000087000F07BF9206105492770091F08881F
:10579000401C0880E0802046FFF7E8FD07E7000096
:1057A0003C000020525261417272416138B504469A
:1057B0008DF800004FF47A73012269460248FDF724
:1057C00054FA204638BD0000F00100202DE9F041D8
:1057D00004680D4602290BD3A069A84208D9207895
:1057E0004FF0FF36012807D002282BD0032839D0EC
:1057F00001263046BDE8F081606A05EB550700EBF5
:105800005721204600F07CF90028F2D1C7F30800A8
:1058100020447F1C90F83480606A00EB57212046BA
:1058200000F06EF90028E4D1C7F30800204490F896
:10583000341048EA0120E90701D00609D9E7C0F38E
:105840000B06D6E7606A00EB1521204600F058F9F8
:105850000028CED1E8B204EB4000343000F019F952
:105860000646C6E7606A00EBD511204600F048F90D
:105870000028BED140F2FF1000EA850020443430F9
:1058800000F0FCF820F07046B3E710B504464FF086
:10589000FF302268002A13D0114600E0491C0B7823
:1058A000202B0ED33A2BF9D112F8013B303B0A2BB7
:1058B00006D28A4204D1002B02D1491C184621602D
:1058C00010BD002010BD000070B5294C29492A4E9A
:1058D0002068884234D1294D29A0FFF7DBF92069DF
:1058E000A0F10050B0F5403F18D22CA0FFF7D2F93C
:1058F000216932A0091DFFF7CDF9D4E9032029461B
:10590000FAF791FC20693060BFF34F8FBFF36F8FC0
:105910002069016881F3088844681DE032A0FFF720
:10592000B9F921693BA0091DFFF7B4F93560BFF350
:105930004F8FBFF36F8F286880F308886C680BE087
:1059400040A0FFF7A7F93460BFF34F8FBFF36F8F0D
:10595000206880F30888646872B64748016821F0BF
:1059600080510160FBF7F0FDA446BDE87040604740
:10597000000002085619052708ED00E000010208A2
:10598000552D426F6F74206865616465722064658F
:105990007465637465640D0A000000004C6F6164F7
:1059A000696E67206170706C69636174696F6E20E5
:1059B000746F2052414D2E2E2E0D0A004A756D70C7
:1059C000696E6720746F206170706C6963617469BF
:1059D0006F6E20696E2052414D2061742030782511
:1059E00030386C580D0A0000457865637574696E2F
:1059F00067206170706C69636174696F6E2064699F
:105A0000726563746C792066726F6D20466C617389
:105A1000680D0A004A756D70696E6720746F2061A9
:105A200070706C69636174696F6E20696E20464C9A
:105A30004153482061742030782530386C580D0A65
:105A4000000000004E6F20552D426F6F7420686576
:105A5000616465722C207573696E67206465666188
:105A6000756C7420626F6F742070726F63656475FB
:105A700072650D0A0000000040380240C17882784B
:105A800042EA01214278007842EA012140EA0120FD
:105A900070474178007840EA01207047FBF778FBB7
:105AA000FEF76AFCFDF792F9FDF764F9FDF75AFA83
:105AB000FDF74EF9FDF720FAFDF7CEF9FDF778F97D
:105AC000FDF70AFAFFF7A0FC06A0FFF7E3F8FAF7E4
:105AD00097FDFAF767FC0948FCF74AFD00F02AF841
