:020000040800F2
:1000000070090020A1010008D71F0008391A000854
:10001000D51F0008D1020008A72700080000000033
:10002000000000000000000000000000992000080F
:100030005103000800000000D91F0008CD2300086C
:10004000BB010008BB010008BB010008BB010008A0
:10005000BB010008BB010008BB010008BB01000890
:10006000BB010008BB010008BB010008BB01000880
:10007000BB010008BB010008BB010008BB01000870
:10008000BB010008BB010008BB010008BB01000860
:10009000BB010008BB010008BB010008BB01000850
:1000A000BB01000875240008BB010008BB01000863
:1000B000BB010008BB010008BB010008BB01000830
:1000C000BB010008BB010008BB010008BB01000820
:1000D000BB010008BB010008BB010008BB01000810
:1000E000BB010008BB010008BB010008BB01000800
:1000F000BB010008BB010008BB010008BB010008F0
:10010000BB010008BB010008BB010008BB010008DF
:10011000BB010008BB010008BB010008BB010008CF
:10012000BB010008BB010008BB010008BB010008BF
:10013000BB010008BB010008BB010008BB010008AF
:10014000BB010008BB010008BB010008BB0100089F
:10015000BB010008BB010008BB010008BB0100088F
:10016000BB010008BB010008BB010008BB0100087F
:10017000BB010008BB010008BB0100080000000033
:10018000BB010008BB010008DFF810D000F08EF8BA
:1001900000480047B92C0008AFF300807009002028
:1001A0000648804706480047FEE7FEE7FEE7FEE711
:1001B000FEE7FEE7FEE7FEE7FEE7FEE76524000850
:1001C000890100082DE9F05F0546002092469B4614
:1001D00088460646814640241BE02846414647465D
:1001E000224600F053F853465A46C01A914110D3A4
:1001F00011461846224600F03AF82D1A67EB01081E
:100200004F4622460120002100F031F817EB00098B
:100210004E41201EA4F10104DFDC484631462A4647
:100220004346BDE8F09F40EA01039B0703D009E085
:1002300008C9121F08C0042AFAD203E011F8013BD2
:1002400000F8013B521EF9D27047D2B201E000F82B
:10025000012B491EFBD270470022F6E710B513466A
:100260000A4604461946FFF7F0FF204610BD202A33
:1002700004DB203A00FA02F1002070479140C2F1FD
:10028000200320FA03F3194390407047202A04DB2F
:10029000203A21FA02F00021704721FA02F3D040FF
:1002A000C2F120029140084319467047064C074DA1
:1002B00006E0E06840F0010394E807009847103436
:1002C000AC42F6D3FFF764FFBC2F0008DC2F000818
:1002D000FEE7000030B504460020651804E000BFCA
:1002E00014F8011B02F04FFAAC42F9D3002102F0DE
:1002F0004AFABDE83040002102F045BA70B5262226
:1003000011491248FFF78FFF0F4CE08C0F4DE88426
:10031000A06AA862A08DA885E08DE885206B28637F
:10032000606B6863092204F1380105F13800FFF7BA
:100330007AFF94F8410085F8410094F8420085F86E
:100340004200606C686470BD78000020E00000200E
:10035000704772B6FEE70000002229B101291AD0C9
:1003600002291BD04FF440720E490B6823F44073EE
:100370000B600B6813430B600A6822F078020A6076
:100380000A68022303EBC00002430A60086840F4D5
:100390008030086070474FF48072E5E74FF40072D8
:1003A000E2E70000103C02401348016889050FD5C0
:1003B000016821F400710160016841F4006101608D
:1003C000016821F400610160016841F4007101607D
:1003D000016849050FD5016821F480610160016859
:1003E00041F480510160016821F48051016001688D
:1003F00041F4806101607047003C024000B587B065
:1004000000F02AF8094800F02DF902900A20039024
:10041000002102200091049005A9684600F0B8F977
:10042000002800D0012007B000BD00000000020835
:1004300010B588B040F6FF7400F0E4FA684600F0AA
:10044000F3F900F077FA0298844302D0022008B052
:1004500010BD0020FBE7000010B500F0D3FA024900
:10046000F320086010BD00000C3C02402DE9F04173
:1004700016468846054600240D4F13E058F8242000
:1004800000232946022000F07FFA10B10320BDE8C6
:10049000F08158F824002968814201D00220F6E753
:1004A000641C2D1DB44201D2BD42E7D90020EEE705
:1004B000FBFF0F0830B58FB0044640F6FF7507A864
:1004C00000F0B2F90120CDE90004AA200490099CB3
:1004D0009DF834008DF818002C4300F093FA00F0DA
:1004E0003FFA6846029400F0BFF90FB030BD00003B
:1004F00008490A6822F440720A600A6842F004025D
:100500000A600A684FF4803343EA002002430A601D
:1005100070470000103C0240064A136823F4407301
:10052000136013681360136843F0010313600170D4
:1005300070470000103C0240094910B50C6824F4D3
:1005400040740C600C6844F440740C600C6844F017
:1005500001040C600260BFF36F8F436010BD0000A8
:10056000103C0240074A136823F440731360136879
:1005700043F480731360136843F001031360018038
:1005800070470000103C0240074A136823F4407390
:100590001360136843F400731360136843F001039E
:1005A0001360016070470000103C02401749086862
:1005B000C206174805D5C26942F01002C261102276
:1005C0000A600A68920605D5C26942F00802C26153
:1005D00020220A600A68520605D5C26942F0040268
:1005E000C26140220A600A68120605D5C26942F05B
:1005F0000202C26180220A600A68920705D5C269B8
:1006000042F02002C2610220086070470C3C0240A8
:10061000C000002070B5114904460020C86100F0F8
:1006200005FB06460E4D09E0601C07D024B100F022
:10063000FDFA801BA04201D9032070BD2868C003C9
:10064000F2D42868C00701D001202860286810F083
:10065000F200F2D0FFF7AAFF012070BDC000002019
:100660000C3C02400021A0F100634FF48042934211
:100670003FD321490144914201D2012139E01F4970
:100680000144914201D2022133E01D4901449142CB
:1006900001D203212DE01B490144B1F5803F01D275
:1006A000042126E0184942184FF400318A4201D251
:1006B00005211EE0154A02448A4201D2062118E0B3
:1006C000134A02448A4201D2072112E0114A02442D
:1006D0008A4201D208210CE00F4A02448A4201D228
:1006E000092106E00D4A1044884201D20A2100E0A7
:1006F0000B2108467047000000C0FFF70080FFF79D
:100700000040FFF70000FFF70000FEF70000FCF7D5
:100710000000FAF70000F8F70000F6F70000F4F721
:1007200010B5040002D0607910B106E0012010BDC0
:1007300000202071204600F005F8012060710020A3
:1007400010BD000008B500680649884208D1064877
:10075000016841F480510160006800F4805000900D
:1007600008BD0000003002403038024070B5044639
:1007700000F05CFA0546601C02D00448007804448E
:1007800000F054FA401BA042FAD370BD0C000020C8
:100790002DE9F047044622480F46017E01290AD080
:1007A0000121804601764CF250394846FFF732FF6E
:1007B000020003D02FE00220BDE8F0874FF0FF30A9
:1007C00038602068174D012801D0A6681CE0207C05
:1007D0006168FFF78DFE4846FFF71CFF0246286858
:1007E00020F00400286014E0217C3046FFF7B4FDBF
:1007F0004846FFF70FFF0200286820F07A002860C3
:1008000001D03E6005E0761CD4E902100844B042F5
:10081000EAD8FFF7C9FD002188F818101046CBE789
:10082000C0000020103C02400F2101600D490988E2
:1008300081600C4AAA21521E1378CC2B0FD012785B
:10084000AA2A00D0552101610649891E0A6802F0D2
:10085000E0020276097801F00C0141617047CC2179
:10086000F1E70000163C02402DE9F0472E4904460E
:1008700001200A7E012A11D0012288460A762178B9
:100880004CF2503AC90715D06068284D0128A66877
:10089000504606D0FFF7BEFE48B10BE00220BDE88F
:1008A000F087FFF7B7FE28B92988B14301E029880E
:1008B000314329802178890707D5257C5046FFF7E9
:1008C000A9FE10B91949491E0D702178DFF8609012
:1008D000490713D5207E00F0200700F0400500F006
:1008E00080065046FFF796FE40B999F8002002F0C6
:1008F0001F02154335433D4389F8005021784FF0DE
:10090000000209070CD5207D99F8003023F00C0374
:1009100089F8003099F80030034389F80030104618
:1009200088F81820BBE70000C0000020163C0240F9
:10093000143C02400348016841F00041016000207E
:1009400070470000103C02400448017841F0020169
:1009500001704CF25030FFF75DBE0000143C0240C5
:1009600006480068C00707D0044805490C380160F4
:10097000044901600020704701207047143C024088
:100980003B2A19087F6E5D4C2DE9F0471B4E05464A
:100990001446307E1F468946012808D00120307653
:1009A0004CF250384046FFF735FE18B114E00220F3
:1009B000BDE8F0879DB1012D16D0022D19D0224639
:1009C0003B464846FFF7B8FD4046FFF723FE0C497B
:1009D0000A6822F001020A6000213176E8E7E1B2FC
:1009E0004846FFF799FDEFE7A1B24846FFF7BAFD89
:1009F000EAE721464846FFF7C7FDE5E7C0000020CB
:100A0000103C0240074900200A68002A09DA054A1A
:100A1000054B0C3A1360054B13600968002900DA96
:100A200001207047103C024023016745AB89EFCDA0
:100A30002DE9F84FDFF8BCA10022012503264FF075
:100A40000F090AF1040BAAF1040E00BF0B6805FAA6
:100A500002F42340A34270D10F7907F00307012F5E
:100A600001D0022F16D187684FEA420806FA08FC27
:100A700027EA0C07D1F80CC00CFA08FC4CEA070C6A
:100A8000C0F808C04768A7430C79C4F30014944029
:100A90003C4344600C79E443A4070AD0C4684FEA9D
:100AA000420C06FA0CF7BC438F6807FA0CF7274391
:100AB000C7600C7904F00304022C12D1D40800EBB7
:100AC000840CDCF820405707FF0E09FA07F824EAE7
:100AD0000804D1F8108008FA07F848EA0408CCF8AE
:100AE000208004684FEA420C06FA0CF7BC430F79E9
:100AF00007F0030707FA0CF7274307604C6814F464
:100B0000403F70D03C4C276847F4804727602468FA
:100B100022F0030704F480440094384C07EB040CE3
:100B2000DCF8084897074FEA177809FA08F7BC433A
:100B3000334FB84202D1002724E054E0314FB8428D
:100B400001D101271EE0304FB84201D1022719E040
:100B50002E4FB84201D1032714E02D4FB84201D1E6
:100B600004270FE02B4FB84201D105270AE02A4F96
:100B7000B84201D1062705E0284FB84201D1072726
:100B800000E0082707FA08F72743CCF80878DAF8D6
:100B900000405746D1F804C09C435FEACC2C00D5F6
:100BA0001C433C60DBF800405F46D1F804C09C4326
:100BB0005FEA8C2C00D51C433C60DEF80040774691
:100BC000D1F804C09C435FEA8C3C00D51C433C60D8
:100BD000084F083F3C68D1F804C09C435FEACC3C16
:100BE00000D51C433C60521C102AFFF42FAFBDE817
:100BF000F88F0000083C01404438024000300140BA
:100C0000000002400004024000080240000C0240C4
:100C1000001002400014024000180240001C024074
:100C20000AB1816170470904FBE700000148806850
:100C3000704700000C0000200248816802781144CF
:100C4000816070470C0000200B4810B5016841F42A
:100C500000710160016841F480610160016841F444
:100C600080710160032000F06FF80F2000F006F89B
:100C700000F024F8002010BD003C024070B50D4D7E
:100C800004464FF47A712878B1FBF0F00A490968FC
:100C9000B1FBF0F000F0A4FB48B9102C07D2002201
:100CA0002146501E00F030F800206C6070BD01201D
:100CB00070BD00000C000020180000200A4808B594
:100CC000016841F480410160006800F480400090B8
:100CD0000548001F016841F080510160006800F084
:100CE0008050009008BD000044380240002809DB15
:100CF00000F01F02012191404009800000F1E02036
:100D0000C0F8001170470000F0B40E4B1B680C4691
:100D1000C3F30223C3F10705042D00D90425191DCF
:100D2000072901D2002300E0DB1E012606FA05F1A7
:100D3000491E214099409E40761E16403143F0BC2A
:100D400001F068BF0CED00E0064900F007020868FA
:100D50004FF6FF03184040EA0220034A10430860A0
:100D6000704700000CED00E00000FA052DE9F047A7
:100D70000E46050065D0DFF81481D8F80000F7B200
:100D800000F00700B04207D288F80070D8F80000E1
:100D900000F00700B04254D128683D4C810712D5BD
:100DA000400703D5206840F4E05020602878000711
:100DB00003D5206840F4604020602068A96820F0D6
:100DC000F000084320602878C0072DD030496868BB
:100DD0000839012812D0022813D0032811D009683D
:100DE000890700292DDA216821F0030101432160E0
:100DF000FFF71CFF814641F2883A0EE0096889033B
:100E0000EFE709688901ECE7FFF710FFA0EB0901A4
:100E1000514502D90320BDE8F0872068696800F0D9
:100E20000C00B0EB810FEFD1D8F80010404601F074
:100E30000701B14207D90770006800F00700B0420F
:100E400001D00120E7E72878400705D52068E96848
:100E500020F4E050084320602878000706D5206879
:100E6000296920F4604040EAC100206000F0D2F817
:100E70002168084AC1F30311515CC8400649086063
:100E800006480068FFF7FAFE0020C4E7003C024075
:100E900008380240D42D000818000020100000205F
:100EA0002DE9F041FFF7C2FE444C0546206840F0B2
:100EB0000100206005E000BFFFF7B8FE401B0228DC
:100EC00047D820688007F7D5206840F08000206070
:100ED000FFF7ACFE0546394E00200836306041F27F
:100EE000883704E0FFF7A2FE401BB84231D83068D3
:100EF00010F00C0FF6D1FFF799FE0546206820F49C
:100F00005020206005E000BFFFF790FE401B6428E2
:100F10001FD820688003F7D4FFF788FE05462068B5
:100F200020F08070206004E0FFF780FE401B022864
:100F30000FD820688001F7D4FFF778FE05462068B7
:100F400020F08060206007E0FFF770FE401B022861
:100F500002D90320BDE8F08120680001F4D41749CC
:100F60001748091D08601549164884310860134860
:100F70000C30016821F4F8510160016821F400513E
:100F80000160016841F41F010160016841F4001132
:100F900001600A487430016821F0010101600168B4
:100FA00041F08071016009490748086008480068FD
:100FB000FFF764FE0028CDD00120CBE700380240C7
:100FC00010300004003000200024F400180000203D
:100FD000100000200448054900680968044AC1F36C
:100FE0008221515CC8407047180000200838024038
:100FF000E42D00080448054900680968044AC1F363
:101000004231515CC8407047180000200838024047
:10101000E42D0008154810B5006810F00C021448C3
:1010200013D04110042A0FD0082A0ED10F4C241FD0
:101030002268236802F03F025B0207D52068C0F3F4
:101040008810A0FB010106E0084610BD2168C1F32D
:101050008811A1FB00010023FFF7B4F82168C1F358
:101060000141491C4900B0FBF1F010BD08380240B5
:101070000024F4002DE9F84F04006ED02078DFF84A
:101080004C93C007A9F104054AD009F10400016896
:10109000C1F38101012908D00068C0F38100022852
:1010A0000AD1D9F80000400206D52868800337D558
:1010B00060680028E1D033E06068B0F5803F10D070
:1010C000B0F5A02F286810D020F480302860286860
:1010D00020F4802028606068A8B1FFF7A7FD0646CD
:1010E0000DE0286840F48030F4E740F48020286068
:1010F000F7E700BFFFF79AFD801B642873D82868C4
:101100008003F7D50CE0FFF791FD064605E000BF30
:10111000FFF78CFD801B6428F0D828688003F7D483
:101120002078DFF8AC8280074FF0000A3ED5A74850
:10113000001D016811F00C0F08D00068C0F3810099
:1011400002280BD1D9F80000400207D42868800794
:1011500016D5E068012800D112E033E1E068B8B1AB
:101160000120C8F80000FFF761FD064605E000BF5A
:10117000FFF75CFD801B0228C0D828688007F7D5E0
:101180002868216920F0F80040EAC10028600DE0DD
:10119000C8F800A0FFF74AFD064604E0FFF746FD49
:1011A000801B02281FD828688007F7D42078000702
:1011B00022D5864F87486169703771B1012101607E
:1011C000FFF734FD064604E0FFF730FD801B0228E0
:1011D00009D838688007F7D50EE0C0F800A0FFF7FF
:1011E00025FD064605E082E0FFF720FD801B022872
:1011F0007DD838688007F7D42078400768D5DFF8B5
:10120000CCB100270BF13C0BDBF80000C0000BD485
:10121000DBF8001041F08051CBF80010DBF8000043
:10122000012700F0805000906B4E3068C00510D44C
:10123000306840F480703060FFF7F8FC009005E003
:10124000FFF7F4FC0099401A022850D83068C00516
:10125000F6D55E4EA0686C3601280FD005283068A0
:1012600010D020F001003060306820F004003060C1
:10127000A068B8B1FFF7DAFC00900FE0306840F0EA
:101280000100F4E740F004003060F7E7FFF7CEFC20
:101290000099411A41F28830814266D8306880074F
:1012A000F4D50EE0FFF7C2FC009007E0FFF7BEFCAC
:1012B0000099411A41F28830814256D8306880073F
:1012C000F4D42FB1DBF8001021F08051CBF80010DE
:1012D000A069C8B33D49091D0968C1F3810102290C
:1012E0004AD00228504607D0C8F8600000E03CE031
:1012F000FFF79CFC04463BE04746C8F86000FFF758
:1013000095FC064605E000BFFFF790FC801B022815
:101310002BD828688001F7D4D4E907010843A16AD3
:101320002E4A490802EB0141626A41EA82110843F0
:1013300094F82C1040EA0161C9F8001001203866C9
:10134000FFF774FC044606E03EE000BFFFF76EFCCA
:10135000001B022809D828688001F7D534E000BFB7
:10136000FFF764FC001B022802D90320BDE8F88FB8
:1013700028688001F4D427E00128F7D0D9F80000CC
:10138000E26900F4800191421CD1226A00F03F0121
:10139000914217D147F6C071626A0140B1EB821FDA
:1013A00010D1A26A4FF0FF3300F4403103EB520238
:1013B000B1EB024F06D194F82C1000F07060B0EB46
:1013C000016F01D00120D1E70020CFE704380240AF
:1013D00000004742800E4742007000400000FFFFBF
:1013E00010B5401EB0F1807F01D3012010BD4FF039
:1013F000E02460610F21601701F00CFC0020A06167
:1014000007202061002010BD7047704770B590F82C
:101410003C20012A32D0012480F83C40022280F88E
:101420003D2003685A689D6822F070060A683243BE
:101430005A60134B02689A4214D0B2F1804F11D017
:10144000104B9A420ED0104B9A420BD00F4B9A423F
:1014500008D00F4B9A4205D00E4B9A4202D00E4B49
:101460009A4204D1496825F080031943916080F8BD
:101470003D40002180F83C10084670BD022070BD40
:10148000000001400004004000080040000C004043
:1014900000040140004001400018004010B5040065
:1014A00003D094F83D0010B107E0012010BD0020EA
:1014B00084F83C00204600F01FF8022084F83D002C
:1014C000211D206800F0DCFF012084F8460084F82C
:1014D0003E0084F83F0084F8400084F8410084F81E
:1014E000420084F8430084F8440084F8450084F8FE
:1014F0003D00002010BD000008B500680B4988427F
:1015000012D10B48016841F001010160006800221E
:1015100000F00100009011461920FFF7F5FBBDE82F
:1015200008401920FFF7E2BB08BD000000000140A1
:101530004438024090F83D10012901D00120704745
:10154000022180F83D100168CA6842F00102CA60B9
:1015500000681149884214D0B0F1804F11D00F4972
:1015600088420ED00E4988420BD00E49884208D0DE
:101570000D49884205D00D49884202D00C49884265
:1015800004D1816801F00701062903D0016841F008
:10159000010101600020704700000140000400408C
:1015A00000080040000C00400004014000400140E1
:1015B0000018004070B5044690F83C000025012852
:1015C00017D0012684F83C60022084F83D00206892
:1015D000826822F0770222F47F42826008685028F5
:1015E00038D00DDC20284FD005DC90B3102811D165
:1015F0004AE0022070BD302846D040280AD13BE0A6
:1016000060282FD070280DD0B0F5805F03D0B0F5E2
:10161000005F12D0012584F83D60002084F83C0072
:10162000284670BDCB68D1E90121206800F090FF09
:101630002068816841F0770109E0CB68D1E9012198
:10164000206800F085FF2068816841F48041816056
:10165000E1E719E0CA684968206800F08BFF502173
:10166000206806E0CA684968206800F094FF60219D
:10167000206800F077FFCEE7CA684968206800F06C
:1016800079FF40212068F4E7226801461046F0E720
:1016900070472DE9F04104460068C66805694FF0BF
:1016A0000007A90713D5B10711D5F91E0161012063
:1016B0002077206880698007204602D0FFF7E8FF86
:1016C00004E000F07EF8204600F07CF827776807F9
:1016D00016D5700714D521686FF004000861022048
:1016E00020772068806910F4407F204602D0FFF701
:1016F000CFFF04E000F065F8204600F063F827779C
:10170000280715D5300713D521686FF00800086148
:10171000042020772068C0698007204602D0FFF7A8
:10172000B7FF04E000F04DF8204600F04BF82777B3
:10173000E80616D5F00614D521686FF01000086190
:10174000082020772068C06910F4407F204602D02E
:10175000FFF79EFF04E000F034F8204600F032F876
:101760002777E80708D0F00706D021686FF001005E
:101770000861204600F028F8280608D5300606D56E
:1017800021686FF0800008612046FFF73DFE680683
:1017900008D5700606D521686FF040000861204624
:1017A00000F03AF8A8060AD5B00608D521686FF00F
:1017B000200008612046BDE8F041FFF726BEBDE8E5
:1017C000F0817047704700000068104988421BD1C3
:1017D0000F490868401C08604FF4FA61B0FBF1F251
:1017E00001FB12010B48B1F57A7F09D24FF4FA726E
:1017F000B1FBF2F302FB1311FA2901D2012200E03E
:1018000000220421FFF70CBA7047000000000140DD
:101810000000002000040240704770B5040004D0AE
:1018200094F84100002510B106E0012070BD84F855
:101830004050204600F024F8242084F8410020681D
:10184000C16821F40051C160204600F0DDFE20682F
:10185000016921F4904101612068416921F02A0168
:1018600041612068C16841F40051C1606564202075
:1018700084F8410084F842006563002070BD0000D8
:1018800010B586B0044614216846FEF7E5FC1349FE
:10189000206888421FD112480021026842F40022C9
:1018A0000260006800F4002005900D4810380268BE
:1018B00042F0010202600068022200F0010005907F
:1018C0000320CDE90210CDE900020820049069460A
:1018D0000448FFF7ADF806B010BD0000004C004012
:1018E00040380240000002402DE9F84F044690F8CD
:1018F00042009A4616460D46202802D00220BDE836
:10190000F88FB5B1AEB100206064222184F8421096
:101910002063FFF78BF9A6858146E685A0684FF422
:1019200080582027404501D1206920B12E4600254E
:1019300029E00120E3E7002625E04B460022202194
:101940002046CDF800A000F0E5FE18B184F8427002
:101950000320D4E726B1A06840451AD038B108E08A
:1019600020684068C0F3080025F8020B08E02069F1
:1019700078B12068406800F07F0000BF06F8010BD6
:10198000E08D401EE085E08D0028D6D184F84270BD
:10199000B5E720684068F1E72DE9F843044690F880
:1019A0004100984616460D46202802D00220BDE888
:1019B000F88385B17EB100206064212084F8410065
:1019C000FFF734F9A6848146E684A0682027B0F5A5
:1019D000805F02D003E00120E9E7206910B12E46C4
:1019E00000250EE000260CE08021204600F092FE4B
:1019F000A8B9C6B116F8010B21684860E08C401EFA
:101A0000E084E08C4B464FF00002CDF800800028C7
:101A1000EAD14FF04001204600F07CFE40B184F84E
:101A200041700320C3E735F8020BC0F30800E3E779
:101A300084F841700020BAE7FEE70000F0B500220C
:101A40000D4B154614460A27B1FBF3F63036865483
:101A5000B1FBF3F603FB1611B3FBF7F3521C861828
:101A600016F8016C302E00D125B16D1C641C0A2CB7
:101A7000EAD3F0BD0022F9E700CA9A3B074910B546
:101A8000054808600846FEF74BFE002803D0BDE875
:101A90001040FEF75EBC10BD003002400400002084
:101AA00030B587B014216846FEF7D6FB15480024F0
:101AB000016841F080010160016801F08001059139
:101AC000016841F001010160016801F00101059127
:101AD000016841F00201016000680B4D00F0020056
:101AE0000590002204212846FFF79AF804200121DE
:101AF0008DE81300039169462846FEF799FF07B069
:101B000030BD0000303802400004024010B586B0FD
:101B100000241848009401940294039404941449F6
:101B2000059401605321C0E9011440F2CF71C0E96E
:101B300003148021C0E90541FFF7B0FC08B1FEF7AE
:101B400008FC4FF48050009069460A48FFF732FDC8
:101B500008B1FEF7FEFB049404A906480594FFF7BC
:101B600055FC002801D0FEF7F4FB06B010BD0000C4
:101B700000000140300000200C4810B50A49016007
:101B80004FF4E1314160002181600C22C160C0E965
:101B900004128161C161FFF740FE002803D0BDE857
:101BA0001040FEF7D6BB10BD004C0040780000206E
:101BB00008B500208DF80000434800F09DFB434825
:101BC00000F09AFB424800F097FB424800F094FB7B
:101BD0003F4800F091FB404800F08EFB3A4800F08F
:101BE0008BFB3EA000F088FB3E4D4FF0FF363E4C95
:101BF000FEF71EFC20603DA000F07EFB4BA000F035
:101C00007BFB5AA000F078FB68A000F075FB206811
:101C100008B176A000E085A000F06EFB93A000F074
:101C20006BFB286840683346012269462D48FFF760
:101C30005BFE9DF80000312807D0322808D03328F9
:101C400009D034281CD099A021E000F027FACFE772
:101C500000F0DAFACCE7A5A000F04EFBAC4F7868B4
:101C6000A060606072B6AB48016821F080510160ED
:101C7000FFF716F9386880F3088860688047B7E78F
:101C8000206890B10020FEF715FC18B1A2A000F06A
:101C900033FBADE7ACA000F02FFBB3A000F02CFBB2
:101CA000FEF752FEFEF7AEFEA2E70120FEF702FCB1
:101CB00008B1B5A0EBE7BFA000F01EFBAAA000F0A2
:101CC0001BFBFEF741FE93E7702F0008D82E00089B
:101CD000402E0008242F00088C2E00080D0A0D0A43
:101CE00000000000E00000201C0000200D0A3D3D27
:101CF0003D3D3D3D3D3D3D3D3D3D3D3D3D3D3D3D14
:101D00003D204D61696E204D656E75203D3D3D3D28
:101D10003D3D3D3D3D3D3D3D3D3D3D3D3D3D3D3DF3
:101D20003D3D3D3D3D3D3D3D0D0A0A002020446FB7
:101D3000776E6C6F616420696D61676520746F20D8
:101D400074686520696E7465726E616C20466C61A2
:101D50007368202D2D2D2D2D2D2D2D2D2D2D2D2D3F
:101D60002D2D2D2D20310D0A0A0000002020557048
:101D70006C6F616420696D6167652066726F6D20AC
:101D800074686520696E7465726E616C20466C6162
:101D90007368202D2D2D2D2D2D2D2D2D2D2D2D2DFF
:101DA0002D2D2D2D20320D0A0A000000202045780F
:101DB000656375746520746865206C6F6164656423
:101DC000206170706C69636174696F6E202D2D2DB8
:101DD0002D2D2D2D2D2D2D2D2D2D2D2D2D2D2D2D33
:101DE0002D2D2D2D20330D0A0A00000020204469DE
:101DF0007361626C65207468652077726974652010
:101E000070726F74656374696F6E202D2D2D2D2D8A
:101E10002D2D2D2D2D2D2D2D2D2D2D2D2D2D2D2DF2
:101E20002D2D2D2D20340D0A0A0000002020456E96
:101E300061626C65207468652077726974652070D2
:101E4000726F74656374696F6E202D2D2D2D2D2D8D
:101E50002D2D2D2D2D2D2D2D2D2D2D2D2D2D2D2DB2
:101E60002D2D2D2D20340D0A0A0000003D3D3D3D55
:101E70003D3D3D3D3D3D3D3D3D3D3D3D3D3D3D3D92
:101E80003D3D3D3D3D3D3D3D3D3D3D3D3D3D3D3D82
:101E90003D3D3D3D3D3D3D3D3D3D3D3D3D3D3D3D72
:101EA0003D3D3D3D3D3D0D0A0A000000496E766115
:101EB0006C6964204E756D6265722021203D3D3E47
:101EC00020546865206E756D6265722073686F7549
:101ED0006C642062652065697468657220312C200D
:101EE000322C2033206F7220340D00005374617245
:101EF000742070726F6772616D20657865637574A8
:101F0000696F6E2E2E2E2E2E2E0D0A0A0000000056
:101F100000000208403802404572726F723A204653
:101F20006C61736820777269746520756E2D7072AC
:101F30006F74656374696F6E206661696C65642E89
:101F40002E2E0D0A00000000577269746520507231
:101F50006F74656374696F6E2064697361626C6528
:101F6000642E2E2E0D0A000053797374656D207750
:101F7000696C6C206E6F7720726573746172742E59
:101F80002E2E0D0A000000004572726F723A204634
:101F90006C6173682077726974652070726F746504
:101FA0006374696F6E206661696C65642E2E2E0DF8
:101FB0000A00000057726974652050726F7465637F
:101FC00074696F6E20656E61626C65642E2E2E0DD5
:101FD0000A000000FEE7FEE7704700002DE9F84325
:101FE00000240F460646904613460C6001226946BF
:101FF0002848FFF779FC050020D19DF8000018283B
:1020000020D006DC01280BD002280BD0042804D1F4
:1020100004E0412827D0612825D0012530700DE04B
:10202000802401E04FF480643070221D4346B11CCF
:102030001848FFF759FC050017D0002428463C60DB
:10204000BDE8F8834346012269461248FFF74CFC7D
:1020500018B99DF80000182803D001259DF800004C
:10206000DCE70224DAE70225D8E7F178B07881F0DE
:10207000FF0188420AD130190179407900EB01282B
:102080002146301DFEF726F94045D7D00024012512
:10209000D4E70000E0000020704700001FB50020DA
:1020A000009001900290039015A000F025F903A87C
:1020B00000F07AFB38B105281AD004281CD0022879
:1020C0001CD01EA015E0254800F016F9244800F0A9
:1020D00013F968460399FFF7B1FC22A000F00CF950
:1020E000684600F009F922A000F006F923A000E0FC
:1020F00028A000F001F91FBD36A0FAE73CA0F8E7E0
:1021000057616974696E6720666F72207468652014
:1021100066696C6520746F2062652073656E74203B
:102120002E2E2E202870726573732027612720744D
:102130006F2061626F7274290A0D00000A0D4661FA
:10214000696C656420746F207265636569766520CB
:102150007468652066696C65210A0D00EC2D000825
:10216000280100200A0D2053697A653A20000000FA
:102170002042797465730D0A000000002D2D2D2D6D
:102180002D2D2D2D2D2D2D2D2D2D2D2D2D2D2D0AA2
:10219000000000000A0A0D54686520696D616765DA
:1021A0002073697A652069732068696768657220A1
:1021B0007468616E2074686520616C6C6F7765640B
:1021C000207370616365206D656D6F7279210A0DF2
:1021D000000000000A0A0D56657269666963617441
:1021E000696F6E206661696C6564210A0D000000EC
:1021F0000D0A0A41626F72746564206279207573FA
:1022000065722E0A0D00000008B500208DF8000050
:102210000EA000F071F84FF0FF330122694612481A
:10222000FFF762FB9DF8000043280DD14FF46022B8
:102230000EA1144800F082FB8DF8000008B112A036
:1022400000E01CA000F058F808BD00000A0A0D5379
:10225000656C6563742052656365697665204669BF
:102260006C650A0D00000000E000002055706C6FE6
:1022700061646564466C617368496D6167652E626F
:10228000696E0000000002080A0D4572726F72202C
:102290004F63637572726564207768696C6520545A
:1022A00072616E736D697474696E672046696C65DE
:1022B0000A0D00000A0D46696C652075706C6F612F
:1022C000646564207375636365737366756C6C799C
:1022D000200A0D0001B5074890F84110A02902D14D
:1022E000202180F841106423012269460148FFF74C
:1022F00053FB08BDE0000020002201E0521C92B216
:10230000815C0029FAD1014664230148FFF744BBF0
:10231000E0000020F0B5054600242A782046234638
:10232000302A2ED16A78782A01D0582A29D102245D
:102330001CE000BFA2F14106052E07D9A2F16107FA
:10234000052F03D91136092E04D913E0A2F1300765
:10235000092F01D8303A04E0052E01D8373A00E0C1
:10236000573A641C02EB03130B2C04D22A5D002A9B
:10237000E0D103E000202A5D002A01D101200B609A
:10238000F0BD2A5D62B16B2A01D04B2A02D10CB19B
:102390009B0205E06D2A01D04D2A04D11CB11B051A
:1023A00001200B600AE0A2F13006092E0CD803EBE5
:1023B00083036FF02F0606EB43031344641C0B2CBE
:1023C000DED20128DDD1F0BD0020F0BDFEF734BC27
:1023D00030B593B030216846FDF73EFF14210CA8BC
:1023E000FDF73AFF1D480025016841F0805101606A
:1023F000006800F0805011901948016841F4804154
:1024000001600068022400F48040119001200090D7
:10241000000401908001CDE9064008AA0420A8210B
:1024200082E813000B906846FEF724FE08B172B6EE
:10243000FEE70CA90F2081E831004FF4A0500F9067
:102440004FF48050109005210CA8FEF78FFC002857
:1024500001D072B6FEE713B030BD00004038024034
:10246000007000400248016841F47001016070474B
:1024700088ED00E00148FFF70CB9000030000020B3
:10248000F0B50268274B284D284E294F294C4FF0B4
:10249000804C984209D0604507D0A84205D0B04290
:1024A00003D0B84201D0A04204D122F0700E4A6895
:1024B00042EA0E0298421BD0604519D0A84217D0BC
:1024C000B04215D0B84213D0A04211D01A4DA84244
:1024D0000ED01A4DA8420BD0194DA84208D0194D64
:1024E000A84205D0184DA84202D0184DA84203D1E9
:1024F00022F44075CA682A434D6922F080022A43BB
:102500008D68C5620D688562984201D0A04201D1F4
:1025100009690163016841F0040101600121416121
:102520000260F0BD000001400004004000080040CF
:10253000000C004000040140004001400044014004
:102540000048014000180040001C004000200040EE
:1025500010B5846842EA032224F47F440A432243EC
:10256000826010BD826822F070020A4342F00701C7
:102570008160704710B5036A046A24F001040462A4
:10258000846924F0F00444EA021423F00A020A43A6
:102590008461026210BD10B5036A046A24F010045D
:1025A0000462846923F0A00324F4704444EA0232F4
:1025B00043EA01118261016210BD01680C3151E8EA
:1025C000002F22F4907241E80023002BF5D101681E
:1025D000143151E8002F22F0010241E80023002BC2
:1025E000F5D1016B012909D101680C3151E8002FA7
:1025F00022F0100241E80023002BF5D1202180F8C1
:10260000421000210163704770B5044600680169FB
:10261000E26821F44051114301612169A068E26937
:1026200008436169114308432168CA6849F20C6391
:102630009A430243CA6020684169A26921F440714B
:102640001143416131492068884202D030498842B3
:1026500002D1FEF7CFFC01E0FEF7BCFCE2690023EB
:10266000192164253226B2F5004F626828D0A0FBFC
:102670000101930F9200FDF7A5FD0146B0FBF5F0B7
:102680006FF01802504301EB800006EB0010B0FB26
:10269000F5F000F0F002B1FBF5F002EB0012B1FB37
:1026A000F5F06FF01803584301EB800006EB0010C3
:1026B000B0FBF5F000F00F0021681044886070BD99
:1026C000A0FB010192185B41FDF77CFD0146B0FBC8
:1026D000F5F00201B1FBF5F06FF01803584301EB80
:1026E000800006EBC000B0FBF5F000F0F80002EB54
:1026F0004002B1FBF5F0584301EB800006EBC0004F
:10270000B0FBF5F000F00700D6E700000010014034
:10271000001401402DE9F843984617460D4604463B
:10272000089E24E0701C22D0FEF780FAA0EB08007F
:10273000B0421AD8CEB12068C168490717D5802D9C
:1027400015D0402D13D00168C94309070FD4016883
:102750000025406800902046FFF72FFF08206064A6
:1027600084F840500120BDE8F8830320FBE720688F
:10277000006835EA000004D00020B842D2D0002022
:10278000F1E70120F9E741F4807141F221024000B4
:102790004900CB0500D5401CC30300D55040CB03F6
:1027A000F5D580B27047FEE72DE9F14F0027DFF83D
:1027B0007CA188B0DFF870B13E46B9463C46CAF805
:1027C00000B0A9E04FF000084546A1E041F2883290
:1027D00004A95748FFF702FC60B102286CD0B9F198
:1027E000000F00D0761C052E67D91820FFF772FD68
:1027F00018208BE00498002670B1022807D04C49BD
:1028000008F0FF028B7893420BD015207EE0062063
:10281000FFF760FD02247BE00620FFF75BFD01254A
:1028200076E0B8F1000F12D08208DAF80000091D36
:10283000FDF71CFEF0B31820FFF74CFD1820FFF742
:1028400049FD042408F101084FF0010960E008790E
:1028500088B30020374B091D02E01A54401C491C64
:102860000A780AB14028F8D34FF0000C03F800C0F2
:1028700060466B4601E01A54401C11F8012F202AD3
:1028800001D01028F7D303F800C005A91846FFF7B8
:1028900041FD05986FF46021C84216D918208DF8C3
:1028A00018004FF480142346012206A92248FFF79E
:1028B00073F803E01AE013E022E026E02346012249
:1028C00006A91D48FFF768F805245846FDF796FD50
:1028D0000898059901600620FFF7FCFC43200CE0F6
:1028E0000620FFF7F7FC01252F4611E0DAF800106B
:1028F000049A1144CAF800100620FFF7EBFCA1E788
:102900001820FFF7E7FC182082E74320FFF7E2FCDE
:1029100055EA04003FF45AAF57EA04003FF452AFBF
:1029200009B02046BDE8F08F000002082800002012
:102930006801002028010020E00000202DE9F74F69
:1029400086B04FF0000A0120AC4E01900122089899
:10295000727086F802A0FF23D04655465746F370A2
:10296000544604E006EB040C641C8CF804300B5D48
:102970000BB1402CF6D3321900211171014602A887
:10298000FFF75CF802A8641D02E03155641C7F1C4F
:10299000C15D0029F9D14FF48019DFF860B202E07F
:1029A00000203055641C842CFAD31FE05C464E4650
:1029B0004B468322611C9248FEF7EEFF8021201DCA
:1029C000FDF788FC0446000AFFF784FCE0B2FFF73D
:1029D00081FC3346012269468948FEF785FF60B1D4
:1029E0000AF1010ABAF1050F00D3012558EA0500E2
:1029F000DCD006980290089C7CE09DF80000062838
:102A000015D01828EED13346012269467C48FEF7DE
:102A10006BFF0028E6D19DF800001828E2D10220C3
:102A2000FDF7A4FE7648006840680225DAE74FF01B
:102A30000108D7E7DDE90103704AC6B24FF48067A9
:102A40002046BC4201D3394600E08021884200D3B1
:102A50000846B1F5806F07D0012757709670F6438E
:102A6000D6700426071D06E00227F6E713F801CB0F
:102A700002F806C0761CBE42F8D3884207D81A2353
:102A8000001D091D01E01354401C8842FBD34FF088
:102A9000000A8DF800A0574629E000BF4FF4806679
:102AA000B44200D28026F21C4B46D8460BF10101FD
:102AB0005348FEF771FF314608F10400FDF70AFCA8
:102AC0008046000AFFF706FC08F0FF00FFF702FC53
:102AD0004B46012269464A48FEF706FF18B99DF8A1
:102AE0000000062811D07F1C052F00D301255AEACB
:102AF0000500D3D00CB1002D9CD0002426468DF8C3
:102B000000402746DFF8F88020E002984FF0010AE5
:102B10003044B442029009D90198A41BB0F5607FFB
:102B200002D0401C0190DFE70525DDE70024DBE74C
:102B30000420FFF7CFFB4B46012269463048FEF7E1
:102B4000D3FE40B17F1C052F00D3012554EA0500B8
:102B5000EED0E5B14EE09DF80000062815D018280B
:102B6000F1D14B46012269462548FEF7BDFE0028FB
:102B7000E9D19DF800001828E5D10220FDF7F6FD07
:102B8000D8F8000040680225DDE70124DBE70120DA
:102B90008BF801008BF80260FF208BF803005C4685
:102BA00004202654401CC0B28428FAD34E464B461B
:102BB0008322611C1248FEF7EFFE8021201DFDF7E5
:102BC00089FB0446000AFFF785FBE0B2FFF782FBB2
:102BD0003346012269460A48FEF786FE50B99DF841
:102BE0000000182806D10220FDF7C0FDD8F800002B
:102BF0004068022509B02846BDE8F08F6801002032
:102C0000E0000020014A024900F023B8992C000896
:102C10002C0000200907090E002804DB00F1E02049
:102C200080F80014704700F00F0000F1E02080F8F9
:102C3000141D704702E008C8121F08C1002AFAD10B
:102C400070477047002001E001C1121F002AFBD12C
:102C500070472DE9F04116460F460446002503E073
:102C60003946B047641C6D1C20780028F8D12846EE
:102C7000BDE8F0810648016841F0807101600548B7
:102C800000214160016841F00101016070470000CE
:102C9000FCED00E0001000E038B504468DF80000BF
:102CA0004FF47A73012269460248FEF775FE20460A
:102CB00038BD00007800002008B5FDF7C5FFFFF71C
:102CC00087FBFEF7EDFEFEF757FFFEF7D7FEFEF798
:102CD0001DFFFFF7CFFF1CA0FFF794FFFDF7BCFB24
:102CE000FDF70CFB1E48FEF725FC00208DF80000C8
:102CF00069464FF47A7301221A48FEF7F5FD18B9B8
:102D00009DF800004D2817D0174C2068A0F1005006
:102D1000B0F5403F12D215A0FFF774FF656872B698
:102D20001948016821F080510160FEF7B9F8206868
:102D300080F30888A84706E014A000E01AA0FFF777
:102D400061FFFEF735FFFEE7426F6F746C6F6164E1
:102D5000657220737461727465642E2E2E0D0A00E4
:102D60003000002078000020000002084A756D70D5
:102D7000696E6720746F206170706C69636174693B
:102D80006F6E2E2E2E0D0A0040380240456E74657F
:102D90007220426F6F746C6F61646572204D656E56
:102DA000752E2E2E0D0A00004E6F2076616C696420
:102DB000206170702C20656E746572696E672042A8
:102DC0006F6F746C6F61646572204D656E752E2E29
:102DD0002E0D0A00000000000000000001020304A4
:102DE0000607080900000000010203040A0A0D207A
:102DF00050726F6772616D6D696E6720436F6D70A1
:102E00006C65746564205375636365737366756C74
:102E10006C79210A0D2D2D2D2D2D2D2D2D2D2D2DA6
:102E20002D2D2D2D2D2D2D2D2D2D2D2D2D2D2D2DD2
:102E30002D2D2D2D2D0D0A204E616D653A2000009F
:102E40000D0A3D202020202020202020202020208E
:102E50002020202020202020202020202020202072
:102E60002020202020202020202020202020202062
:102E70002020202020202020202020202020202052
:102E8000202020202020203D000000000D0A3D20B1
:102E90002020202020202020202020202020202032
:102EA0002020202020204279204D43442041707072
:102EB0006C69636174696F6E205465616D202020B8
:102EC0002020202020202020202020202020202002
:102ED0002020203D000000000D0A3D202020202061
:102EE00020202020202020202028432920434F502C
:102EF00059524947485420323031362053544D6995
:102F000063726F656C656374726F6E6963732020A2
:102F10002020202020202020202020202020203D94
:102F2000000000000D0A3D2020202020202020202D
:102F30002053544D33324634787820496E2D4170F9
:102F4000706C69636174696F6E2050726F67726133
:102F50006D6D696E67204170706C69636174696F33
:102F60006E202020202020202020203D0000000076
:102F70000D0A3D3D3D3D3D3D3D3D3D3D3D3D3D3DE4
:102F80003D3D3D3D3D3D3D3D3D3D3D3D3D3D3D3D71
:102F90003D3D3D3D3D3D3D3D3D3D3D3D3D3D3D3D61
:102FA0003D3D3D3D3D3D3D3D3D3D3D3D3D3D3D3D51
:102FB0003D3D3D3D3D3D3D3D00000000DC2F000816
:102FC0000000002030000000342C00080C30000805
:102FD0003000002040090000442C000800000000E0
:102FE00000000000000000000100000010000000D0
:102FF000000000000024F4000000000000000000B9
:0C300000000000000000000000000000C4
:040000050800018965
:00000001FF
