:020000040800F2
:1000000088D50020A10100086B630008194C000886
:10001000CD620008E508000855B90008000000009E
:10002000000000000000000000000000DD7E00086D
:10003000B50A000800000000E76400082D960008DB
:10004000BB010008BB010008BB010008BB010008A0
:10005000BB010008BB010008BB010008BB01000890
:10006000BB010008BB010008BB010008BB01000880
:10007000BB010008BB010008BB010008BB01000870
:10008000BB010008BB010008BB010008BB01000860
:10009000BB010008BB010008BB010008BB01000850
:1000A000BB010008599C0008BB010008BB01000807
:1000B000BB010008BB010008BB010008BB01000830
:1000C000BB010008BB010008BB010008BB01000820
:1000D000BB010008BB010008BB010008BB01000810
:1000E000BB010008BB010008BB010008BB01000800
:1000F000BB010008BB010008BB010008BB010008F0
:10010000BB01000861710008BB010008BB010008C9
:10011000A19D0008BB010008BB010008BB0100084D
:10012000BB010008BB010008BB010008F909000879
:10013000BB010008BB010008BB010008BB010008AF
:10014000BB010008BB010008BB0100086D6300088B
:10015000BB010008050A0008BB010008BB0100083C
:10016000BB010008BB010008BB010008BB0100087F
:10017000BB010008BB010008BB0100080000000033
:10018000BB010008BB010008DFF810D000F050F9F7
:100190000048004789300108AFF3008088D500206F
:1001A0000648804706480047FEE7FEE7FEE7FEE711
:1001B000FEE7FEE7FEE7FEE7FEE7FEE7CD96000876
:1001C000890100082DE9F05F0546002092469B4614
:1001D00088460646814640241BE02846414647465D
:1001E000224600F0DDF853465A46C01A914110D31A
:1001F00011461846224600F0C4F82D1A67EB010894
:100200004F4622460120002100F0BBF817EB000901
:100210004E41201EA4F10104DFDC484631462A4647
:100220004346BDE8F09F40EA01039B0703D009E085
:1002300008C9121F08C0042AFAD203E011F8013BD2
:1002400000F8013B521EF9D27047D2B201E000F82B
:10025000012B491EFBD270470022F6E710B513466A
:100260000A4604461946FFF7F0FF204610BD421E1D
:1002700012F8013F002BFBD111F8013B02F8013BC2
:10028000002BF9D1704730B505462A460B4612F8C7
:10029000010B13F8014B08B1A042F8D01CB10028A3
:1002A00002D06D1CF1E7284630BDCAB2401E10F8DE
:1002B000011F8A4202D00029F9D100207047421C58
:1002C00010F8011B0029FBD1801A704710B50022DD
:1002D00000E0521C835C8C5CA34201D1002BF8D15E
:1002E000D8B2E1B2401A10BD30B504460020034632
:1002F00000E05B1C934203D2E05CCD5C401BF8D075
:1003000030BD034611F8012B00F8012B002AF9D16A
:10031000184670470022CBB20178994200D10246BC
:10032000401C0029F8D11046704730B503461D78AF
:100330003DB10A4612F8014B1CB1AC42FAD15B1C2C
:10034000F5E7181A30BD30B50546002008E00A462A
:1003500002E0A34207D0521C1378002BF9D1401CB5
:100360002C5C002CF3D130BD70B506460BF006FEB8
:10037000046805460A220021304600F021F82C606E
:1003800070BD202A04DB203A00FA02F100207047F9
:100390009140C2F1200320FA03F3194390407047C3
:1003A000202A04DB203A21FA02F00021704721FACA
:1003B00002F3D040C2F12002914008431946704731
:1003C0002DE9F04791460F4680460446002614F872
:1003D000015B2DB100F03EF80068405DC007F6D12A
:1003E0002B2D02D02D2D18D0641E4A4639462046AA
:1003F00000F034F827B13968A14201D1C7F8008074
:1004000071054FF002040BD54042002803DD0BF0CC
:10041000B5FD0460A007BDE8F08746F48066E4E718
:100420000028F8DA0BF0AAFD04606FF00040F2E754
:10043000064C074D06E0E06840F0010394E8070031
:1004400098471034AC42F6D3FFF7A2FE084C0108DF
:10045000284C010800487047CC4801082DE9F05F9E
:1004600082460078002715468B460AF10104B946FA
:10047000302801D09DB113E014F8010B0127782832
:1004800003D0582801D045B10AE00DB1102D07D195
:100490000027102514F8010B02E0082500E00A25CA
:1004A0000026B0460EE005FB080005FB06F101271B
:1004B00001EB10461FFA80F8B6F5803F00D3B9462D
:1004C00014F8010B294600F018F80028EBDABBF10C
:1004D000000F05D00FB1641E00E05446CBF8004079
:1004E000B9F1000F06D00BF049FD02210160C81ED2
:1004F000BDE8F09F48EA0640FAE73A2800D23038D3
:1005000020F02002412A01D3A2F13700884201D312
:100510004FF0FF30704770B58C1810F8015B15F084
:10052000070301D110F8013B2A1106D110F8012B65
:1005300003E010F8016B01F8016B5B1EF9D12B078A
:1005400005D40023521E0DD401F8013BFAE710F840
:10055000013BCB1A921C03E013F8015B01F8015B2D
:10056000521EF9D5A142D8D3002070BD2DE9FF411C
:1005700017460E468046002400F1F00513E01022D5
:1005800031466846FFF74FFE4146304604F084FB93
:10059000294630460BF084FA102269462846FFF7B8
:1005A00042FE10341036BC42E9D3BDE8FF812DE98C
:1005B000F0410C4600F1F00117460646884600253A
:1005C00009E020460BF06CFA3146204600F0A0F915
:1005D000214610341035BD42F3D34046BDE8F0410A
:1005E0001022FFF720BE00002DE9F05FADF5AC5DF5
:1005F000164641F26C490C460546E9441A46314616
:10060000484600F0EFF86E460122294630460CF0CD
:10061000ADFF00280ED18CAB04228DA930460DF021
:1006200016FA050002D18C98042807D030460CF049
:10063000BDFE28460DF5AC5DBDE8F09F41F23C20C3
:100640000A22214668440CF091FF040001D0304694
:1006500042E0039D4FF480570DF50F78B3462D1FF0
:1006600032E0BD4201D9384600E0284682460246C3
:100670008CAB414658460DF0EAF9040026D18C981F
:1006800020B3060907E000BF08EB0411102248461A
:10069000FFF76CFF641CB442F6D3DDE98C60B04216
:1006A00000D2064641F23C208EAB324641466844B9
:1006B0000DF01CFB040009D18E98B04206D18D9834
:1006C000A5EB0A05801B8D90002DCAD158460CF071
:1006D0006DFE41F23C2068440CF068FE2046A9E71C
:1006E0002DE9F05FADF5AC5D154641F26C490E4663
:1006F0000446E9441A462946484600F073F86D4618
:100700000122214628460CF031FF002866D1039CC7
:100710000A223146A9F50C708E940CF027FF0600D2
:1007200001D0284657E041F23C208DAB04228EA92F
:1007300068440DF0DBFA060006D18D984FF480571F
:100740000DF50F7804283DD028463FE0BC4201D982
:10075000384600E02046824602468CAB4146584669
:100760000DF075F9060030D18C9870B3BC420CD9ED
:1007700001070AD000F00F01C1F1100540442946DD
:10078000FFF76AFD8C9828448C900609002506E046
:1007900008EB051110224846FFF709FF6D1CB54212
:1007A000F6D341F23C208DAB414668448C9A0DF063
:1007B0009DFA060009D1DDE98C01814205D1A4EB47
:1007C0000A0400E0AB46002CC0D158460CF0EEFD08
:1007D00041F23C2068440CF0E9FD30460DF5AC5D7B
:1007E000BDE8F09F70B51546044604F06BFC294641
:1007F00004F1F000BDE870401022FFF714BDF0B521
:100800000024002304EB800601EB840503EB860C37
:10081000EF5C12F80CC087EA0C07EF545B1CDBB2EC
:10082000042BF3D3641CE4B2042CEAD3F0BD70476C
:100830000146014802F0D6BE6C01002010B5044804
:1008400002F0E2FE042801D0012010BD002010BDFE
:100850006C01002010B500F015F8012801D001202E
:1008600010BD074802F0EAFF040006D14FF4006112
:10087000034802F05DFD00B10124204610BD0000D8
:100880006C01002008B501208DF800009DF80000E3
:1008900008BD0000134610B50A460146002403486F
:1008A00003F0B6F900B10124204610BD6C01002010
:1008B000014901208860704724000020134610B5CC
:1008C0000A4601460024034803F014FB00B101244A
:1008D000204610BD6C01002001490120486070478E
:1008E00024000020FEE7000030B504460020651813
:1008F00004E000BF14F8011B0BF01CF8AC42F9D364
:1009000000210BF017F8BDE8304000210BF012B8C1
:100910002DE9F0410F460A46044601460020FFF744
:100920006EFF1F4E012500205FF0000104EB8102E5
:10093000491C135CC9B20429F35C1354F6D3401C60
:10094000C0B20428F0D3607861796170617A617116
:10095000617B61726073A078A17AA170A072A079A6
:10096000A17BA171A073E078E17BE170E17AE17392
:10097000E179E172E0710E2D0AD0204605F0A8FC65
:100980003A4621462846FFF73AFF6D1CEDB2CAE70A
:100990003A462146BDE8F0410E20FFF730BF000087
:1009A000643F010870B5262211491248FFF73BFC4D
:1009B0000F4CE08C0F4DE884A06AA862A08DA8853A
:1009C000E08DE885206B2863606B6863092204F181
:1009D000380105F13800FFF726FC94F8410085F84E
:1009E000410094F8420085F84200606C686470BD74
:1009F00050030020B8030020014800F0CBBD0000E8
:100A0000F0010020014800F0C5BD000050020020A8
:100A100001681823CAB2103AB2FBF3F2054B6FF328
:100A20000901032A9B5CC36500D9091D816508463D
:100A300070470000F03E010810B5014600208B69A8
:100A40008A6A4FF0C07453B1B3F5005F15D072B12C
:100A5000012A0CD0022A0AD0032A09D104E01AB1D3
:100A6000012A06D0022A03D1C96AC90100D5012092
:100A700010BDC96AA142FAD010BD002AF7D0012AE0
:100A8000F2D0022AF3D0032AF3D010BD30B50468A7
:100A9000256825F480252560046863608368402B01
:100AA000036803D099600068C26030BD9A60006836
:100AB000C16030BD7047000010B586B000208DF8D1
:100AC000100022A007F07CFD2FA007F079FD4FF069
:100AD000FF342346012204A9364803F0F3FF00281F
:100AE000F7D19DF8100079280BD0592809D06E282D
:100AF00005D04E2803D030A007F062FDE9E739A009
:100B00001FE03FA007F05CFD12F078F908B147A0A4
:100B100017E04FA007F054FD002012F065F9040023
:100B20000BD052A007F04CFD2146684604F076F841
:100B3000684607F045FD3CA003E056A007F040FDE5
:100B40005EA007F03DFD06B010BD00000D0A574144
:100B5000524E494E473A20546869732077696C6C4D
:100B60002064656C65746520414C4C2066696C6539
:100B70007320696E207468652066696C65207379DE
:100B80007374656D210D0A0041726520796F7520BF
:100B90007375726520796F752077616E7420746F3C
:100BA00020636F6E74696E75653F2028792F6E29FA
:100BB0003A200000B8030020496E76616C69642019
:100BC000696E7075742120506C6561736520656E67
:100BD00074657220277927206F7220276E273A20AC
:100BE000000000000D0A4F7065726174696F6E201D
:100BF00063616E63656C6C65642E0D0A0000000015
:100C00000D0A496E697469616C697A696E6720536F
:100C1000504920466C61736820616E64204C697491
:100C2000746C6546532E2E2E0D0A00005350492039
:100C3000466C61736820696E697469616C697A6178
:100C400074696F6E206661696C6564210D0A00002D
:100C5000466F726D617474696E672066696C652099
:100C600073797374656D2E2E2E0D0A004661696CC2
:100C7000656420746F20666F726D61742066696CA4
:100C8000652073797374656D21204572726F723AB5
:100C90002000000046696C652073797374656D20CF
:100CA000666F726D617474656420737563636573D8
:100CB0007366756C6C79210D0A000000416C6C2024
:100CC00066696C65732068617665206265656E2073
:100CD00064656C657465642E0D0A000070B5ADF531
:100CE000376D00248DF83C4B5DA007F069FC12F0D5
:100CF00085F808B165A007E06DA007F061FC002051
:100D000012F08CF828B170A007F05AFC0DF5376D81
:100D100070BD74A007F054FC7CA20DF608317C482D
:100D20000FF044FC08B17BA07AE084A007F048FCF7
:100D30006D460DF608263AE09DF8000A012836D1E6
:100D40002E213046FFF7E6FA88B385A1FFF7BEFAF9
:100D500068BB0A2C2BD205EB04203146FFF7D1FAF1
:100D600081A007F02DFC81A007F02AFC611C0DF585
:100D7000356003F053FF0DF5356007F021FC7CA0D2
:100D800007F01EFC304607F01BFC7AA007F018FCA9
:100D90000DF53660DDF8041A03F040FF0DF53660FE
:100DA00007F00EFC76A007F00BFC641CE4B20DF516
:100DB00020620DF6083156480FF052FE0028BBDCC9
:100DC0000DF6083152480EF003FC44B36FA007F053
:100DD000F7FB21460DF5346003F020FF0DF534607C
:100DE00007F0EEFB73A007F0EBFB4FF0FF3630345B
:100DF000334601220DF63C31754803F063FE0028AE
:100E0000F6D19DF83C0B612810D041280ED0312836
:100E100001D3A0420CD96FA007F0D2FBE8E772A083
:100E200007F0CEFB002012F069F86FE777A0F7E734
:100E3000C0B23138C4B27BA007F0C2FB05EB04247A
:100E4000204607F0BDFB7CA007F0BAFB21463048E6
:100E500011F035FF08B17AA0E2E780A0E0E70000DA
:100E60000D0A496E697469616C697A696E6720530D
:100E7000504920466C61736820616E64204C69742F
:100E8000746C6546532E2E2E0D0A000053504920D7
:100E9000466C61736820696E697469616C697A6116
:100EA00074696F6E206661696C6564210D0A0000CB
:100EB0004D6F756E74696E67204C6974746C65460D
:100EC000532E2E2E0D0A00004661696C6564207455
:100ED0006F206D6F756E74204C6974746C65465329
:100EE000210D0A005363616E6E696E67204C697450
:100EF000746C65465320666F722062696E20666965
:100F00006C65732E2E2E0D0A000000002F000000CD
:100F1000480800204661696C656420746F206F701A
:100F2000656E204C6974746C654653206469726503
:100F300063746F7279210D0A000000000D0A466F7C
:100F4000756E642062696E2066696C657320696ED7
:100F5000204C6974746C6546533A0D0A0000000019
:100F60002E62696E00000000202000005B0000007F
:100F70005D200000202873697A653A200000000097
:100F8000206279746573290D0A0000000D0A506C07
:100F9000656173652073656C6563742061206669A3
:100FA0006C6520746F2064656C6574652028312D34
:100FB0000000000029206F72207072657373202773
:100FC000612720746F2061626F72743A2000000004
:100FD000B8030020496E76616C696420696E707593
:100FE00074210D0A000000004E6F2062696E2066B9
:100FF000696C657320666F756E6420696E204C693C
:1010000074746C654653210D0A0000000D0A4F7080
:1010100065726174696F6E2061626F7274656421BC
:101020000D0A00000D0A44656C6574696E672066E0
:10103000696C653A200000002E2E2E0D0A0000007B
:101040004661696C656420746F2064656C657465C5
:101050002066696C65210D0A0000000046696C6518
:101060002064656C65746564207375636365737370
:1010700066756C6C79210D0A0000000072B6FEE7FF
:10108000002200F001B8000030B50E4B05460120EB
:101090005C7A002C14D1587A1C54587A03EB8000E7
:1010A00045605D7A03F108002A54587A421C5A724E
:1010B000303008703A2048702F208870CC700020A3
:1010C00030BD00001C0B0020002229B101291AD0DC
:1010D00002291BD04FF440720E490B6823F4407371
:1010E0000B600B6813430B600A6822F078020A60F9
:1010F0000A68022303EBC00002430A60086840F458
:101100008030086070474FF48072E5E74FF400725A
:10111000E2E70000103C02401348016889050FD542
:10112000016821F400710160016841F4006101600F
:10113000016821F400610160016841F400710160FF
:10114000016849050FD5016821F4806101600168DB
:1011500041F480510160016821F48051016001680F
:1011600041F4806101607047003C024010B586B0D8
:10117000044600F027F8204600F02AF902900120EA
:101180000390002102200091049005A9684600F018
:1011900085FB002800D0012006B010BD10B588B036
:1011A00040F6FF7400F0B4FC684600F0C3FB00F0AA
:1011B00047FC0298844302D0022008B010BD0020F2
:1011C000FBE7000010B500F0A3FC0249F320086023
:1011D00010BD00000C3C02402DE9F0411646884647
:1011E000054600240D4F13E058F82420002329461B
:1011F000022000F04FFC10B10320BDE8F08158F848
:1012000024002968814201D00220F6E7641C2D1DCC
:10121000B44201D2BD42E7D90020EEE7FBFF0F0840
:1012200030B58FB0044640F6FF7507A800F082FB8A
:101230000120CDE90004AA200490099C9DF8340007
:101240008DF818002C4300F063FC00F00FFC68469A
:10125000029400F08FFB0FB030BD000008490A680F
:1012600022F440720A600A6842F004020A600A68C6
:101270004FF4803343EA002002430A6070470000C5
:10128000103C0240064A136823F44073136013684D
:101290001360136843F0010313600170704700008E
:1012A000103C0240094910B50C6824F440740C60ED
:1012B0000C6844F440740C600C6844F001040C6049
:1012C0000260BFF36F8F436010BD0000103C02400E
:1012D000074A136823F440731360136843F4807360
:1012E0001360136843F0010313600180704700002E
:1012F000103C0240074A136823F4407313601368DC
:1013000043F400731360136843F00103136001603A
:1013100070470000103C024017490868C206174891
:1013200005D5C26942F01002C26110220A600A6843
:10133000920605D5C26942F00802C26120220A6005
:101340000A68520605D5C26942F00402C261402211
:101350000A600A68120605D5C26942F00202C2613B
:1013600080220A600A68920705D5C26942F020020D
:10137000C2610220086070470C3C024098030020C4
:1013800070B5114904460020C86100F0D5FC06463E
:101390000E4D09E0601C07D024B100F0CDFC801B8D
:1013A000A04201D9032070BD2868C003F2D4286888
:1013B000C00701D001202860286810F0F200F2D0A8
:1013C000FFF7AAFF012070BD980300200C3C0240EB
:1013D0000021A0F100634FF4804293423FD32149A2
:1013E0000144914201D2012139E01F490144914257
:1013F00001D2022133E01D490144914201D203216F
:101400002DE01B490144B1F5803F01D2042126E0C3
:10141000184942184FF400318A4201D205211EE0DA
:10142000154A02448A4201D2062118E0134A0244B6
:101430008A4201D2072112E0114A02448A4201D2B3
:1014400008210CE00F4A02448A4201D2092106E039
:101450000D4A1044884201D20A2100E00B210846BF
:101460007047000000C0FFF70080FFF70040FFF763
:101470000000FFF70000FEF70000FCF70000FAF79D
:101480000000F8F70000F6F70000F4F710B50400CC
:1014900002D0607910B106E0012010BD002020715B
:1014A000204600F005F801206071002010BD00000A
:1014B00008B500680649884208D10648016841F429
:1014C00080510160006800F48050009008BD000069
:1014D00000300240303802402DE9F0410446876D6B
:1014E00000F02AFC064694F835000025022806D0B4
:1014F0008020606584F834500120BDE8F0812068C8
:10150000016821F0160101602068416921F0800125
:101510004161206C08B9A06C20B12068016821F0FD
:10152000080101602068016821F0010101600CE000
:1015300000F002FC801B052807D9202060650320ED
:1015400084F8350084F83450D7E720680068C00775
:10155000EED194F85C103F208840B860012084F8F8
:10156000350084F834500020C7E790F83510022980
:1015700003D08021416501207047052180F8351096
:101580000068016821F00101016000207047406D92
:10159000704700002DE9F84304464FF00009CDF8EC
:1015A000009063484FF41651A56D0068B0FBF1F749
:1015B0002E6894F85C10082000FA01F131420FD037
:1015C00021680A6852070BD50A6822F004020A60F3
:1015D00094F85C108840A860606D40F00100606580
:1015E00094F85C104FF0010808FA01F0304208D07E
:1015F00021684969090604D5A860606D40F00200C1
:10160000606594F85C1004208840304208D021685E
:101610000968890704D5A860606D40F00400606522
:1016200094F85C1010208840304218D02168096876
:10163000090714D5A86020680168490304D500682B
:10164000000308D5A16C07E00168C90503D401684F
:1016500021F008010160216C09B12046884794F807
:101660005C1020208840304231D021680968C906CA
:101670002DD5A86094F8350005282068016806D0AB
:10168000490347D5006800031DD4616C1CE021F0BC
:10169000160101602068416921F080014161206CE0
:1016A00008B9A06C20B12068016821F00801016030
:1016B00094F85C103F208840A86084F8358084F856
:1016C0003490216D1FE0E16B09B120468847606DC1
:1016D00000282BD0606DC00714D0052084F8350099
:1016E0002068016821F0010101600098401C009011
:1016F000B84203D820680068C007F6D184F8358066
:1017000084F83490E16C002910D001B02046BDE887
:10171000F04308470168C905D5D4016821F01001DC
:10172000016084F8358084F83490CCE7BDE8F88314
:10173000180000202DE9F041044600F0FDFA0646AD
:101740005CB1022084F83500002584F8345020680C
:10175000016821F0010101600DE00120BDE8F08188
:1017600000F0EAFA801B052805D9202060650320D7
:1017700084F83500F2E720680068C007F0D12268DD
:10178000116820480140D4E901031843D4E9033625
:101790003343184363691843A3691843E369184343
:1017A000236A18430843616A042903D1D4E90B135F
:1017B00019430843106020684069666A20F00701F9
:1017C00030460E43012704280CD1A06A0643E06A84
:1017D00040B12046FFF730F920B14020606584F821
:1017E0003570BAE7206846612046FFF711F994F892
:1017F0005C203F2191408160656584F83570002050
:10180000ACE700003F8010F02DE9F0410446866D02
:1018100090F83400002501280DD0012084F8340010
:1018200094F835700020012F07D084F83400022589
:101830002846BDE8F0810220FBE7022784F83570D6
:1018400060652046FFF722F994F85C103F2088403D
:10185000B0602068016841F016010160206C20B181
:101860002068016841F0080101602068016841F0CA
:1018700001010160DCE7000070B5044600F05CFA8D
:101880000546601C02D004480078044400F054FA75
:10189000401BA042FAD370BD0C0000202DE9F04798
:1018A000044622480F46017E01290AD001218046C4
:1018B00001764CF250394846FFF762FD020003D032
:1018C0002FE00220BDE8F0874FF0FF30386020683D
:1018D000174D012801D0A6681CE0207C6168FFF745
:1018E000BDFC4846FFF74CFD0246286820F0040086
:1018F000286014E0217C3046FFF7E6FB4846FFF7FE
:101900003FFD0200286820F07A00286001D03E6088
:1019100005E0761CD4E902100844B042EAD8FFF78B
:10192000FBFB002188F818101046CBE79803002035
:10193000103C02400F2101600D49098881600C4A6A
:10194000AA21521E1378CC2B0FD01278AA2A00D0CD
:10195000552101610649891E0A6802F0E0020276FB
:10196000097801F00C0141617047CC21F1E70000DA
:10197000163C02402DE9F0472E49044601200A7E1C
:10198000012A11D0012288460A7621784CF2503A79
:10199000C90715D06068284D0128A668504606D0B2
:1019A000FFF7EEFC48B10BE00220BDE8F087FFF73F
:1019B000E7FC28B92988B14301E02988314329800F
:1019C0002178890707D5257C5046FFF7D9FC10B947
:1019D0001949491E0D702178DFF86090490713D529
:1019E000207E00F0200700F0400500F08006504601
:1019F000FFF7C6FC40B999F8002002F01F0215431A
:101A000035433D4389F8005021784FF00002090723
:101A10000CD5207D99F8003023F00C0389F80030B4
:101A200099F80030034389F80030104688F81820F0
:101A3000BBE7000098030020163C0240143C024023
:101A40000348016841F00041016000207047000038
:101A5000103C02400448017841F0020101704CF250
:101A60005030FFF78DBC0000143C0240064800686F
:101A7000C00707D0044805490C38016004490160DB
:101A80000020704701207047143C02403B2A19088F
:101A90007F6E5D4C2DE9F0471B4E05461446307EA7
:101AA0001F468946012808D0012030764CF2503874
:101AB0004046FFF765FC18B114E00220BDE8F0874E
:101AC0009DB1012D16D0022D19D022463B46484625
:101AD000FFF7E8FB4046FFF753FC0C490A6822F089
:101AE00001020A6000213176E8E7E1B24846FFF7DB
:101AF000C9FBEFE7A1B24846FFF7EAFBEAE7214658
:101B00004846FFF7F7FBE5E798030020103C02404A
:101B1000074900200A68002A09DA054A054B0C3AF1
:101B20001360054B13600968002900DA0120704733
:101B3000103C024023016745AB89EFCD2DE9F84FFA
:101B4000DFF8BCA10022012503264FF00F090AF19E
:101B5000040BAAF1040E00BF0B6805FA02F423403F
:101B6000A34270D10F7907F00307012F01D0022F94
:101B700016D187684FEA420806FA08FC27EA0C07E4
:101B8000D1F80CC00CFA08FC4CEA070CC0F808C0ED
:101B90004768A7430C79C4F3001494403C43446065
:101BA0000C79E443A4070AD0C4684FEA420C06FA51
:101BB0000CF7BC438F6807FA0CF72743C7600C7912
:101BC00004F00304022C12D1D40800EB840CDCF8DE
:101BD00020405707FF0E09FA07F824EA0804D1F855
:101BE000108008FA07F848EA0408CCF82080046856
:101BF0004FEA420C06FA0CF7BC430F7907F00307D3
:101C000007FA0CF7274307604C6814F4403F70D084
:101C10003C4C276847F480472760246822F003077C
:101C200004F480440094384C07EB040CDCF80848BA
:101C300097074FEA177809FA08F7BC43334FB842C1
:101C400002D1002724E054E0314FB84201D10127EE
:101C50001EE0304FB84201D1022719E02E4FB842A2
:101C600001D1032714E02D4FB84201D104270FE022
:101C70002B4FB84201D105270AE02A4FB84201D1C3
:101C8000062705E0284FB84201D1072700E00827C2
:101C900007FA08F72743CCF80878DAF800405746E7
:101CA000D1F804C09C435FEACC2C00D51C433C60B7
:101CB000DBF800405F46D1F804C09C435FEA8C2CFF
:101CC00000D51C433C60DEF800407746D1F804C0E4
:101CD0009C435FEA8C3C00D51C433C60084F083FA6
:101CE0003C68D1F804C09C435FEACC3C00D51C435F
:101CF0003C60521C102AFFF42FAFBDE8F88F0000A3
:101D0000083C0140443802400030014000000240DD
:101D10000004024000080240000C02400010024093
:101D20000014024000180240001C02400AB1816108
:101D300070470904FBE70000014880687047000015
:101D40000C000020024881680278114481607047CD
:101D50000C0000200B4810B5016841F400710160CF
:101D6000016841F480610160016841F480710160A3
:101D7000032000F06FF80F2000F006F800F024F8C0
:101D8000002010BD003C024070B50D4D04464FF4DC
:101D90007A712878B1FBF0F00A490968B1FBF0F0DC
:101DA00002F0C2FA48B9102C07D200222146501E78
:101DB00000F030F800206C6070BD012070BD0000A4
:101DC0000C000020180000200A4808B5016841F402
:101DD00080410160006800F4804000900548001FC9
:101DE000016841F080510160006800F0805000906F
:101DF00008BD000044380240002809DB00F01F0243
:101E0000012191404009800000F1E020C0F800115C
:101E100070470000F0B40E4B1B680C46C3F302235E
:101E2000C3F10705042D00D90425191D072901D286
:101E3000002300E0DB1E012606FA05F1491E2140C1
:101E400099409E40761E16403143F0BC0AF086B899
:101E50000CED00E0064900F0070208684FF6FF03AA
:101E6000184040EA0220034A10430860704700000F
:101E70000CED00E00000FA05BFF34F8F0548016844
:101E8000054A01F4E06111430160BFF34F8F00BFC9
:101E9000FDE700000CED00E00400FA057047006863
:101EA000416200207047F0B50368586A39B19C6AF6
:101EB0004FF4827600EB144400204D1E0AE040EA05
:101EC000024098620FE006EB8007DF59401C04EBEC
:101ED0001744C0B2A842F6D344EA02404FF48072DD
:101EE00002EB810158500020F0BDD0F8E00408F06A
:101EF0000ABB01EBC10200EB8202D0F8E004126AD7
:101F000008F05BBA01EBC10200EB8202D0F8E004FA
:101F1000D2F8602208F0ADBAD0F8E00408F0F5BAC3
:101F20000A0601F00F0101EBC10100EB810101D5AF
:101F3000143101E001F51571006809F049BB70B575
:101F400004460B0601F00F0000EBC00104EB810119
:101F50004FF001024FF0000502D54A75143103E03D
:101F600081F8555201F51571087094F89404012810
:101F700008D084F89424206809F044F884F8945434
:101F8000002070BD022070BD70B5044601F00F0046
:101F90002279904201D9012070BD0B0601F00F019A
:101FA00001EBC10104EB81014FF001024FF000058C
:101FB00002D54A75143103E081F8555201F51571C7
:101FC0008D70087094F89404012808D084F8942443
:101FD000206809F089F984F89454002070BD02202B
:101FE00070BD10B5044690F8940401280AD0012071
:101FF00084F89404080607D501F00F01206809F061
:1020000058FB04E0022010BD206809F036FB0020D8
:1020100084F8940410BD01F00F0101EBC10100EB45
:102020008100D0F8680270472DE9F04104460F06A0
:1020300001F00F0000EBC00104EB81014FF001063D
:102040004FF0000502D54E75143103E081F855526A
:1020500001F51571C2F30A0208708A600B714A78A3
:1020600002B14883022B00D14D7194F894040128E9
:1020700009D084F89464206808F012FF284684F898
:102080009454BDE8F0810220FBE710B501F00F0485
:1020900004EBC40100EB8101C1E998230023C1F8DE
:1020A000683281F8553281F85442837901F515710F
:1020B000012B00D1CA618279006809F06DF9002016
:1020C00010BD70B504460D4601F00F00217988421D
:1020D00001D9012070BD29064FF000064FF0010222
:1020E00006D500EBC00104EB81014A75143107E00D
:1020F00005EBC50104EB810181F8556201F515710D
:102100008A70087094F89404012807D084F8942405
:10211000206809F015F9280702D007E0022070BDF9
:10212000A17904F29C42206809F0B2F884F8946422
:10213000002070BD10B501F00F0404EBC40100EBEA
:102140008101C1E9082300238B6201234B7501F84B
:10215000144F8379012B00D1CA618279006809F09C
:102160001BF9002010BD00002DE9FC5F0568044646
:10217000284609F0C9FA00287DD1206809F0F0FA54
:10218000002878D0D5F80808C0F30D20C4F8D4048E
:10219000206809F0E5FA800704D52068416901F05C
:1021A00002014161206809F0DBFAC10604F29C409B
:1021B000009034D52068816921F0100181612F6A77
:1021C00007F00F0000EBC00004EB8006C7F34340AC
:1021D00006F51576022802D0062811D01AE047F637
:1021E000F070074216D0C7F30A1217462846F16866
:1021F00009F0BAFAF0683844F0607069384408E0D1
:1022000008222846009909F0AFFA7069C7F30A114D
:10221000084470612068816941F010018161206883
:1022200009F09EFA00034FF0080B4FF0000A4FF040
:1022300001097CD50026206809F071FA074674E090
:10224000F80770D0F1B2206809F082FA8046C00722
:1022500007D005EB4611C1F8089B3146204604F033
:102260008BF85FEA087024D505EB4611C1F808BB6E
:102270002068016C00E023E200EB46100191D0F8E9
:10228000082BFB4B994205D9110403D54FF40041AB
:10229000C0F8081B204600F0F6FAF549019888427C
:1022A00007D9A079012804D120680121009A08F0FB
:1022B000EFFF5FEAC86004D505EB46111020C1F8B6
:1022C000080B5FEA88701DD56869000605D5D5F84A
:1022D000040840F48061C5F8041806EBC60004EB5E
:1022E000800090F8571200F51570012905D180F88B
:1022F00003A0F1B2204600F0E9F905EB46110220F7
:10230000C1F8080B5FEA886004D505EB4610202170
:10231000C0F8081B5FEA884005D505EB46104FF46E
:102320000051C0F8081B7F08761C002F88D1206858
:1023300009F016FA40036ED5206809F0E9F907465E
:10234000002666E0F80762D0F1B2206809F0EEF9E5
:102350008046C00723D006F00F01D5F8342809FACB
:1023600001F18A43C5F8342805EB4611C1F80899F4
:10237000A07901280FD106EBC60004EB8000D0E95C
:1023800007211144016236B9606A20B92068012131
:10239000009A08F07DFFF1B22046FFF7AAFD5FEA40
:1023A000087003D505EB4611C1F808B95FEAC860AB
:1023B00004D505EB46111020C1F808095FEA486012
:1023C00004D505EB46104021C0F808195FEA887073
:1023D00016D53146284609F06CF906EBC60004EB29
:1023E0008000C17D1430012905D180F803A0F1B22D
:1023F000204600F067F905EB46110220C1F80809F4
:102400005FEA086003D53146204604F01BF87F08D8
:10241000761C002F96D1206809F0A2F9002811DA65
:10242000D5F8040820F00101C5F8041894F8CC048C
:1024300001282BD0204600F00BFA2068416901F0FA
:1024400000414161206809F08BF900050BD5D5F8F2
:102450000808C00702D0204600F03EFA2068416913
:1024600001F400614161206809F07AF9C00467D580
:10247000D5F8040820F00100C5F8040810212068F0
:1024800009F017F900214FF67F3220E084F8CCA440
:1024900000212046FFF702FDCFE700BF05EB41100A
:1024A000C0F80829D0F8003923F40013C0F8003927
:1024B000C0F8082BD0F8003B23F40013C0F8003B11
:1024C000D0F8003B43F00063C0F8003B491C207982
:1024D0008842E3D8D5F81C0840F00111C5F81C1853
:1024E000E07B002828460DD0D0F8840840F00B018E
:1024F000C5F88418D5F8440840F00B012846C5F803
:1025000044180DE0D0F8140842F22B010843C5F836
:102510001408D5F8100840F00B012846C5F810182B
:10252000D0F8000820F4FE61C5F80018A1792068F1
:10253000009A08F0ADFE2068416901F480514161C4
:10254000206809F00DF9800415D5206808F0E8FC32
:10255000206809F0CCF8E07100F0A8FB0146E279B0
:10256000206809F05FF9204600F05CF920684169B5
:1025700001F400514161206809F0F2F8000707D525
:10258000204600F069F92068416901F008014161C5
:10259000206809F0E5F8000616D5A86920F080014A
:1025A000A96101260DE000BF06EBC60004EB800028
:1025B00090F85702012803D1F1B22046FFF7B0FC92
:1025C000761C2079B042EFD8206809F0C9F8C00223
:1025D0001FD501264F4614E005EB4610D0F8000940
:1025E00006EBC60104EB81010A7E012A08D100280E
:1025F00006DACF75F0B240F080012046FFF790FC7C
:10260000761C2079B042E7D82068416901F4801136
:102610004161206809F0A4F8800234D501204A46BF
:1026200029E000BF05EB4011D1F8001B00EBC0030F
:1026300004EB830393F85862012E1BD1002919DAA9
:1026400094F8D464C1F3004106F001068E4211D122
:1026500083F85722A96941F08003AB6169690906D3
:1026600008D4D5F8040840F40070C5F8040805E063
:102670000A30544F401C21798142D3D820684169E7
:1026800001F400114161206809F06AF8400007D5A3
:102690002046FFF72AFC2068416901F08041416132
:1026A000206809F05DF840070AD52068456868078A
:1026B00002D52046FFF730FC20684168294341607D
:1026C000BDE8FC9FD0F8E00407F07BBFD0F8E00441
:1026D00007F08BBFF8B5040005D094F89504266880
:1026E000002510B106E00120F8BD84F8945420467E
:1026F00000F056F8032084F89504B6F1A04F00D1FD
:10270000A571206808F0BEFD207C8DF8000094E8DB
:102710000F0008F013FC0226B8BB0021206809F066
:1027200042F890BB002001270DE000BF00EBC00184
:1027300004EB81014F750875C8850D76CD610D627A
:10274000401CC0B24D6221798142EFD8002011E0D7
:1027500000EBC00104EB810181F8555281F854026D
:1027600081F85852C1F85C52C1F86052401CC0B2A6
:10277000C1F8645221798142EAD8207C8DF80000AA
:1027800094E80F0008F0C0FC10B184F89564AAE743
:10279000657484F89574206808F0A8FC0020F8BDE2
:1027A00010B586B0044614216846FDF755FD206833
:1027B000B0F1A04F2FD119480021026842F0010268
:1027C0000260006800F0010005904FF4C0500090D6
:1027D0000220CDE90101032003900A2004906946FC
:1027E0000F48FFF7ABF90D48001D016841F080016B
:1027F00001600A481430016841F4804101600068BA
:10280000002200F48040059011464320FFF702FBB0
:102810004320FFF7F1FA06B010BD00003038024047
:102820000000024070B50446C079012570B102284D
:1028300001D0FEF723FC2946D4F8E00407F044FF5A
:10284000D4F8E004BDE8704007F0F8BE0025F2E7D8
:10285000D0F8E00407F021BFD0F8E00407F027BF6C
:1028600010B5044690F8940401280AD0012084F899
:1028700094046174206808F0C4FF002084F8940474
:1028800010BD022010BDD0F8E02400F29C4110469B
:1028900007F026BF10B50446006894F89414012987
:1028A00009D0012184F89414C168490609D5617BD7
:1028B000012902D005E0022010BD816B41F4803176
:1028C0008163206808F0D3FE206808F001FC002036
:1028D00084F8940410BD000010B50446D0F8E0045C
:1028E00007F040FF2068D0F8001E41F00101C0F859
:1028F000001EE07A002804D00248016841F0060179
:10290000016010BD10ED00E02DE9F84305460068B8
:102910004FF00109C1074FF0000601D1400727D54C
:10292000DFF80C81C8F86860FFF706FA0746414CEB
:1029300005E000BFFFF700FAC01B022857D8206847
:102940000001F7D468688101287A41EA00703949AA
:1029500084310860C8F86890FFF7EEF9074604E094
:10296000FFF7EAF9C01B022841D820680001F7D51B
:102970002878800752D52F484030016841F08051B7
:10298000016000682C4C00F080500090206840F4FA
:1029900080702060FFF7D0F9074604E0FFF7CCF91C
:1029A000C01B022823D82068C005F7D5214C7034FD
:1029B000206810F4407020D0A98901F44071814250
:1029C0001BD020681D4920F44070C1F800900E60B3
:1029D00020602068C00710D0FFF7AEF9064641F22C
:1029E000883707E0FFF7A8F9801BB84202D9032017
:1029F000BDE8F88320688007F4D5E9680D48C1F385
:102A000001220830032A0BD0016821F4F81101607B
:102A10002068A989C1F30B01084320600020E7E783
:102A20000268074B22F4F81219400A430260EFE7EC
:102A3000000047420038024000700040400E47420C
:102A4000FFFCFF0F2DE9F0470E46050065D0DFF8CB
:102A50001481D8F80000F7B200F00700B04207D2A6
:102A600088F80070D8F8000000F00700B04254D198
:102A700028683D4C810712D5400703D5206840F4F3
:102A8000E05020602878000703D5206840F46040BB
:102A900020602068A96820F0F000084320602878B2
:102AA000C0072DD0304968680839012812D00228A3
:102AB00013D0032811D00968890700292DDA21686D
:102AC00021F0030101432160FFF736F9814641F20D
:102AD000883A0EE009688903EFE709688901ECE7A5
:102AE000FFF72AF9A0EB0901514502D90320BDE8FF
:102AF000F0872068696800F00C00B0EB810FEFD11F
:102B0000D8F80010404601F00701B14207D907701C
:102B1000006800F00700B04201D00120E7E7287804
:102B2000400705D52068E96820F4E050084320609C
:102B30002878000706D52068296920F4604040EA1B
:102B4000C100206000F0D8F82168084AC1F30311E1
:102B5000515CC8400649086006480068FFF714F950
:102B60000020C4E7003C024008380240F83E01085B
:102B700018000020100000202DE9F041FFF7DCF8DC
:102B8000444C0546206840F00100206005E000BF8D
:102B9000FFF7D2F8401B022847D820688007F7D5F6
:102BA000206840F080002060FFF7C6F80546394EE7
:102BB00000200836306041F2883704E0FFF7BCF8A7
:102BC000401BB84231D8306810F00C0FF6D1FFF737
:102BD000B3F80546206820F45020206005E000BFCF
:102BE000FFF7AAF8401B64281FD820688003F7D499
:102BF000FFF7A2F80546206820F08070206004E00E
:102C0000FFF79AF8401B02280FD820688001F7D4FC
:102C1000FFF792F80546206820F08060206007E00A
:102C2000FFF78AF8401B022802D90320BDE8F08193
:102C300020680001F4D417491748091D0860154998
:102C400016488431086013480C30016821F4F851AB
:102C50000160016821F400510160016841F41F0125
:102C60000160016841F4001101600A487430016894
:102C700021F001010160016841F0807101600949A2
:102C80000748086008480068FFF77EF80028CDD0A4
:102C90000120CBE700380240103000040030002053
:102CA0000024F400180000201000002001480068F3
:102CB00070470000180000200448054900680968B2
:102CC000044AC1F38221515CC840704718000020BB
:102CD00008380240083F01080448054900680968AF
:102CE000044AC1F34231515CC840704718000020CB
:102CF00008380240083F0108154810B5006810F078
:102D00000C02144813D04110042A0FD0082A0ED107
:102D10000F4C241F2268236802F03F025B0207D594
:102D20002068C0F38810A0FB010106E0084610BD32
:102D30002168C1F38811A1FB00010023FDF742FACD
:102D40002168C1F30141491C4900B0FBF1F010BDFD
:102D5000083802400024F4002DE9F84F04006ED03A
:102D60002078DFF84C93C007A9F104054AD009F197
:102D700004000168C1F38101012908D00068C0F393
:102D8000810002280AD1D9F80000400206D528683F
:102D9000800337D560680028E1D033E06068B0F583
:102DA000803F10D0B0F5A02F286810D020F48030DC
:102DB0002860286820F4802028606068A8B1FEF7A9
:102DC000BBFF06460DE0286840F48030F4E740F48D
:102DD00080202860F7E700BFFEF7AEFF801B642865
:102DE00073D828688003F7D50CE0FEF7A5FF0646E8
:102DF00005E000BFFEF7A0FF801B6428F0D828681C
:102E00008003F7D42078DFF8AC8280074FF0000A07
:102E10003ED5A748001D016811F00C0F08D00068CE
:102E2000C0F3810002280BD1D9F80000400207D47A
:102E30002868800716D5E068012800D112E033E148
:102E4000E068B8B10120C8F80000FEF775FF06463B
:102E500005E000BFFEF770FF801B0228C0D828687D
:102E60008007F7D52868216920F0F80040EAC10002
:102E700028600DE0C8F800A0FEF75EFF064604E0FB
:102E8000FEF75AFF801B02281FD828688007F7D456
:102E90002078000722D5864F87486169703771B165
:102EA00001210160FEF748FF064604E0FEF744FFFB
:102EB000801B022809D838688007F7D50EE0C0F8D3
:102EC00000A0FEF739FF064605E082E0FEF734FF7A
:102ED000801B02287DD838688007F7D42078400707
:102EE00068D5DFF8CCB100270BF13C0BDBF8000014
:102EF000C0000BD4DBF8001041F08051CBF800107B
:102F0000DBF80000012700F0805000906B4E306825
:102F1000C00510D4306840F480703060FEF70CFFBC
:102F2000009005E0FEF708FF0099401A022850D8EB
:102F30003068C005F6D55E4EA0686C3601280FD00B
:102F40000528306810D020F001003060306820F093
:102F500004003060A068B8B1FEF7EEFE00900FE00C
:102F6000306840F00100F4E740F004003060F7E71B
:102F7000FEF7E2FE0099411A41F28830814266D89C
:102F800030688007F4D50EE0FEF7D6FE009007E02B
:102F9000FEF7D2FE0099411A41F28830814256D89C
:102FA00030688007F4D42FB1DBF8001021F0805195
:102FB000CBF80010A069C8B33D49091D0968C1F3E9
:102FC000810102294AD00228504607D0C8F8600083
:102FD00000E03CE0FEF7B0FE04463BE04746C8F8A0
:102FE0006000FEF7A9FE064605E000BFFEF7A4FE5E
:102FF000801B02282BD828688001F7D4D4E9070168
:103000000843A16A2E4A490802EB0141626A41EA7B
:103010008211084394F82C1040EA0161C9F80010AD
:1030200001203866FEF788FE044606E03EE000BF59
:10303000FEF782FE001B022809D828688001F7D518
:1030400034E000BFFEF778FE001B022802D90320FF
:10305000BDE8F88F28688001F4D427E00128F7D074
:10306000D9F80000E26900F4800191421CD1226A83
:1030700000F03F01914217D147F6C071626A0140EA
:10308000B1EB821F10D1A26A4FF0FF3300F4403140
:1030900003EB5202B1EB024F06D194F82C1000F072
:1030A0007060B0EB016F01D00120D1E70020CFE7C5
:1030B0000438024000004742800E47420070004042
:1030C0000000FFFF10B5040002D0607F10B106E0E1
:1030D000012010BD00202077204600F041F802209A
:1030E00060772068C168C943C90632D5CA214162E8
:1030F000216853204862204603F002FA20BB206872
:103100008168164A114081602168886862681043AE
:10311000D4E904231A43104388602168E0680861F9
:1031200020680169228941EA02410161204603F0D9
:103130000BFA48B921680A6C22F480220A642168DB
:103140000A6CA3691A430A642268FF21516208B11C
:1031500010BD00200121617710BD0000BFFF8FFF6F
:103160001FB5002100910191029103910068084967
:1031700088420CD102200090C00103906846FFF7FE
:10318000C3FB08B1FDF77AFF0249012008601FBDAB
:10319000002800403C0E474270B50446007F0B46B5
:1031A000012819D00126267702206077B2B19878DD
:1031B000D97840EA014558781978000240EA413050
:1031C00005432168CA20486221685320486220468E
:1031D00003F096F9D0B122E0022070BD5878C10604
:1031E00003D500F0EF000A305870D87803F07CF96E
:1031F0000204587803F078F942EA0022987803F044
:1032000073F90243187842EA4035DAE70748054087
:1032100020684560204603F097F900B96677226878
:10322000FF2151620021217770BD00003FFFFF00A8
:103230002DE9F0410446007F0D46012823D04FF0D0
:10324000010884F81C8002206077206800278068CD
:103250004FEA4060D2B1002800DBEF70A8782978EF
:1032600040EA01466878E978000240EA8150064366
:103270002168CA204862216853204862204603F032
:103280003FF9B8B12CE00220BDE8F081002800DB56
:10329000EF70287803F028F90204687803F024F925
:1032A00042EA0022A87803F01FF90243E87842EAD4
:1032B0008056DDE70D48064020680660206881687A
:1032C00021F480218160D5E90301084321688A68DF
:1032D00010438860204603F037F908B984F81D8050
:1032E0002268FF2151622777CEE700007F7F7F00B1
:1032F00070B504460B482168C860FEF71DFD054601
:103300004FF47A7607E000BFFEF716FD401BB0428F
:1033100001D9032070BD2068C0688006F4D5002064
:1033200070BD00005F7F010010B5FDF780FA10BD91
:103330002DE9FE430446002603200D4684F83400A0
:10334000606C03285ED0B5F5805F5BD04FF40067FA
:1033500000204FF08068BD421FD18146009001904F
:103360000021206803F0F8FE800113D4694620464E
:1033700004F0E6FA07000DD10198400334D5B4F803
:1033800050000104206803F01FFF070002D1022152
:10339000206823E0A06B384328E01DB1A06B40F00B
:1033A000006023E08146009001900021206803F036
:1033B000D3FE8001EED46946204604F0C1FA07002E
:1033C000E8D10198C0030FD5B4F85000010420687B
:1033D00003F0FAFE0700DDD10021206803F041FF71
:1033E0000700D7D14F46D5E74746D3E7A063A06B88
:1033F000144F4FF0010848B12068876384F8348087
:1034000001260EE0A06B40F08050EFE7211DD4E9CB
:10341000050C0EC9CDE90050CDF808C0206803F0B6
:10342000A5FE4FF40071206803F002FF28B1216867
:103430008F63A16B0143A163012684F83480304679
:10344000BDE8FE83FF05400070470000F0B5426E06
:10345000920F0A70426EC2F383624A70426EC2F3E8
:1034600001628A70426E120CCA70B0F86420120AAF
:103470000A7190F864204A71826E120DCA80826EC1
:10348000C2F303420A72B0F86820C2F3C0324A7233
:10349000B0F86820C2F380328A72B0F86820C2F3B4
:1034A0004032CA72B0F86820C2F300320A730026B4
:1034B0004E73426C4FF40075012462B1012A3AD078
:1034C000026847499163816B41F08051816380F8C4
:1034D00034400120F0BDB0F86820C36E9205120D93
:1034E00042EA93720A61C26EC2F3C2620A75C26E88
:1034F000C2F302624A75C26EC2F342528A75C26E4C
:10350000C2F38242CA75C26EC2F3C2320A760A6937
:10351000521C42650B7E03F007039B1C9A404265D8
:103520000B7A03F00F0704FA07F383655B0A5A432B
:10353000C0E917250EE090F86820C36E9206920A43
:1035400042EA13420A610A69521C92024265C0E9CA
:103550001652056630F86C2FC2F3803201F8192F2D
:103560000288C2F3C6124A70027802F07F028A70A3
:103570004268D20FCA704268C2F341720A7142684F
:10358000C2F382624A714268C2F383528A7142680E
:10359000C2F34052CA710E724268C2F300424A72CC
:1035A0008288C2F3C0328A728288C2F38032CA72C1
:1035B0008288C2F340320A738288C2F300324A73AF
:1035C0008288C2F381228A738288C2F30122CA737D
:1035D0000079C0F3460008744C740020F0BD000070
:1035E000FF054000426C0A60826C4A60C26C8A60CF
:1035F000026DCA60426D0A61826D4A61C26D8A6164
:10360000006EC8610020704770B50446B0F85000E5
:1036100000250104206803F00CFF18B1A16B0143E1
:10362000A16304E00021206803F096FD0546C5F380
:10363000432070BDF8B5056B04460068416B090472
:103640001BD5290719D5D4E90A56002E14D0002716
:10365000206803F0A1FD05F8010B010A05F8011B24
:10366000010C05F8021B000E361F7F1C05F8010C2B
:10367000082FEDD3C4E90A56F8BD416B4FF00006A0
:10368000C9054FF0010744D5390281632068C16B39
:103690004CF23A329143C1632068C16A21F00101C2
:1036A000C16228071DD515F0220F09D0206803F04C
:1036B000F1FE28B1A16B0143A1632046FFF7C4FED0
:1036C000216840F23A50886384F834702663A80772
:1036D00003D0204600F02EFBF8BD204600F02EFB64
:1036E000F8BD2806FCD5A80609D5206803F0D2FE4F
:1036F00028B1A16B0143A1632046FFF7A5FEA807EF
:10370000EED12068C16A21F00801C16284F83470EA
:10371000E3E7416B490424D5290722D5D4E90856AB
:10372000002EDDD05FF0000715F8010B009015F8B2
:10373000011B361F40EA0120009015F8021B40EAE9
:103740000140009015F8011C40EA016000906946B4
:10375000206803F034FD7F1C082FE5D3C4E9085628
:10376000F8BD416B40F23A221142F9D0416B890712
:1037700003D5A16B41F00201A163416B090703D599
:10378000A16B41F00801A163416B890603D5A16BD0
:1037900041F02001A163416BC90603D5A16B41F043
:1037A0001001A163416B890503D5A16B41F00801AC
:1037B000A16340F23A7181632068C16B40F23A32F2
:1037C0009143C163206803F065FEA16B0843A063C9
:1037D000280706D584F8347026632046FFF734FEA8
:1037E000F8BD2806FCD515F0300F0CD0E16B114860
:1037F0000865E06BFDF7B9FE0028F1D0E06BBDE88D
:10380000F84004F07BB8A8070CD0216C0A48086582
:10381000206CFDF7AAFE0028E2D0206CBDE8F8403D
:1038200004F043B8A66384F8347026632046FFF79B
:103830007BFDF8BDFD780008AB78000870B504008A
:103840000ED094F83400002518B92577204600F0F2
:103850004DF8032084F83400204600F00BF808B13E
:10386000012070BDA5632563012084F83400002089
:1038700070BD0000FEB50025044676200095CDE918
:1038800001502B462A462946206803F06FFC154E4E
:1038900046F8A05F206803F07BFC0125356002201C
:1038A000FDF7EAFF204604F033F928B184F83450DC
:1038B000A16B0143A16313E0204604F0B1F8002896
:1038C000F4D14FF40071206803F0B2FC002808D056
:1038D000226805499163A16B0143A16384F83450C8
:1038E0000120FEBD00802542FF0540002DE9F04F7C
:1038F00087B0054614216846FCF7AEFC46492868A7
:1039000088427DD145480068444940F40060086021
:10391000086800F4006005904048143800683F498A
:1039200040F0040014390860086800F004000590B5
:10393000086840F0080008600868032600F00800E6
:1039400005904FF4F8500090022001900020CDE93E
:1039500002060C24694604943148FEF7EFF8042768
:103960000220CDE900700020CDE9020669460494EA
:103970002C48FEF7E3F82D4C2B484FF00068C4E9C3
:1039800000080020A060E06038022061C4E90976E8
:10399000800004F114014FF480494FF0200A4FF4E5
:1039A000003B81E8010EC60247022046C4E90B67CE
:1039B000FDF7C0FE08B1FDF761FB2C64A5631B4C4D
:1039C000194860344830C4E900084020A060002055
:1039D000E0604FF48060206104F11401800081E810
:1039E000010E042060621431032081E8C1002046EA
:1039F000FDF7A0FE08B1FDF741FBEC63002200E0FB
:103A000007E001213120A563FEF704FA3120FEF71B
:103A1000F3F907B0BDE8F08F002C014044380240B4
:103A200000080240000C024058640240F0010020EF
:103A30002DE9F04F87B09B4616460D460446FEF72B
:103A40007BF900903DB194F83400012807D0A06BB9
:103A500040F000500DE0A06B40F0006009E0002055
:103A6000A063E26D06EB0B01914204D9A06B40F01C
:103A70000070A0638AE0032184F834102168C862D2
:103A8000616C012900D076024FF0FF3101914FEABD
:103A90004B2102914FF0010803AA90210227814691
:103AA000CDF8188082E8820201A9206803F03EFB6D
:103AB000BBF1010F05D927633146206803F02AFCCA
:103AC00005E0C4F830803146206803F03CFCDFF8A4
:103AD0003CA130B12268C2F838A0A16B0143A163B8
:103AE00050E0029E1FE0406B000413D596B1002702
:103AF000206803F051FB05F8010B010A05F8011BD2
:103B0000010C05F8021B000E361F7F1C05F8010C86
:103B1000082FEDD3FEF710F901460098091A109806
:103B2000814220D2F8B12068426B40F22A310A4229
:103B3000D9D0416BC90509D5BBF1010F06D9616C1C
:103B4000032903D003F0A6FC0028C3D12068416BF1
:103B5000090702D4416B89051AD5C0F838A0A06BBB
:103B600040F0080050E02168C1F838A0A06B40F098
:103B70000040A06384F83480C4F83090032007B07C
:103B8000BDE8F08F84F83480C4F830900120F6E767
:103B9000416B890705D5C0F838A0A06B40F0020042
:103BA00032E0416B89061BD5C0F838A0A06B40F00D
:103BB000200029E003F0F0FA05F8010B010A05F8EE
:103BC000011B010C05F8021B000E05F8010C361F45
:103BD000FEF7B2F80099411A109881420ED268B1EE
:103BE0002068416B890201D5002EE3D1216840F2A3
:103BF0003A50886384F834800020C0E72168C1F817
:103C000038A0A06B40F00040A063BBE7FF05400078
:103C10002DE9F04786B01F460446154639B194F8A1
:103C20003400012807D0022006B0BDE8F087A06B61
:103C300040F0006008E00020A063E36DEA199A42BA
:103C400004D9A06B40F00070A06369E0032284F8FF
:103C5000342022688146D0622268D36B40F22A3633
:103C60003343D363236C2F4ADA63236C2E4ADA641E
:103C7000226C1065226C9060206C0068026822F053
:103C8000C002026020680A46266C4FEA472800F10D
:103C900080014FEA98033046FDF7B6FDDFF88CA0AF
:103CA000012670B12068C16B21F49571C163216850
:103CB000C1F838A0A06B40F08040A06384F8346065
:103CC0002EE01B480660606C012800D06D024FF0AA
:103CD000FF30CDE900089020029002200596CDE942
:103CE00003096946206803F021FA012F06D98220D2
:103CF00020632946206803F00DFB05E08120206346
:103D00002946206803F01FFB00288DD02268C2F8E6
:103D100038A0A16B0143A16384F83460C4F83090EB
:103D2000012081E76978000805780008FF05400058
:103D30008C85254210B5FCF7BBFD10BD10B5FCF716
:103D4000CBFD10BD2DE9F04F8DB09B4616460D46BC
:103D50000446FDF7F1FF0A903DB194F834000128C4
:103D600007D0A06B40F000500DE0A06B40F0006069
:103D700009E00020A063E26D06EB0B01914204D93B
:103D8000A06B40F00070A0637AE0032184F8341047
:103D90002168C862616C012900D076024FF0FF31C2
:103DA00003914FEA4B2104919021CDE905104FF08A
:103DB0000109CDE90709824603A9206803F0B6F995
:103DC000BBF1010F06D9202020633146206803F0A3
:103DD0007BFB05E0102020633146206803F08DFB5B
:103DE0005FEA000806D0216841488863A06B40EA7A
:103DF000080074E0049E27E0406B40041CD5DEB14F
:103E00005FF0000715F8010B009015F8011B361F35
:103E100040EA0120009015F8021B40EA01400090A2
:103E200015F8011C40EA016000906946206803F023
:103E3000C6F97F1C082FE5D3FDF77EFF0A99411ACA
:103E40001698814220D2F8B12068416B40F21A32B4
:103E50001142D1D0416BC90523D5BBF1010F20D947
:103E6000616C03291DD003F015FBD0B122682049F5
:103E70009163A16B0143A16384F83490C4F830A02E
:103E800001200DB0BDE8F08F216819488863A06B50
:103E900040EA0800A06384F83490C4F830A00320FE
:103EA000EFE72068416B090702D4416B890505D50E
:103EB0000F498163A06B40F0080010E0416B890757
:103EC00005D50B498163A06B40F0020007E0416B10
:103ED000C90606D506498163A06B40F01000A063B7
:103EE000CAE740F23A51816384F834900020C8E771
:103EF000FF0540002DE9F04F5FEA010B87B01E4639
:103F00000446114607D094F83400012807D0022057
:103F100007B0BDE8F08FA06B40F0006008E000251E
:103F2000A563E26D8819904204D9A06B40F000703F
:103F3000A06356E0032084F834002068C56220683E
:103F4000C26B40F21A2942EA0902C263E26B2D48B1
:103F5000D063E26B2C48D064E06B0565606C01288F
:103F600000D049024FF09008012E05D9A02020630F
:103F7000206803F0A9FA04E0C4F83080206803F058
:103F8000BCFADFF888A0012730B12268C2F838A057
:103F9000A16B0143A16321E01D480760E16B402054
:103FA0008860E06B0068016821F0C00141F04001C9
:103FB000016022687602B30859468032E06BFDF753
:103FC00023FC80B12068C16B21EA0901C16321682B
:103FD000C1F838A0A06B40F08040A06384F8347032
:103FE0002563012094E74FF0FF30CDE90006CDE9CD
:103FF0000285CDE904576946206803F097F8002050
:1040000086E70000EF78000805780008FF0540000B
:104010008C85254270B5040009D0606A002540B146
:1040200025616561A56294F8510040B10CE0012062
:1040300070BD6068B0F5827FF4D0E561F2E784F886
:104040005050204600F044F8022084F851002068C7
:10405000016821F040010160A088218900F482708C
:1040600001F404410843A18901F400610843217C63
:1040700001F002010843217D01F001010843218B79
:1040800001F400710843217F01F03801084394F8DE
:10409000201001F080010843218D01F400510843F4
:1040A00021680860A069042101EA104094F82410F6
:1040B00001F010010843216848602068C16921F4BB
:1040C0000061C1616565012084F85100002070BD68
:1040D00010B586B0044614216846FCF7BDF81349B4
:1040E0002068884220D112480021026842F48052A0
:1040F0000260006800F4805005900D481438026892
:1041000042F001020260006800F001000590E0202A
:1041100000900220CDE901010320039005200490C6
:1041200069460448FDF70AFD06B010BD00300140A5
:1041300044380240000002402DE9FF4F81B01D4687
:10414000934604464FF001090E9EFDF7F5FD074624
:1041500094F851006168012806D0B1F5827F3CD106
:10416000A168C9BB042838D10298002871D0BBF1DE
:10417000000FFBD0002DF9D094F8500001282CD06E
:104180004FF0010A84F850A094F85100042802D09E
:10419000052084F851004FF00008C4F85480C4F89A
:1041A00038B0E587A58702992163E586A586C4F81E
:1041B0004080C4F8448020680168490603D401683F
:1041C00041F040010160E068B0F5006F606808D020
:1041D000F0B3012D49D081E0FFE7022005B0BDE832
:1041E000F08F08B1012D39D1206B21680088C8609B
:1041F000206B801C2063E08E401EE0862EE020684D
:10420000816889070FD5E18E69B1B9F1010F0AD133
:10421000216B0988C160206B801C2063E08E401EEA
:10422000E0864FF0000920688168C9070CD0E18F53
:1042300051B1C068A16B0880A06B801CA063E08FA7
:10424000401EE0874FF00109FDF776FDC01B01E03D
:104250000BE067E0B04201D3701C50D1E08E002823
:10426000CDD1E08F0028CAD13EE0206B21680078D4
:104270000873206B401C2063E08E401EE0862DE01A
:104280002068816889070FD5E18E69B1B9F1010F06
:104290000AD1216B09780173206B401C2063E08EEA
:1042A000401EE0864FF0000920688168C9070CD0E5
:1042B000E18F51B1C068A16B0870A06B401CA06376
:1042C000E08F401EE0874FF00109FDF735FDC01B70
:1042D000B04202D3701C01D011E086B1E08E0028FC
:1042E000CED1E08F0028CBD13A463146204603F0AC
:1042F00019FD50B12020606584F8508012E084F8E8
:1043000051A084F85080032068E7A06818B920689D
:10431000C1688068009084F851A084F85080606D76
:104320000028F1D0012059E710B5401EB0F1807F80
:1043300001D3012010BD4FF0E02460610F21601710
:1043400007F00CFE0020A06107202061002010BDB6
:104350007047704770B590F83C20012A32D0012494
:1043600080F83C40022280F83D2003685A689D682E
:1043700022F070060A6832435A60134B02689A4270
:1043800014D0B2F1804F11D0104B9A420ED0104B86
:104390009A420BD00F4B9A4208D00F4B9A4205D04D
:1043A0000E4B9A4202D00E4B9A4204D1496825F036
:1043B00080031943916080F83D40002180F83C1053
:1043C000084670BD022070BD00000140000400409E
:1043D00000080040000C0040000401400040014083
:1043E0000018004010B5040003D094F83D0010B14F
:1043F00007E0012010BD002084F83C00204600F0BA
:104400001FF8022084F83D00211D206805F02AFCD9
:10441000012084F8460084F83E0084F83F0084F8C8
:10442000400084F8410084F8420084F8430084F896
:10443000440084F8450084F83D00002010BD0000D1
:1044400008B500680B49884212D10B48016841F059
:10445000010101600068002200F001000090114697
:104460001920FDF7D7FCBDE808401920FDF7C4BCB2
:1044700008BD0000000001404438024090F83D10A3
:10448000012901D001207047022180F83D10016808
:10449000CA6842F00102CA6000681149884214D01B
:1044A000B0F1804F11D00F4988420ED00E4988429A
:1044B0000BD00E49884208D00D49884205D00D49DD
:1044C000884202D00C49884204D1816801F007017A
:1044D000062903D0016841F0010101600020704706
:1044E000000001400004004000080040000C0040B3
:1044F00000040140004001400018004070B504462F
:1045000090F83C000025012817D0012684F83C6073
:10451000022084F83D002068826822F0770222F4AD
:104520007F4282600868502838D00DDC20284FD0A8
:1045300005DC90B3102811D14AE0022070BD30286C
:1045400046D040280AD13BE060282FD070280DD0FB
:10455000B0F5805F03D0B0F5005F12D0012584F87C
:104560003D60002084F83C00284670BDCB68D1E94E
:104570000121206805F0DEFB2068816841F07701A9
:1045800009E0CB68D1E90121206805F0D3FB206860
:10459000816841F480418160E1E719E0CA684968B7
:1045A000206805F0D9FB5021206806E0CA684968F8
:1045B000206805F0E2FB6021206805F0C5FBCEE72E
:1045C000CA684968206805F0C7FB40212068F4E705
:1045D000226801461046F0E770472DE9F041044695
:1045E0000068C66805694FF00007A90713D5B10731
:1045F00011D5F91E016101202077206880698007AC
:10460000204602D0FFF7E8FF04E000F07EF82046E5
:1046100000F07CF82777680716D5700714D5216855
:104620006FF004000861022020772068806910F490
:10463000407F204602D0FFF7CFFF04E000F065F88E
:10464000204600F063F82777280715D5300713D5E3
:1046500021686FF008000861042020772068C06995
:104660008007204602D0FFF7B7FF04E000F04DF8C6
:10467000204600F04BF82777E80616D5F00614D54B
:1046800021686FF010000861082020772068C06959
:1046900010F4407F204602D0FFF79EFF04E000F0B8
:1046A00034F8204600F032F82777E80708D0F00702
:1046B00006D021686FF001000861204600F028F85C
:1046C000280608D5300606D521686FF080000861FD
:1046D0002046FFF73DFE680608D5700606D521681E
:1046E0006FF040000861204600F03AF8A8060AD5AD
:1046F000B00608D521686FF0200008612046BDE8AB
:10470000F041FFF726BEBDE8F0817047704700001A
:104710000068104988421BD10F490868401C086096
:104720004FF4FA61B0FBF1F201FB12010B48B1F555
:104730007A7F09D24FF4FA72B1FBF2F302FB131144
:10474000FA2901D2012200E000220421FDF7EEBA8D
:1047500070470000000001400000002000040240FB
:104760007047704770470000F8B501680446086854
:10477000CA684B6910F00F0F4FF0000559D003F0D5
:10478000010602F49077374365D0C10705D0D10503
:1047900003D5616C41F001016164410705D5D9077A
:1047A00003D0616C41F002016164810705D5D9072E
:1047B00003D0616C41F004016164010707D502F088
:1047C0002001314303D0616C41F008016164616CE8
:1047D00000293AD0800604D5900602D5204605F07F
:1047E00013FB20684069616CC0F38010090700D496
:1047F00060B3204605F0E1FA20684069400621D503
:104800002068143050E8001F21F0400140E80012F9
:10481000002AF5D1E06BA8B172490165E06BFCF7A5
:10482000A4FE002811D0E06B016D01B0BDE8F0409E
:10483000084783060FD593060DD52046BDE8F840FE
:1048400005F0E2BA2046FFF78DFFF8BD2046FFF7DE
:1048500089FF6564F8BD266B2023012E7ED1C60634
:104860007CD5D6067AD508684868009048694FF02C
:10487000020640064DD5E26B106840684FF4807721
:104880000004000C3AD0A18D814237D9E085D0696F
:10489000B8422DD020680C3050E8001F21F4807100
:1048A00040E80012002AF5D12068143050E8001FBB
:1048B00021F0010140E80012002AF5D120681430EF
:1048C00050E8001F21F0400140E80012002AF5D115
:1048D00084F84230256320680C3050E8001F21F036
:1048E000100140E80012002AF5D1E06BFCF7F4FD5E
:1048F0006663A08DE18D401A81B206E0A18D8142F0
:10490000A8D1D069B842A5D166632046FFF729FF38
:10491000F8BDA08DE18D401A81B2E08D0028F7D05E
:104920000029F5D020680C3050E8002F22F4907256
:1049300040E80027002FF5D12068143050E8002F00
:1049400022F0010240E80027002FF5D184F8423020
:10495000256320680C3050E8002F00E006E022F0CC
:10496000100240E80023002BF3D1CDE705062BD53C
:10497000150629D594F841002128C9D1A068B0F5C1
:10498000805F01D12069B0B1206A411C2162216899
:1049900000784860E08C401E0004000CE084B7D131
:1049A0002068C16821F08001C1602068C16841F0C1
:1049B0004001C160F8BD206A0088C0F3080048606B
:1049C000206A801C2062E5E74006F3D55006F1D549
:1049D000CA68204622F04002CA6084F8413000F0E4
:1049E0001AF9F8BDAD9D000870B5040004D094F824
:1049F0004100002510B106E0012070BD84F8405050
:104A0000204600F023F8242084F841002068C16883
:104A100021F40051C160204605F058FA2068016970
:104A200021F4904101612068416921F02A0141612E
:104A30002068C16841F40051C1606564202084F899
:104A4000410084F842006563002070BD10B586B057
:104A5000044614216846FBF7FFFB1749206888428B
:104A600027D116480021026842F400220260006843
:104A700000F40020059011481038026842F001024D
:104A800002600068022200F0010005900320CDE9D9
:104A90000210CDE900020820049069460848FDF79D
:104AA0004DF8002201213420FDF7B4F93420FDF740
:104AB000A3F906B010BD0000004C00404038024091
:104AC000000002402DE9F84F044690F842009A4653
:104AD00016460D46202802D00220BDE8F88FB5B159
:104AE000AEB100206064222184F842102063FDF7FB
:104AF00023F9A6858146E685A0684FF480582027D3
:104B0000404501D1206920B12E46002529E0012031
:104B1000E3E7002625E04B46002220212046CDF881
:104B200000A005F059FA18B184F842700320D4E7C8
:104B300026B1A06840451AD038B108E02068406826
:104B4000C0F3080025F8020B08E0206978B120685E
:104B5000406800F07F0000BF06F8010BE08D401EAA
:104B6000E085E08D0028D6D184F84270B5E7206852
:104B70004068F1E770472DE9F843044690F841009A
:104B8000984616460D46202802D00220BDE8F8833C
:104B900085B17EB100206064212084F84100FDF7DA
:104BA000CBF8A6848146E684A0682027B0F5805F14
:104BB00002D003E00120E9E7206910B12E4600256C
:104BC0000EE000260CE08021204605F005FAA8B989
:104BD000C6B116F8010B21684860E08C401EE084E5
:104BE000E08C4B464FF00002CDF800800028EAD15F
:104BF0004FF04001204605F0EFF940B184F84170D4
:104C00000320C3E735F8020BC0F30800E3E784F89C
:104C100041700020BAE77047FEE70000F0B50022BF
:104C20000E4B154614460A27B1FBF3F63036865470
:104C3000B1FBF3F603FB1611B3FBF7F3521C861816
:104C400016F8016C302E00D135B16D1C641C0A2C95
:104C5000EAD300218154F0BD0022F7E700CA9A3B55
:104C6000F0B500230A24302537261F4611E000BF87
:104C7000B4EB107F02D905EB107C01E006EB107C51
:104C800001F813C001EB430C00015B1C8CF80170B0
:104C9000DBB29342ECD3F0BD2DE9F0410F460A465A
:104CA000044601460E20FBF7AAFD1C4E0D25607B35
:104CB000617A617361796172617861716070A07805
:104CC000A17AA170A072A079A17BA171A073E078F4
:104CD000E179E170E17AE171E17BE172E07300205A
:104CE0005FF0000104EB8102491C135CC9B2042986
:104CF000F35C1354F6D3401CC0B20428F0D33A46F8
:104D000021462846FBF77BFD002D05D0204600F00C
:104D100007F86D1EEDB2CAE7BDE8F08164400108F6
:104D20002DE9F14F0024009800EB840510F8248051
:104D300095F8019095F802B095F803A040460FF061
:104D4000ADF80FF0ABF80FF0A9F80FF0A7F8504648
:104D50000FF0A4F858460FF0A1F848460FF09EF85F
:104D60000FF09CF848460FF099F80FF097F80FF005
:104D700095F80FF093F850460FF090F80FF08EF87A
:104D80000FF08CF80FF08AF850460FF087F80FF00C
:104D900085F858460FF082F80FF080F80FF07EF893
:104DA0000FF07CF840460FF079F8064640460FF0C9
:104DB00075F80FF073F8464040460FF06FF80FF0AB
:104DC0006DF80FF06BF8464048460FF067F880EA40
:104DD000090748460FF062F80FF060F80FF05EF830
:104DE00047407E4058460FF059F80FF057F880EAD8
:104DF0000B0758460FF052F80FF050F80FF04EF82E
:104E000047407E4050460FF049F80FF047F80FF04A
:104E100045F880EA0A004640009800F824604046C1
:104E20000FF03CF850460FF039F858460FF036F8BE
:104E30000FF034F848460FF031F80FF02FF80FF06C
:104E40002DF80FF02BF840460FF028F80FF026F859
:104E50000FF024F80FF022F840460FF01FF80FF083
:104E60001DF850460FF01AF80FF018F80FF016F86A
:104E70000FF014F858460FF011F80FF00FF80FF07C
:104E80000DF80FF00BF840460FF008F80FF006F899
:104E90000FF004F880EA080648460EF0FFFF0746C8
:104EA00048460EF0FBFF0EF0F9FF474048460EF073
:104EB000F5FF0EF0F3FF0EF0F1FF47407E4058463D
:104EC0000EF0ECFF80EA0B0758460EF0E7FF0EF0FD
:104ED000E5FF0EF0E3FF47407E4050460EF0DEFF58
:104EE0000EF0DCFF80EA0A0750460EF0D7FF0EF006
:104EF000D5FF0EF0D3FF47407E406E7040460EF067
:104F0000CDFF50460EF0CAFF0EF0C8FF58460EF017
:104F1000C5FF0EF0C3FF0EF0C1FF0EF0BFFF484605
:104F20000EF0BCFF40460EF0B9FF0EF0B7FF0EF0DA
:104F3000B5FF0EF0B3FF50460EF0B0FF0EF0AEFF1F
:104F40000EF0ACFF0EF0AAFF48460EF0A7FF0EF0E1
:104F5000A5FF0EF0A3FF0EF0A1FF48460EF09EFF46
:104F60000EF09CFF40460EF099FF0EF097FF80EA8E
:104F7000080640460EF092FF0EF090FF0EF08EFFF6
:104F8000464048460EF08AFF0EF088FF0EF086FF7E
:104F900080EA0900464058460EF080FF0746584612
:104FA0000EF07CFF0EF07AFF474058460EF076FF79
:104FB0000EF074FF0EF072FF47407E4050460EF038
:104FC0006DFF80EA0A0750460EF068FF0EF066FF9C
:104FD0000EF064FF47407E40AE7040460EF05EFF2C
:104FE0000EF05CFF50460EF059FF0EF057FF0EF02A
:104FF00055FF0EF053FF58460EF050FF48460EF096
:105000004DFF40460EF04AFF0EF048FF0EF046FFFF
:105010000EF044FF58460EF041FF0EF03FFF0EF039
:105020003DFF0EF03BFF58460EF038FF0EF036FF06
:1050300048460EF033FF0EF031FF0EF02FFF0EF05A
:105040002DFF40460EF02AFF80EA080640460EF08B
:1050500025FF0EF023FF0EF021FF464048460EF0DC
:105060001DFF0EF01BFF80EA090748460EF016FFF1
:105070000EF014FF0EF012FF47407E4058460EF02F
:105080000DFF0EF00BFF0EF009FF80EA0B0046400B
:1050900050460EF003FF074650460EF0FFFE0EF09E
:1050A000FDFE474050460EF0F9FE0EF0F7FE0EF002
:1050B000F5FE47407E40641CEE70042CFFF633AED4
:1050C000BDE8F88FF0B5002301EB830511F823400C
:1050D00000F8234000EB83046E786670AE78A6700B
:1050E000ED785B1CE570082BEED32A4C0823990061
:1050F0000E1F5FEA437E855D064465F3070296F85E
:1051000001C0B7786CF30F22F67867F3174266F3A5
:105110001F6212D1E75DA65D67F30F22655D66F33E
:10512000174265F31F621C4D14F80CC005EBD30544
:105130002D788CEA050C6CF3070203F00705042DAB
:1051400011D1D5B2655D65F30702C2F30725655D30
:1051500065F30F22C2F30745655D65F31742150E2F
:10516000655D65F31F62A1F120055B1C465D05448A
:10517000564046546E78014486EA12264E70AE7848
:105180003C2B86EA12468E70ED7885EA1265CD706A
:10519000ADD3F0BD643F0108644101082DE9F05F23
:1051A000ADF5DE5D0024A54D8DF80841A4A0439522
:1051B00003F006FA0DF022FE08B1ACA03BE1B4A06A
:1051C00003F0FEF900200DF029FE08B1B6A032E18F
:1051D000BCA003F0F5F941F664366E44C3A2314633
:1051E000C3480BF0E3F908B1C2A074E0CBA003F010
:1051F000E7F941F21017B2466F44E84644AE0DF1AC
:10520000080935E09DF80000012831D12E214846DB
:10521000FBF780F860B3CAA1FBF758F840BB0A2C33
:1052200026D207EB04204946FBF76BF8C6A003F033
:10523000C7F9C6A003F0C4F9611C3046FFF7EEFCC5
:10524000304603F0BDF9C2A003F0BAF9484603F0B6
:10525000B7F9C0A003F0B4F930460199FFF7DEFCBE
:10526000304603F0ADF9BEA003F0AAF9641CE4B225
:10527000424651469E480BF0F3FB0028C2DC5146E3
:105280009B480AF0A5F92CB3B8A003F099F9214680
:105290003046FFF7C3FC304603F092F9BBA003F0A1
:1052A0008FF94FF0FF3830344346012242A9BE48FF
:1052B000FFF708FC0028F7D19DF8080161280DD000
:1052C00041280BD0312801D3A04209D9B7A003F05F
:1052D00077F9E9E7BAA003F073F964E0C1A0FAE74F
:1052E000C0B23138C4B2C5A003F06AF907EB042498
:1052F000204603F065F95CA003F062F9224641F60E
:1053000010346C440123214679480CF003FA08B1AB
:10531000BFA0E0E7A246214675480CF007FC044612
:10532000C1A003F04DF9B04621464046FFF776FC98
:10533000304603F045F9BFA003F042F9B4F5402F21
:1053400001D9BFA029E0C9A003F03AF9AB4628462D
:10535000FBF70CFF08B1CAA01FE0CFA003F030F9A3
:1053600000274FF480593AE0E31B4B4500D94B46E8
:10537000424651465E480CF018FB061E01DACDA0ED
:105380000BE02ED0F01CC11700EB9170821041464B
:105390004398FBF721FF68B1CBA003F011F9514608
:1053A00053480BF0EBFF00200DF0A8FD0DF5DE5D7E
:1053B000BDE8F09F4398374430444390C8A003F0C1
:1053C000FFF864207843B0FBF4F146464046FFF70F
:1053D00025FC304603F0F4F8C4A003F0F1F8A7422E
:1053E000C2D3C3A003F0ECF8514641480BF0C6FF0E
:1053F00000200DF083FDC8A003F0E2F8CF49286833
:1054000088420BD1CEA003F0DBF8D5A003F0D8F88A
:1054100005F1200003F0D4F813A009E0DBF8000048
:10542000A0F10050B0F5403F01D2D2A000E0DEA0D4
:1054300003F0C6F8E7A003F0C3F8B7E700000408DC
:105440000D0A496E697469616C697A696E672053E7
:10545000504920466C61736820616E64204C697409
:10546000746C6546532E2E2E0D0A000053504920B1
:10547000466C61736820696E697469616C697A61F0
:1054800074696F6E206661696C6564210D0A0000A5
:105490004D6F756E74696E67204C6974746C6546E7
:1054A000532E2E2E0D0A00004661696C656420742F
:1054B0006F206D6F756E74204C6974746C65465303
:1054C000210D0A005363616E6E696E67204C69742A
:1054D000746C65465320666F722062696E2066693F
:1054E0006C65732E2E2E0D0A000000002F000000A8
:1054F000480800204661696C656420746F206F70F5
:10550000656E204C6974746C6546532064697265DD
:1055100063746F7279210D0A000000000D0A466F56
:10552000756E642062696E2066696C657320696EB1
:10553000204C6974746C6546533A0D0A00000000F3
:105540002E62696E00000000202000005B00000059
:105550005D200000202873697A653A200000000071
:10556000206279746573290D0A0000000D0A506CE1
:10557000656173652073656C656374206120626981
:105580006E2066696C652028312D000029206F721D
:105590002070726573732027612720746F20616209
:1055A0006F72743A20000000B8030020496E7661E3
:1055B0006C696420696E707574210D0A000000002A
:1055C0004E6F2062696E2066696C657320666F7528
:1055D0006E6420696E204C6974746C654653210DAD
:1055E0000A0000000D0A4F7065726174696F6E20C9
:1055F00061626F72746564210D0A00000D0A4F70BC
:10560000656E696E672066696C653A20000000006F
:105610004661696C656420746F206F70656E2066EA
:10562000696C65210D0A000046696C652073697A12
:10563000653A20002062797465730D0A000000004D
:105640004572726F723A2046696C652073697A659B
:10565000206578636565647320466C6173682063B8
:1056600061706163697479210D0A0000457261738C
:10567000696E6720466C6173682E2E2E0D0A00003D
:10568000466C617368206572617365206661696C40
:105690006564210D0A00000057726974696E672005
:1056A00066696C6520746F20466C6173682E2E2EBF
:1056B0000D0A000046696C652072656164206572A0
:1056C000726F72210D0A0000466C61736820777258
:1056D000697465206661696C6564210D0A000000CB
:1056E00050726F67726573733A200000250D0000D9
:1056F0000D0A46696C65207772697474656E207353
:1057000075636365737366756C6C7920746F20467E
:105710006C617368210D0A00436865636B696E678D
:10572000206170706C69636174696F6E2076616C62
:1057300069646974792E2E2E0D0A0000561905270A
:1057400056616C696420552D426F6F7420686561E5
:1057500064657220666F756E64210D0A000000009A
:105760004170706C69636174696F6E206E616D6504
:105770003A2000004E6F20552D426F6F74206865EF
:10578000616465722C206275742076616C69642096
:10579000737461636B20706F696E74657220666FDD
:1057A000756E64210D0A00005761726E696E673A6A
:1057B000204170706C69636174696F6E206D6179EE
:1057C000206E6F742062652076616C6964210D0A19
:1057D000000000004C6974746C65465320746F209F
:1057E000466C6173682075706461746520636F6DC9
:1057F000706C65746564210D0A0000002DE9F041AC
:105800000546D0F8D40205EB8000D0F8C042002C49
:105810001ED004F500410F4E087F38B9886928B1C1
:10582000607A18B93178284604F08AFF0A4F284672
:10583000397804F085FF607A022809D13978284642
:1058400004F07EFF31782846BDE8F04104F078BFCF
:10585000BDE8F081ED000020EC0000202DE9F041D2
:105860000646D0F8D40206EB8000D0F8C042002CE7
:1058700060D004F5004568696863A869A8632E488C
:105880000178304604F059FE1F280BD12B492869B6
:10589000884207D1697F2068814203D8A87F08B178
:1058A000102808D9697F20230522304601F0DEFA4E
:1058B000022060720AE048F21F002218304600F011
:1058C00013FF0028207A08DA052804D03046BDE806
:1058D000F041FFF793BF012127E002282AD00128D9
:1058E00028D0032826D0E768F7B1D6F8D41230467E
:1058F00006EB810104F11002D1F8C052002D19D03D
:1059000005F500418B69BB4200D33B468C6BE41B21
:105910008C63002481F83C400421297208490978ED
:10592000BDE8F04104F02BBF00213046BDE8F04156
:1059300000F0E2B8BDE8F081ED000020555342438D
:10594000EC00002010B50446D0F8D40204EB80002F
:10595000D0F8C002002818D0407A022809D00906E1
:1059600013D5012811D02046BDE81040012100F0D8
:10597000C3B806480178204604F0E2FE04480178E6
:105980002046BDE8104004F0DBBE10BDEC00002056
:10599000ED00002010B50446D0F8D40204EB8000DE
:1059A000D0F8C022002A18D0107A022805D0032887
:1059B00001D0042811D100210AE048F21D00815CC9
:1059C000801C0244204600F08FFE002805DA0121E9
:1059D0002046BDE8104000F08FB810BD10B5044659
:1059E000D0F8D40204EB8000D0F8C022002A18D0EE
:1059F000107A88B1012814D148F21D00815C801C06
:105A00000244204600F070FE00280ADA2046BDE875
:105A10001040012100F070B82046BDE81040FFF7AB
:105A20001DBF10BDD0F8D41200EB8100D0F8C00229
:105A3000002801D0002101727047000070B50546B2
:105A4000D0F8D40205EB8000D0F8C042002C26D05C
:105A50000020207204F50041607281F8610001F8B5
:105A6000600F8870D5F8D40205EB8000D0F8C4022E
:105A70000168002088470A4E2846317804F054FD1A
:105A800008480178284604F04FFD1F2348F2100013
:105A9000221831782846BDE8704004F0C6BD70BDBC
:105AA000ED000020EC00002070B50546D0F8D402CF
:105AB00005EB8000D0F8C042002C17D000202072E7
:105AC000012060720A480178284604F064FC094EFF
:105AD0002846317804F05FFC1F2348F2100022189A
